:020000040800F2
:1000000000000120B1100008995A00089B5A00080E
:100010009D5A00089F5A0008A15A000800000000DD
:10002000000000000000000000000000DD400008AB
:10003000A35A000800000000A5410008A55A0008C6
:10004000F9100008F9100008F9100008F91000086C
:10005000F9100008F9100008F9100008F91000085C
:10006000F9100008F9100008F9100008B55A000846
:10007000F9100008F9100008F9100008F91000083C
:10008000F9100008F9100008F9100008F91000082C
:10009000C15A0008F9100008F9100008F91000080A
:1000A000F9100008F9100008F9100008F91000080C
:1000B000F9100008F9100008F9100008F9100008FC
:1000C000F9100008F9100008F9100008F9100008EC
:1000D000F9100008F9100008F9100008F9100008DC
:1000E000F9100008F9100008F9100008F9100008CC
:1000F000F9100008F9100008F9100008F9100008BC
:10010000F9100008F9100008F9100008F9100008AB
:10011000F9100008F9100008F9100008F91000089B
:10012000F9100008F9100008F9100008F91000088B
:1001300000000000000000000000000000000000BF
:1001400000000000000000000000000000000000AF
:10015000000000000000000000000000000000009F
:10016000000000000000000000000000000000008F
:10017000000000000000000000000000000000007F
:10018000000000000000000000000000000000006F
:10019000000000000000000000000000000000005F
:1001A000000000000000000000000000000000004F
:1001B000000000000000000000000000000000003F
:1001C000000000000000000000000000000000002F
:1001D000000000000000000000000000000000001F
:0401E0005FF8E0F1F3
:1001E80010B5054C237833B9044B13B10448AFF369
:1001F80000800123237010BDCC0100200000000006
:100208001878000808B5034B1BB103490348AFF33E
:10021800008008BD00000000D00100201878000808
:10022800034613F8012B002AFBD1181A013870472E
:1002380081F0004102E000BF83F0004330B54FEA8F
:1002480041044FEA430594EA050F08BF90EA020FFC
:100258001FBF54EA000C55EA020C7FEA645C7FEA8F
:10026800655C00F0E2804FEA5454D4EB5555B8BFB2
:100278006D420CDD2C4480EA020281EA030382EA23
:10028800000083EA010180EA020281EA0303362DB5
:1002980088BF30BD11F0004F4FEA01314FF4801C88
:1002A8004CEA113102D0404261EB410113F0004F9A
:1002B8004FEA03334CEA133302D0524263EB430351
:1002C80094EA050F00F0A780A4F10104D5F1200EEF
:1002D8000DDB02FA0EFC22FA05F2801841F100014A
:1002E80003FA0EF2801843FA05F359410EE0A5F11E
:1002F80020050EF1200E012A03FA0EFC28BF4CF04F
:10030800020C43FA05F3C01851EBE37101F0004504
:1003180007D54FF0000EDCF1000C7EEB00006EEB11
:100328000101B1F5801F1BD3B1F5001F0CD349089B
:100338005FEA30004FEA3C0C04F101044FEA4452F2
:1003480012F5800F80F09A80BCF1004F08BF5FEA79
:10035800500C50F1000041EB045141EA050130BD59
:100368005FEA4C0C404141EB010111F4801FA4F1FC
:100378000104E9D191F0000F04BF01460020B1FA51
:1003880081F308BF2033A3F10B03B3F120020CDA89
:100398000C3208DD02F1140CC2F10C0201FA0CF067
:1003A80021FA02F10CE002F11402D8BFC2F1200CCC
:1003B80001FA02F120FA0CFCDCBF41EA0C01904082
:1003C800E41AA2BF01EB0451294330BD6FEA0404CB
:1003D8001F3C1CDA0C340EDC04F11404C4F12002B6
:1003E80020FA04F001FA02F340EA030021FA04F3C8
:1003F80045EA030130BDC4F10C04C4F1200220FA1F
:1004080002F001FA04F340EA0300294630BD21FA5C
:1004180004F0294630BD94F0000F83F4801306BF22
:1004280081F480110134013D4EE77FEA645C18BF16
:100438007FEA655C29D094EA050F08BF90EA020FAD
:1004480005D054EA000C04BF1946104630BD91EAA5
:10045800030F1EBF0021002030BD5FEA545C05D1A8
:100468004000494128BF41F0004130BD14F58004E7
:100478003CBF01F5801130BD01F0004545F0FE415B
:1004880041F470014FF0000030BD7FEA645C1ABF90
:10049800194610467FEA655C1CBF0B46024650EAC7
:1004A800013406BF52EA033591EA030F41F40021F3
:1004B80030BD00BF90F0000F04BF0021704730B579
:1004C8004FF4806404F132044FF000054FF000014E
:1004D80050E700BF90F0000F04BF0021704730B50F
:1004E8004FF4806404F1320410F0004548BF4042E4
:1004F8004FF000013EE700BF42004FEAE2014FEA39
:1005080031014FEA02701FBF12F07F4393F07F4F13
:1005180081F06051704792F0000F14BF93F07F4F45
:10052800704730B54FF4607401F0004521F0004188
:1005380020E700BF50EA010208BF704730B54FF00E
:1005480000050AE050EA010208BF704730B511F013
:10055800004502D5404261EB41014FF4806404F14B
:1005680032045FEA915C3FF4DCAE4FF003025FEACD
:10057800DC0C18BF03325FEADC0C18BF033202EB55
:10058800DC02C2F1200300FA03FC20FA02F001FAAF
:1005980003FE40EA0E0021FA02F11444C1E600BF4E
:1005A80070B54FF0FF0C4CF4E06C1CEA11541DBF01
:1005B8001CEA135594EA0C0F95EA0C0F00F0DEF8CC
:1005C8002C4481EA030621EA4C5123EA4C5350EAB1
:1005D800013518BF52EA033541F4801143F4801302
:1005E80038D0A0FB02CE4FF00005E1FB02E506F093
:1005F8000042E0FB03E54FF00006E1FB03569CF0E8
:10060800000F18BF4EF0010EA4F1FF04B6F5007FED
:1006180064F5407404D25FEA4E0E6D4146EB06065F
:1006280042EAC62141EA55514FEAC52040EA5E50E8
:100638004FEACE2EB4F1FD0C88BFBCF5E06F1ED892
:10064800BEF1004F08BF5FEA500E50F1000041EBC9
:10065800045170BD06F0004646EA010140EA020076
:1006680081EA0301B4EB5C04C2BFD4EB0C0541EA98
:10067800045170BD41F480114FF0000E013C00F3AD
:10068800AB8014F1360FDEBF002001F0004170BDD1
:10069800C4F10004203C35DA0C341BDC04F11404EA
:1006A800C4F1200500FA05F320FA04F001FA05F276
:1006B80040EA020001F0004221F0004110EBD37043
:1006C80021FA04F642EB06015EEA430E08BF20EA6F
:1006D800D37070BDC4F10C04C4F1200500FA04F312
:1006E80020FA05F001FA04F240EA020001F00041A4
:1006F80010EBD37041F100015EEA430E08BF20EA17
:10070800D37070BDC4F1200500FA05F24EEA020E5E
:1007180020FA04F301FA05F243EA020321FA04F08D
:1007280001F0004121FA04F220EA020000EBD37044
:100738005EEA430E08BF20EAD37070BD94F0000F44
:100748000FD101F00046400041EB010111F4801F78
:1007580008BF013CF7D041EA060195F0000F18BF29
:10076800704703F00046520043EB030313F4801F65
:1007780008BF013DF7D043EA0603704794EA0C0F1F
:100788000CEA135518BF95EA0C0F0CD050EA410635
:1007980018BF52EA4306D1D181EA030101F00041B2
:1007A8004FF0000070BD50EA410606BF10461946DA
:1007B80052EA430619D094EA0C0F02D150EA0136E6
:1007C80013D195EA0C0F05D152EA03361CBF104627
:1007D80019460AD181EA030101F0004141F0FE41C6
:1007E80041F470014FF0000070BD41F0FE4141F44A
:1007F800780170BD70B54FF0FF0C4CF4E06C1CEA4A
:1008080011541DBF1CEA135594EA0C0F95EA0C0FFE
:1008180000F0A7F8A4EB050481EA030E52EA0335B9
:100828004FEA013100F088804FEA03334FF08055DA
:1008380045EA131343EA12634FEA022245EA111507
:1008480045EA10654FEA00260EF000419D4208BFB8
:10085800964244F1FD0404F5407402D25B084FEA65
:100868003202B61A65EB03055B084FEA32024FF411
:1008780080104FF4002CB6EB020E75EB030E22BF6E
:10088800B61A754640EA0C005B084FEA3202B6EB2E
:10089800020E75EB030E22BFB61A754640EA5C00DD
:1008A8005B084FEA3202B6EB020E75EB030E22BF6D
:1008B800B61A754640EA9C005B084FEA3202B6EB6E
:1008C800020E75EB030E22BFB61A754640EADC002D
:1008D80055EA060E18D04FEA051545EA16754FEA8F
:1008E80006164FEAC30343EA52734FEAC2025FEAAD
:1008F8001C1CC0D111F4801F0BD141EA00014FF03C
:1009080000004FF0004CB6E711F4801F04BF01430C
:100918000020B4F1FD0C88BFBCF5E06F3FF6AFAE28
:10092800B5EB030C04BFB6EB020C5FEA500C50F1B8
:10093800000041EB045170BD0EF0004E4EEA11313B
:1009480014EB5C04C2BFD4EB0C0541EA045170BD42
:1009580041F480114FF0000E013C90E645EA060E86
:100968008DE60CEA135594EA0C0F08BF95EA0C0FB4
:100978003FF43BAF94EA0C0F0AD150EA01347FF4FC
:1009880034AF95EA0C0F7FF425AF104619462CE7D3
:1009980095EA0C0F06D152EA03353FF4FDAE104636
:1009A800194622E750EA410618BF52EA43067FF487
:1009B800C5AE50EA41047FF40DAF52EA43057FF417
:1009C800EBAE12E74FEA410212F5001215D211D52B
:1009D8006FF47873B3EB625212D94FEAC12343F034
:1009E800004343EA505311F0004F23FA02F018BFB6
:1009F800404270474FF00000704750EA013005D17F
:100A080011F0004008BF6FF0004070474FF0000041
:100A1800704700BF4FEA4102B2F1E04324BFB3F58B
:100A2800001CDCF1FE5C0DD901F0004C4FEAC0025D
:100A38004CEA5070B2F1004F40EB830008BF20F041
:100A48000100704711F0804F21D113F13872BCBFFB
:100A580001F00040704741F480114FEA5252C2F150
:100A68001802C2F1200C10FA0CF320FA02F018BF99
:100A780040F001004FEAC1234FEAD32303FA0CFCEC
:100A880040EA0C0023FA02F34FEA4303CCE77FEA7B
:100A9800625307D150EA01331EBF4FF0FE4040F4C5
:100AA8004000704701F0004040F0FE4040F4000074
:100AB800704700BF80F0004002E000BF81F00041B5
:100AC80042001FBF5FEA410392EA030F7FEA226CEC
:100AD8007FEA236C6AD04FEA1262D2EB1363C1BF7C
:100AE800D218414048404140B8BF5B42192B88BFEB
:100AF800704710F0004F40F4000020F07F4018BF0E
:100B0800404211F0004F41F4000121F07F4118BF2D
:100B1800494292EA030F3FD0A2F1010241FA03FCD5
:100B280010EB0C00C3F1200301FA03F100F00043BD
:100B380002D5494260EB4000B0F5000F13D3B0F185
:100B4800807F06D340084FEA310102F10102FE2AF4
:100B580051D2B1F1004F40EBC25008BF20F0010064
:100B680040EA03007047490040EB000010F4000F12
:100B7800A2F10102EDD1B0FA80FCACF1080CB2EBA5
:100B88000C0200FA0CF0AABF00EBC2505242184304
:100B9800BCBFD0401843704792F0000F81F40001A9
:100BA80006BF80F400000132013BB5E74FEA41037C
:100BB8007FEA226C18BF7FEA236C21D092EA030FE8
:100BC80004D092F0000F08BF0846704790EA010F62
:100BD8001CBF0020704712F07F4F04D1400028BF8F
:100BE80040F00040704712F100723CBF00F5000071
:100BF800704700F0004343F0FE4040F400007047A7
:100C08007FEA226216BF08467FEA23630146420252
:100C180006BF5FEA412390EA010F40F48000704765
:100C28004FF0000304E000BF10F0004348BF40420B
:100C38005FEA000C08BF704743F0964301464FF047
:100C480000001CE050EA010208BF70474FF00003A3
:100C58000AE000BF50EA010208BF704711F00043E4
:100C680002D5404261EB41015FEA010C02BF8446B4
:100C78000146002043F0B64308BFA3F18053A3F513
:100C88000003BCFA8CF2083AA3EBC25310DB01FA5A
:100C980002FC634400FA02FCC2F12002BCF1004FDE
:100CA80020FA02F243EB020008BF20F0010070476F
:100CB80002F1200201FA02FCC2F1200250EA4C00C3
:100CC80021FA02F243EB020008BF20EADC70704709
:100CD8004FF0FF0C1CEAD0521EBF1CEAD15392EA17
:100CE8000C0F93EA0C0F6FD01A4480EA010C4002F3
:100CF80018BF5FEA41211ED04FF0006343EA50104D
:100D080043EA5111A0FB01310CF00040B1F5000F8E
:100D18003EBF490041EAD3715B0040EA010062F13D
:100D28007F02FD2A1DD8B3F1004F40EBC25008BF27
:100D380020F00100704790F0000F0CF0004C08BF45
:100D480049024CEA502040EA51207F3AC2BFD2F112
:100D5800FF0340EAC250704740F400004FF0000320
:100D6800013A5DDC12F1190FDCBF00F0004070475A
:100D7800C2F10002410021FA02F1C2F1200200FA98
:100D880002FC5FEA310040F1000053EA4C0308BF5F
:100D980020EADC70704792F0000F00F0004C02BFB0
:100DA800400010F4000F013AF9D040EA0C0093F02B
:100DB800000F01F0004C02BF490011F4000F013B85
:100DC800F9D041EA0C018FE70CEAD15392EA0C0FF3
:100DD80018BF93EA0C0F0AD030F0004C18BF31F05E
:100DE800004CD8D180EA010000F00040704790F034
:100DF800000F17BF90F0004F084691F0000F91F0D8
:100E0800004F14D092EA0C0F01D142020FD193EA9D
:100E18000C0F03D14B0218BF084608D180EA010025
:100E280000F0004040F0FE4040F40000704740F001
:100E3800FE4040F4400070474FF0FF0C1CEAD052CF
:100E48001EBF1CEAD15392EA0C0F93EA0C0F69D02B
:100E5800A2EB030280EA010C49024FEA402037D096
:100E68004FF0805343EA111143EA10130CF000408D
:100E78008B4238BF5B0042F17D024FF4000C8B427D
:100E880024BF5B1A40EA0C00B3EB510F24BFA3EB5D
:100E9800510340EA5C00B3EB910F24BFA3EB91032D
:100EA80040EA9C00B3EBD10F24BFA3EBD10340EA87
:100EB800DC001B0118BF5FEA1C1CE0D1FD2A3FF6CD
:100EC80050AF8B4240EBC25008BF20F00100704782
:100ED8000CF0004C4CEA50207F32C2BFD2F1FF0325
:100EE80040EAC250704740F400004FF00003013A56
:100EF80037E792F0000F00F0004C02BF400010F4FA
:100F0800000F013AF9D040EA0C0093F0000F01F00D
:100F1800004C02BF490011F4000F013BF9D041EA2F
:100F28000C0195E70CEAD15392EA0C0F08D1420262
:100F38007FF47DAF93EA0C0F7FF470AF084676E735
:100F480093EA0C0F04D14B023FF44CAF08466EE70E
:100F580030F0004C18BF31F0004CCAD130F00042DC
:100F68007FF45CAF31F000437FF43CAF5FE700BF34
:100F78004FF0FF3C06E000BF4FF0010C02E000BF5D
:100F88004FF0010C4DF804CD4FEA40024FEA4103FF
:100F98007FEA226C18BF7FEA236C11D001B052EAB5
:100FA800530C18BF90EA010F58BFB2EB030088BF7B
:100FB800C81738BF6FEAE17018BF40F001007047EA
:100FC8007FEA226C02D15FEA402C05D17FEA236CCC
:100FD800E4D15FEA412CE1D05DF8040B704700BF13
:100FE800844608466146FFE70FB5FFF7C9FF0028AA
:100FF80048BF10F1000F0FBD4DF808EDFFF7F4FFE3
:101008000CBF012000205DF808FB00BF4DF808ED7B
:10101800FFF7EAFF34BF012000205DF808FB00BF9E
:101028004DF808EDFFF7E0FF94BF012000205DF8C0
:1010380008FB00BF4DF808EDFFF7D2FF94BF012071
:1010480000205DF808FB00BF4DF808EDFFF7C8FF6A
:1010580034BF012000205DF808FB00BF4FEA4002C2
:10106800B2F1FE4F0FD34FF09E03B3EB12620DD9CE
:101078004FEA002343F0004310F0004F23FA02F038
:1010880018BF404270474FF00000704712F1610FDF
:1010980001D1420205D110F0004008BF6FF00040B6
:1010A80070474FF000007047002103E00B4B5B587E
:1010B800435004310A480B4B42189A42F6D30A4A65
:1010C80002E0002342F8043B084B9A42F9D304F0AB
:1010D8002BFD05F00FFB04F0D9FB70471C7C0008C2
:1010E80000000020CC010020CC010020A8370020FF
:1010F800FEE710B5044601F033FE4FF47A73B0FBF7
:10110800F3F000F077FB002221464FF0FF3000F0AB
:1011180031FB002010BD0000064A08B51368032003
:1011280043F01003136000F013FB0F20FFF7E1FFFB
:10113800002008BD00200240024A136801331360F2
:10114800704700BFE8010020014B1868704700BFD6
:10115800E801002013B50190FFF7F6FF0446FFF7FA
:10116800F3FF019B001B9842F9D302B010BD7047F2
:10117800436A10B59A6A12F0500F1BD19A6A42F46A
:1011880000729A621A68926802F46022B2F5602FBF
:101198000CD1DA6852B99A6A22F480729A629A6A11
:1011A800D2045EBF9A6A42F001029A621846FFF7BB
:1011B800DEFF10BD1B6ABDE810401B6B1847704767
:1011C80008B5406AFFF7FBFF08BD7047406A08B5DD
:1011D800836A43F040038362C36A43F00403C36233
:1011E800FFF7F3FF08BD0000F7B50023019390F85F
:1011F8002430012B00F0AE80012380F824304B68A6
:101208000468062B0D6818D8676B4FF4787292FA49
:10121800A2F6B6FA86F6013B92FAA2F2B2FA82F286
:101228005E4353434FF01F0E0EFA06F627EA0606F2
:1012380005FA03F33343636330E00C2B4FF4787201
:1012480016D8276B92FAA2F6B6FA86F6073B92FAF8
:10125800A2F2B2FA82F25E435A434FF01F0E0EFA20
:1012680006F627EA060605FA02F23243226315E07B
:10127800E76A92FAA2F6B6FA86F60D3B92FAA2F25D
:10128800B2FA82F25E4353434FF01F0E0EFA06F68F
:1012980027EA060605FA03F33343E362092D4FF004
:1012A80038038E6818D9D4F80CE093FAA3F7B7FA84
:1012B80087F7A5F10A0193FAA3F3B3FA83F201FBC6
:1012C80007F35143072707FA03F32EEA030306FA45
:1012D80001F21A43E26013E0276993FAA3F1B1FA25
:1012E80081F193FAA3F3B3FA83F369436B430722BB
:1012F80002FA01F127EA010106FA03F20A43226120
:10130800A5F11003012B01D900231EE0134B9C42C9
:1013180016D1A3681B02F7D4A368102D43F4000369
:10132800A360F1D10E4B0F4A1B68B3FBF2F20A23FC
:1013380053430193019B002BE6D0019B013BF8E747
:10134800836A43F0200383620123002280F824206B
:10135800184600E0022003B0F0BD00BF00240140A1
:101368001801002040420F0073B500230193036861
:1013780004469A68D20701D5002026E09A6842F010
:1013880001029A60124B134A1B68B3FBF2F30193F4
:10139800019B13B1019B013BF9E7FFF7D5FE064618
:1013A80023689B6813F00105E6D1FFF7CDFE801B8B
:1013B8000228F5D9A36A84F8245043F01003A362E5
:1013C800E36A012043F00103E36202B070BD00BF8D
:1013D8001801002040420F002DE9B8419046414BCA
:1013E800026804469A420F4602D03F498A4203D116
:1013F8005B6813F4702F6FD194F82430012B6ED0F2
:10140800012384F824302046FFF7AEFF00285ED180
:10141800A06A216820F47060334B20F0010040F48A
:1014280080709942A06204D12E4A536813F4702F39
:101438000DD1A36A23F48013A3624B685A0513D510
:10144800A36A23F4405343F48053A3620CE0A36AD5
:1014580043F48013A36253685B0541BFA06A20F47C
:10146800405040F48050A062A36A206A13F480536D
:1014780018BFE36A4FF0000518BF23F00603E362C4
:101488001A4B84F824508362194B3A46C362194BAD
:101498004C3103636FF0020341F84C3C51F8443C73
:1014A80043F4807341F8443C434600F0EAF923686A
:1014B80028469A6802F46022B2F5602F9A680CBF39
:1014C80042F4A00242F480129A60BDE8B881002379
:1014D80084F82430BDE8B8810120BDE8B881022035
:1014E800BDE8B881002401400028014079110008B6
:1014F800C9110008D511000838B5036804469A6870
:10150800D20701D4002038BD9A6822F001029A60FF
:10151800FFF71AFE054623689B68DB07F2D5FFF73D
:1015280013FE401B0228F6D9A36A012043F01003DA
:10153800A362E36A43F00103E36238BD70B5044671
:10154800002800F09580836A23B9C36280F82430AC
:1015580004F056FA2046FFF7CFFFA36A13F0100FE6
:10156800A36A40F0828000287FD194E8030023F426
:10157800885323F0020343F00203A3623D4B9842D1
:10158800E36906D1B3F5402F14BF1A464FF4002281
:1015980000E01A46E568022393FAA3F3B3FA83F34B
:1015A8000A43A16805FA03F3B1F5807F43EA020311
:1015B80005D0012914BF00224FF4807200E00A46CA
:1015C8006669012E15D165B94FF4604595FAA5F500
:1015D800B5FA85F6A56942F40062013DB5402A4393
:1015E80007E0A56A45F02005A562E56A45F0010512
:1015F800E5624568B1F5807F25F4694542EA050250
:10160800426085681C4A02EA050242EA03028260D7
:1016180001D001290AD14FF4700292FAA2F2B2FA6B
:1016280082F22169013901FA02F200E00022C16A5E
:1016380021F470010A43C2628168104A0A40934249
:1016480008D10020E062A36A23F0030343F00103FA
:10165800A36270BDA36A23F0120343F01003A362D0
:10166800E36A43F00103E36202E043F01003A3627C
:10167800012070BD003C0140FDF7E1FFFE0E1FFF99
:1016880073B50023019390F824300446012B59D0F8
:10169800012380F82430FFF72FFF054600284CD19E
:1016A800A36A022023F4885323F0020343F00203C1
:1016B800A362264B1E6801F0FBFBB6FBF0F040006E
:1016C8000190019B1BB1019B013B0193F9E7204667
:1016D800FFF74AFE2268936843F008039360FFF718
:1016E80033FD064623689A68120705D5FFF72CFDD7
:1016F800801B0A28F6D90FE09A6842F004029A6023
:10170800FFF722FD064623689B685B070FD5FFF7A6
:101718001BFD801B0A28F6D9A36A012023F01203B7
:1017280043F01003A362002384F824300BE0A36A7B
:1017380023F0030343F00103A362002384F8243059
:10174800284600E0022002B070BD00BF180100204A
:10175800074A0002D36800F4E06023F4E0631B0446
:101768001B0C43F0BF6343F400330343D36070475B
:1017780000ED00E0174B30B5DB68C3F30223C3F17B
:1017880007041D1D042C28BF0424062D4FF0010555
:1017980005FA04F404F1FF348CBF033B00230C402A
:1017A8009C4005FA03F3013B1A40002842EA040270
:1017B8004FEA0212AFBF00F16040074B00F00F0084
:1017C800D2B2A5BFD2B200F561401A5480F8002306
:1017D80030BD00BF00ED00E014ED00E04209012338
:1017E80000F01F0003FA00F0014B43F82200704795
:1017F80000E100E00138B0F1807F0AD2064B074AC9
:10180800F021586082F823100020072298601A609F
:1018180070470120704700BF10E000E000ED00E0D5
:10182800044B04281A680CBF42F0040222F0040298
:101838001A60704710E000E010B500B390F821304E
:101848000BB980F820308268416804681143C26887
:1018580023681143026923F47F531143426923F03B
:101868003003114382691143C2690A431343236059
:1018780001220023436380F82120184610BD01206F
:1018880010BD30B590F82040012C4FF0020423D051
:1018980080F821400468012580F82050256825F04B
:1018A80001052560636043680020102B0BBFA26010
:1018B800A160E160E260236843F0020323602368CB
:1018C80043F004032360236843F00803236023687C
:1018D80043F00103236030BD204630BD70B5036876
:1018E800AB4D0446AB421CD9AA4A11680832934250
:1018F8000DD0143293420CD0143293420BD01432D0
:10190800934214BF4FF400224FF4004205E008222E
:1019180003E0802201E04FF400620A4200F08B806D
:101928002BE09D4A11680832934215D01432934235
:1019380014D01432934213D01432934213D0143279
:10194800934213D01432934213D0AB4214BF4FF4D6
:1019580000224FF000620EE008220CE080220AE02C
:101968004FF4006207E04FF4004204E04FF4002215
:1019780001E04FF400020A427AD01A68120757D5DC
:101988001A68AB4222F008021A6018D9834A9342B7
:101998000DD0143293420CD0143293420BD014322F
:1019A80093420CBF4FF400434FF4002305E0082393
:1019B80003E0802301E04FF40063764A29E0784A87
:1019C800934216D01432934215D01432934214D055
:1019D8001432934214D01432934214D014329342E6
:1019E80014D0143293420CBF4FF000634FF400231D
:1019F8000EE008230CE080230AE04FF4006307E0C0
:101A08004FF4004304E04FF4002301E04FF40003D7
:101A1800614A5360636B43F001036363042384F8F2
:101A28002130002384F82030236B0BB120469847DF
:101A38002368AB421CD9574A1168083293420DD02B
:101A4800143293420CD0143293420BD01432934286
:101A580014BF4FF480224FF4804205E0042203E0D3
:101A6800402201E04FF480620A4200F036812BE008
:101A7800494A11680832934215D01432934214D05F
:101A88001432934213D01432934213D01432934237
:101A980013D01432934213D0AB4214BF4FF48022B8
:101AA8004FF080620EE004220CE040220AE04FF47E
:101AB800806207E04FF4804204E04FF4802201E0A6
:101AC8004FF480020A423AD01A68560721D51A689C
:101AD800900603D41A6822F004021A60AB427DD93A
:101AE8002E4A934273D01432934272D014329342E6
:101AF80071D01432934214BF4FF480234FF48043C3
:101B0800244A5360112384F82130E36A0BB120463C
:101B180098472368AB4213D91E4A1168083293428A
:101B280029D01432934228D01432934227D0143249
:101B3800934214BF4FF400324FF4005234E023684C
:101B4800154A11680832934215D01432934214D0C2
:101B58001432934213D01432934213D01432934266
:101B680013D0143293421DD0AB4214BF4FF400324D
:101B78004FF0007218E0022216E0202214E04FF421
:101B8800007211E04FF400520EE04FF400320BE007
:101B980080000240000402400000024008040240A5
:101BA800080002404FF400120A4214BF012200222A
:101BB800002A00F094801A68910740F190801A6812
:101BC800920636D41A6822F002021A6031E0042321
:101BD80096E7402394E74FF4806391E7404A9342A5
:101BE80016D01432934215D01432934214D01432C2
:101BF800934214D01432934214D01432934214D026
:101C08001432934214BF4FF480234FF080630EE0E8
:101C180004230CE040230AE04FF4806307E04FF40C
:101C2800804304E04FF4802301E04FF480032D4A01
:101C380067E7AB4218D92C4A93420DD0143293422D
:101C48000CD0143293420BD01432934214BF4FF489
:101C580000334FF4005305E0022303E0202301E0A2
:101C68004FF40073214A29E01D4A934216D01432DA
:101C7800934215D01432934214D01432934214D0A4
:101C88001432934214D01432934214D01432934233
:101C980014BF4FF400334FF000730EE002230CE042
:101CA80020230AE04FF4007307E04FF4005304E0E8
:101CB8004FF4003301E04FF400130A4A5360636B9A
:101CC8006363012384F82130002384F82030A36A59
:101CD8002BB12046BDE87040184723681CE770BD4B
:101CE80008000240000002400804024000040240CC
:101CF8002DE9F74F002426466A4BDFF8B0E1DFF8FC
:101D0800B0C101220D68B24032EA050540F0C28038
:101D18004D68122D2BD00ED8022D25D004D84DB3E6
:101D2800012D30D1CC682EE0032D1BD0112D2AD1E6
:101D3800CC68043427E065451CD006D8DFF87481E8
:101D4800454517D008F5803809E0DFF86C8145452E
:101D580010D008F5803845450CD0A8F580184545C1
:101D680011D107E000240EE0CC6808340BE0CC6801
:101D78000C3408E08C682CB1012C0CBF0261426164
:101D8800082400E00424FF2A97BF8346A6F108052B
:101D9800D0F80090B50084BFD0F80490AD004FF0A3
:101DA8000F0808FA05FA29EA0A0904FA05F588BFAE
:101DB80000F1040B49EA0505CBF80050D1F804906E
:101DC80019F0805F66D0384D374FAD6906F0030AC9
:101DD80045F00105BD61BD694FEA8A0A05F00105B4
:101DE8000195019D26F0030505F1804505F580352F
:101DF800D5F808B0A7F5843708FA0AF8B8422BEAEC
:101E0800080816D007F58067B84215D007F580672F
:101E1800B84214D007F58067B84213D007F5806739
:101E2800B84212D070450CBF4FF0050B4FF0060BAF
:101E38000DE04FF0000B0AE04FF0010B07E04FF008
:101E4800020B04E04FF0030B01E04FF0040B0BFA18
:101E58000AFA4AEA080AC5F808A01D6819F4803F7A
:101E680014BF154395431D605D6819F4003F14BF06
:101E7800154395435D609D6819F4801F14BF154391
:101E880095439D60DD6819F4001F14BF2A4325EAB5
:101E98000202DA600136102E7FF433AF03B0BDE8DA
:101EA800F08F00BF0004014000100240001C0140F8
:101EB80000002110000011100000311002B90904BF
:101EC80001617047C3685940C16070472DE9F0410E
:101ED800044686B000285FD090F8E93303F0FF028B
:101EE8001BB980F8E82303F0B5FE25466E460323A8
:101EF80055F8100B84F8E93301F07EF80FCD0FC6C2
:101F08002B68271D336097E80E00206801F064F8FD
:101F18000021206801F07AF800212346224608466D
:101F280004F11005012682F82810918601310F2945
:101F380082F8296082F82B009063D063106402F164
:101F48002002F0D10022114683F808229A86013235
:101F58000F2A83F8091283F80B12C3F81812C3F872
:101F68001C12C3F820124FF0000803F12003EBD134
:101F78006E460FCD0FC62B68336097E80E002068B9
:101F880001F046F8012384F82480206884F8E933B6
:101F980001F0F7FA404600E0012006B0BDE8F08104
:101FA80090F8E83310B5012B04460ED0012180F8D3
:101FB800E81303F076FF206801F0E1FA206801F0E9
:101FC80012F8002084F8E80310BD022010BD90F834
:101FD800E82310B5012A04460BD0012280F8E82333
:101FE80084F82410006801F0C4FA002084F8E8039B
:101FF80010BD022010BD38B5044648B2002801F0D3
:102008007F05B5BF04EB451104EB4111283101F5FB
:102018000271C00F0D704870CB7094F8E8330A61F4
:10202800012B09D0012384F8E833206801F004F873
:10203800002084F8E80338BD022038BD4BB2002BDD
:1020480001F07F02B5BF00EB421100EB41112831CE
:1020580001F50271DB0F10B50A704B7090F8E83388
:102068000446012B09D0012380F8E833006801F009
:1020780055F9002084F8E80310BD022010BD70B5A2
:10208800044601F07F0670012518C5F820320023A8
:10209800C5F81C22C5F8243285F8093285F808628B
:1020A80094F8E833012B0CD0012300F502702118B5
:1020B80084F8E833206801F07DFA002084F8E8030A
:1020C80070BD022070BD01F07F0100EB4110B0F837
:1020D8002402704770B5044601F07F067001251888
:1020E8002B6400236B640123EA6385F8293085F8A3
:1020F800286094F8E8239A420AD02830211884F8F6
:10210800E833206801F056FA002084F8E80370BD2F
:10211800022070BD2DE9F3410446006801F033FA4E
:10212800000416D4206801F02EFA410540F1DB8145
:1021380022682046B2F8443023F480631B041B0C49
:10214800A2F8443003F0BDFD00212046FFF73FFF11
:10215800C9E10023ADF8043004F57B77ADF806300B
:102168002068B0F844309BB2ADF804301B04D9D5D0
:10217800BDF8045015F00F0540F0B580BDF8041007
:10218800038801F0100189B259BB23F4E14323F01D
:1021980070031B041B0C0380B0F8503094F82820FF
:1021A8009BB203EBC20300EB4300D0F80434E26BAC
:1021B800C3F3090363641344E363204603F076FD25
:1021C80094F82430002BCBD0226C002AC8D194F884
:1021D8002430216843F08003A1F84C3084F824208F
:1021E800BEE79BB2ADF80630BDF806301A051ED51D
:1021F800B0F8503094F808229BB203EBC20300EB0E
:102208004303D3F80C34B4F80C22C3F30903C4F81D
:102218002432394601F09EFA22682046138823F0BA
:1022280070031B051B0D138003F032FD98E7BDF802
:1022380006301B0494D5038823F070031B051B0D7F
:102248000380B0F8503094F808229BB203EBC20325
:1022580000EB4303D3F80C34C3F30903C4F8243266
:1022680063B1B4F80C22D4F81C1201F073FAD4F854
:102278001C22D4F824321344C4F81C32002120460E
:1022880003F00CFD2268D4F81852B2F850103E2D15
:1022980089B201F1060102F580600BD9C5F34F132D
:1022A800EE0604BF03F1FF339BB26FEAC3636FEA24
:1022B800534306E0C5F34F03ED0744BF01339BB218
:1022C8009B029BB240F81130138823F4804323F01B
:1022D80070031B041B0C83F4405343F4004343F086
:1022E800800313803CE730F825309BB2ADF8063008
:1022F800BDF80630190477D530F825304FEA45186F
:1023080023F070031B051B0D20F8253004EB080192
:1023180091F81232ABB9B0F8503091F808229BB25C
:1023280003EBC20300EB4303D3F80C64C6F30906BE
:10233800DEB3B1F80C223346D1F81C1201F00AFAC8
:1023480033E091F8083230F82320DB0012F4804F94
:10235800B0F8502092B2134400EB430308D0D3F8EE
:102368000464C6F309067EB13346B1F80E2207E0CD
:10237800D3F80C64C6F3090636B13346B1F8102217
:10238800D1F81C1201F0E6F904EB080393F80812DF
:10239800226832F8213023F0F0031B051B0D43F4AB
:1023A800004343F0C00322F8213004EB0801D1F8C0
:1023B8002432D1F81C223344C1F82432D1F8203217
:1023C8003244C1F81C221BB1D1F81802864206D249
:1023D800A04498F80812204603F060FC04E091F845
:1023E80008122046FFF74BFEBDF806301A067FF5A7
:1023F800B7AE20686E0130F82530A11923F4E14307
:1024080023F070031B041B0C20F8253091F83230A0
:102418000235B3B9B0F8503091F828209BB203EBDD
:10242800C20300EB4303D3F8043404EB4515C3F3AC
:1024380009036B60002B38D08A8DC96B01F0A9F8AD
:1024480033E091F8283030F82320DB0012F0400FF9
:10245800B0F8502092B2134400EB430309D0D3F8EC
:10246800043404EB4515C3F309036B606BB1CA8DE3
:1024780008E0D3F80C3404EB4515C3F309036B608B
:102488001BB10A8EC96B01F084F8A31993F82810C0
:10249800226832F8213023F0F0031B051B0D43F4AA
:1024A800404343F0800322F821302068A119B0F896
:1024B800502091F8283092B202EBC30300EB43039B
:1024C800D3F80424CB6BC2F309024A641A440B6C98
:1024D800CA63204691F8281013B903F0E7FB3FE6DA
:1024E800FFF7F8FD3CE6206801F04DF8470408D5F1
:1024F8002268B2F8443023F480431B041B0CA2F872
:102508004430206801F03FF8860408D52268B2F804
:10251800443023F400531B041B0CA2F844302068F9
:1025280001F031F8C50418D522682046B2F84030C9
:1025380023F004031B041B0CA2F840304FF43D4366
:10254800A2F8403003F0DAFB2268B2F8443023F4F2
:1025580080531B041B0CA2F84430206801F013F8C8
:1025680000051DD52068B0F8443023F400631B042F
:102578001B0CA0F84430B0F840309BB243F008037D
:10258800A0F84030B0F840309BB243F00403A0F804
:10259800403000F0F8FFC10402D4204603F09EFB4F
:1025A800206800F0F0FF82050BD522682046B2F8BB
:1025B800443023F400731B041B0CA2F8443003F0CE
:1025C8007CFB206800F0DFFFC30508D52268B2F85D
:1025D800443023F480731B041B0CA2F8443002B06F
:1025E800BDE8F08138B54BB2002B01F07F05B5BFCF
:1025F80000EB451100EB4111283101F50271012270
:10260800DB0FEDB28A700D704B7090F8E83304461A
:1026180093420ED080F8E823006800F037FF25B910
:1026280004F57B71206800F0B2FF002084F8E8030D
:1026380038BD022038BD38B54BB2002B01F07F02FF
:10264800B5BF00EB421100EB4111283101F50271D1
:10265800DB0F00248C700A704B7090F8E833054645
:10266800012B09D0012380F8E833006800F03FFF10
:1026780085F8E843204638BD022038BD11F0800FA8
:102688001BBF01F07F0100EB411000EB4110283027
:1026980008BF00F5027012B98272838004E001223B
:1026A800C3801B0C827203810020704703682DE9E8
:1026B800F743DC07054603D42B68980773D4F2E088
:1026C800B94C636803F00C03042B07D0636803F06C
:1026D8000C03082B16D16368D90313D54FF40033C4
:1026E80093FAA3F2226893FAA3F3B3FA83F303F0FD
:1026F8001F0322FA03F3DA07DED56B68002BDBD160
:1027080001202DE26B68B3F5803F15D06BB92368C3
:102718004FF4003623F480332360236823F48023A6
:102728002360FEF711FD07462FE0B3F5A02F2368BD
:1027380006D143F480232360236843F4803305E003
:1027480023F480332360236823F480232360FEF777
:10275800FBFC07464FF4003696FAA6F3226896FA71
:10276800A6F3B3FA83F303F01F0322FA03F3DB079C
:10277800A2D4FEF7E9FCC01B6428EDD90320EFE1E1
:10278800FEF7E2FCC01B6428F8D896FAA6F3226884
:1027980096FAA6F3B3FA83F303F01F0322FA03F3BE
:1027A800D807EDD488E7804C636813F00C0F07D086
:1027B800636803F00C03082B21D16368D9031ED486
:1027C800022393FAA3F2226893FAA3F3B3FA83F3EA
:1027D80003F01F0322FA03F3DA0702D52B69012B52
:1027E8008ED12368F82292FAA2F2B2FA82F26969CB
:1027F80023F0F80301FA02F21343236053E02A6935
:1028080001237AB393FAA3F2B2FA82F2920002F1A8
:10281800844202F584021360FEF796FC07460226FE
:1028280096FAA6F36048226896FAA6F3B3FA83F3F9
:1028380003F01F0322FA03F3DB0705D4FEF784FC39
:10284800C01B0228ECD999E70368F82292FAA2F291
:10285800B2FA82F2696923F0F80301FA02F213432B
:10286800036020E093FAA3F3B3FA83F39B0003F128
:10287800844303F584031A60FEF766FC07460226C4
:1028880096FAA6F3226896FAA6F3B3FA83F303F04E
:102898001F0322FA03F3D90705D5FEF755FCC01B21
:1028A8000228EDD96AE72B681A0746D5AA693E4C73
:1028B80001233E4912B393FAA3F2B2FA82F241F825
:1028C8002230FEF741FC0746022696FAA6F396FA4E
:1028D800A6F3626A96FAA6F3B3FA83F303F01F032A
:1028E80022FA03F3DB0705D4FEF72EFCC01B0228EF
:1028F800EBD943E70120FEF72DFC1EE093FAA3F382
:10290800B3FA83F341F82320FEF71EFC074602269C
:1029180096FAA6F396FAA6F3626A96FAA6F3B3FABB
:1029280083F303F01F0322FA03F3D80705D5FEF754
:102938000BFCC01B0228EBD920E72B68590704D4ED
:10294800EA69002A40F08180D8E0174C184EE36904
:1029580043F08053E361E36903F080530193019BE3
:10296800336843F480733360FEF7EEFB0746336841
:10297800DA0505D4FEF7E8FBC01B6428F7D9FDE6A5
:10298800EB68012B1CD0ABB9236A022623F00103A4
:102998002362236A374623F004032362FEF7D4FB3D
:1029A80041F28839804648E00010024080044242E3
:1029B80000700040052B236A06D143F0040323620C
:1029C800236A43F0010305E023F001032362236A2D
:1029D80023F004032362FEF7B7FB02268146B046C4
:1029E80041F2883796FAA6F396FAA6F30BB1226A53
:1029F80000E0626A98FAA8F3B3FA83F303F01F03BE
:102A080022FA03F3DB079BD4FEF79EFBC9EB000019
:102A1800B842E7D9B2E6626A97FAA7F3B3FA83F342
:102A280003F01F0322FA03F3D80789D5FEF78CFBBE
:102A3800C8EB000048453FF6A1AE96FAA6F396FA11
:102A4800A6F3002BE7D0226AE6E7474C636803F059
:102A58000C03082B3FF454AE022A4FF080735CD16C
:102A680093FAA3F3B3FA83F39B0003F1844303F5CA
:102A7800840300221A60FEF767FB80464FF0007659
:102A880096FAA6F3384F226896FAA6F3B3FA83F3B8
:102A980003F01F0322FA03F3D90731D42E6AB6F5DF
:102AA800803F05D1796821F40030A9680143796035
:102AB80063686A6A23F474133243134363604FF004
:102AC800807393FAA3F3B3FA83F39B0003F184436F
:102AD80003F5840301221A60FEF736FB06464FF021
:102AE800007595FAA5F3226895FAA5F3B3FA83F36E
:102AF80003F01F0322FA03F3DA0708D500202FE0BA
:102B0800FEF722FBC8EB00000228B9D936E6FEF72B
:102B18001BFB801B0228E4D930E693FAA3F3B3FA2F
:102B280083F39B0003F1844303F5840300221A60B6
:102B3800FEF70AFB06464FF0007595FAA5F32268E2
:102B480095FAA5F3B3FA83F303F01F0322FA03F30C
:102B5800DB07D3D5FEF7F8FA801B0228EDD90DE67E
:102B680003B0BDE8F08300BF001002401F4B70B5F2
:102B780003F110052E4686B002AC22461868596843
:102B8800083303C2AB421446F7D13388184CADF86A
:102B98000430606800F00C03082B24D14FF4701344
:102BA80093FAA3F3B3FA83F300F4701222FA03F34F
:102BB80006AA134413F8101CC30311D562684FF416
:102BC800003393FAA3F3B3FA83F002F40033C3405B
:102BD80006AA134413F8140C064BB3FBF0F000E0FC
:102BE8000548484300E0034806B070BD3078000847
:102BF8000010024000127A0000093D00544A2DE9F5
:102C0800F0411368064603F007038B420D460AD3CA
:102C180031688C0714D54F48436823F0F002B36835
:102C2800134343600CE0136823F007030B4313605E
:102C3800136803F007039942EAD00120BDE8F08148
:102C4800C80706D4424A136803F007039D424AD3D3
:102C580053E072683F4C012A02D14FF4003304E07C
:102C6800022A0CBF4FF00073022393FAA3F12168E4
:102C780093FAA3F3B3FA83F303F01F0321FA03F3E0
:102C8800D907DAD5636841F2883823F003031A4379
:102C98006260FEF759FA73680746012B0CD1636826
:102CA80003F00C03042BCDD0FEF74EFAC01B4045B1
:102CB800F5D90320BDE8F081022B0FD1636803F03A
:102CC8000C03082BBED0FEF73FFAC01B4045F5D9D0
:102CD800EFE7FEF739FAC01B4045EAD8636813F0FE
:102CE8000C0FF6D1AEE7136823F007032B431360EC
:102CF800136803F007039D429FD13168154C11F00A
:102D0800040F05D0636823F4E062F368134363603B
:102D18000B0706D56368326923F4605343EAC2039C
:102D28006360FFF723FF6368F02292FAA2F2B2FA17
:102D380082F203F0F003D340074AD35CD840074B34
:102D480018600F20FEF7D5F90020BDE8F08100BF1C
:102D58000020024000100240AD7900081801002050
:102D6800014B1868704700BF18010020084B4FF44A
:102D780060525B6892FAA2F2B2FA82F203F46053EC
:102D8800D340044AD35C044A1068D840704700BF57
:102D980000100240BD7900081801002003682DE9E1
:102DA800F743DC07054664D53E4C3F4EE36943F0E4
:102DB8008053E361E36903F080530193019B336817
:102DC80043F480733360FEF7BFF907463368D805CC
:102DD80006D4FEF7B9F9C01B6428F7D903205DE0D3
:102DE800236A304813F4407306D1236A23F44072EF
:102DF8006B68134323623CE06A6802F440729342B2
:102E0800F3D0016A4FF4803321F4407793FAA3F2A8
:102E1800B2FA82F2254E4FF0010E46F822E093FAFC
:102E2800A3F3B3FA83F30022C90746F82320076205
:102E3800DBD5FEF789F902268046374641F2883904
:102E480096FAA6F396FAA6F30BB1226A00E0626A34
:102E580097FAA7F3B3FA83F303F01F0322FA03F3F5
:102E6800DA07C2D4FEF770F9C8EB00004845E7D985
:102E7800B4E72868830706D50A494B6823F440421B
:102E8800AB6813434B6010F0100007D005490020D1
:102E98004B6823F480026B6913434B6003B0BDE8B1
:102EA800F08300BF0010024000700040000442425E
:102EB800454BF0B503F110060246374687B002AD20
:102EC8002C4618685968083303C4B3422546F7D11D
:102ED8003B88501EADF804300F2871D8DFE800F0A9
:102EE8003D5B7038707070387070707070707008FA
:102EF800364C6168206810F0807062D04FF470130F
:102F080093FAA3F3B3FA83F301F4701222FA03F3EA
:102F180006AA1344CA0313F8103C11D561684FF48C
:102F2800003292FAA2F2B2FA82F001F40032C24000
:102F380006A90A4412F8140C254AB2FBF0F000E086
:102F48002448584363685B023BD44000032331E0C4
:102F580007B0BDE8F040FFF709BE40F202311B4A56
:102F6800136A1940B1F5817F27D003F44073B3F594
:102F7800007F05D1536A49F6404013F0020F07E07D
:102F8800B3F5407F1CD14FF22440136813F4003F7F
:102F980008BF002015E0FFF7E9FE0C4B5A684FF414
:102FA800804393FAA3F3B3FA83F102F44043CB408E
:102FB80001335B00B0FBF3F003E04FF4004000E0A6
:102FC800002007B0F0BD00BF4278000800100240A2
:102FD80000127A0000093D0084B001A880E80E00C4
:102FE80004B000207047B0F840309BB243F43D4332
:102FF800A0F8403000207047B0F8403023F47453F4
:103008005B045B0CA0F8403000207047002070473C
:1030180084B010B503AC84E80E00BDE8104001236D
:10302800A0F840300023A0F8403004B0A0F84430A5
:10303800A0F8503018467047CB7830B50A78032B83
:103048002BD8DFE803F0021F0C1530F822309BB2B2
:1030580023F4EC4323F0700343F400731BE030F8CF
:10306800223023F4EC4323F070031B041B0C12E002
:1030780030F822309BB223F4EC4323F0700343F47E
:10308800C06308E030F822309BB223F4EC4323F00D
:10309800700343F4806320F822300C7830F8243031
:1030A80044F4004223F0F0031B051B0D42F080029C
:1030B800134320F824308B7A0D78002B74D14A788A
:1030C8008B883AB3B0F850205B0892B202EBC50483
:1030D8005B0000EB4404C4F800340A7830F822306E
:1030E8005B060BD530F8223023F0F0031B051B0DCF
:1030F80043F4004343F0C00320F822300A7830F844
:10310800223023F4E04323F040031B041B0C83F01C
:103118002003FBE0B0F850405B08A4B204EBC50400
:1031280004345B0000F5806242F81430B0F8504077
:103138000B780D69A4B204EBC3043E2D04F1060418
:103148000BD9C5F34F13ED0604BF03F1FF339BB250
:103158006FEAC3636FEA534306E0C5F34F03ED0715
:1031680044BF01339BB29B029BB242F814300A78E9
:1031780030F822305C040BD530F8223023F0F0030D
:103188001B051B0D43F4404343F0800320F8223015
:103198000A7830F8223023F4804323F070031B04AC
:1031A8001B0C83F44053B1E030F8253000F58064FF
:1031B80023F4F8731B051B0D43F4014343F080030C
:1031C80020F82530B0F850300A789BB203EBC203E0
:1031D800CA885208520044F81320B0F850300A78D0
:1031E8009BB203EBC2030A8904335208520044F825
:1031F80013204B780A78002B46D130F822305B0434
:103208000BD530F8223023F0F0031B051B0D43F4D7
:10321800404343F0800320F822300A7830F8223007
:103228005D060BD530F8223023F0F0031B051B0D8B
:1032380043F4004343F0C00320F822300A7830F802
:10324800223023F0F0031B051B0D43F4004343F029
:10325800C00320F822300A7830F8223023F4804363
:1032680023F070031B041B0C83F4405343F4004306
:1032780043F0800320F822300A7830F8223023F017
:10328800C0031B051B0D41E030F822305C040BD550
:1032980030F8223023F0F0031B051B0D43F44043A4
:1032A80043F0800320F822300A7830F822305B0699
:1032B8000BD530F8223023F0F0031B051B0D43F427
:1032C800004343F0C00320F822300A7830F8223057
:1032D80023F0F0031B051B0D43F4404343F0800328
:1032E80020F822300A7830F8223023F0C0031B057A
:1032F8001B0D43F4004343F0800320F822300A7882
:1033080030F8223023F0F0039B049B0C43F4004375
:1033180043F0800320F82230002030BD10B58C7AAD
:103328004A780B781CBB82B130F8232052065BD553
:1033380030F8232022F0F0021205120D42F4004268
:1033480042F0C00220F823204EE030F82320540435
:1033580040F18D8030F8232022F0F0021205120D82
:1033680042F4404242F0800220F823207FE0002A05
:1033780042D130F8232052040BD530F8232022F014
:10338800F0021205120D42F4404242F0800220F889
:1033980023200A7830F822305C060BD530F822302A
:1033A80023F0F0031B051B0D43F4004343F0C00357
:1033B80020F822300A7830F8223023F0F0031B0579
:1033C8001B0D43F4004343F0C00320F822300A7871
:1033D80030F8223023F0F0039B049B0C43F40043A5
:1033E80043F0800320F822300A7830F8223023F0A6
:1033F800C0031B051B0D41E030F8232052040BD5F8
:1034080030F8232022F0F0021205120D42F4404257
:1034180042F0800220F823200A7830F822305B0638
:103428000BD530F8223023F0F0031B051B0D43F4B5
:10343800004343F0C00320F822300A7830F82230E5
:1034480023F0F0031B051B0D43F4404343F08003B6
:1034580020F822300A7830F8223023F0C0031B0508
:103468001B0D43F4004343F0800320F822300A7810
:1034780030F8223023F0F0039B049B0C43F4004304
:1034880043F0800320F82230002010BD0A787AB972
:1034980003889BB223F4804323F0400383F48053D2
:1034A80083F0100343F4004343F0800303801CE0DF
:1034B8004B7853B130F8223023F4E04323F0400333
:1034C8001B041B0C83F0100309E030F8223023F4AE
:1034D800804323F070031B041B0C83F4805343F4D4
:1034E800004343F0800320F82230002070474B78D7
:1034F8000A78DBB130F822305B060BD530F8223081
:1035080023F0F0031B051B0D43F4004343F0C003F5
:1035180020F822300A7830F8223023F4E04323F0F0
:1035280040031B041B0C83F030031AE030F82230F0
:103538005B040BD530F8223023F0F0031B051B0D7C
:1035480043F4404343F0800320F822300A7830F8EF
:10355800223023F4804323F070031B041B0C83F4F4
:10356800405343F4004343F0800320F82230002006
:10357800704711B98023A0F84C3000207047002014
:10358800704700207047B0F8440080B270470020B0
:103598007047013300F5806010B55B1000EB420204
:1035A8000024A34205D031F8020B22F8240001348C
:1035B800F7E710BDF8B5044648780E4601288B6930
:1035C8000A698F7A57D11D46934283BF9D1A8D6130
:1035D8001546002398BF8B61ABB27FB98A88204615
:1035E8004969FFF7D6FFB4F8503032789BB203EB45
:1035F800C20304EB4303C3F8045430E00A782046BE
:1036080034F82210D20011F0400FB4F8501089B2EB
:103618000A4404EB4202C2F80454716914BF3289A7
:10362800F288FFF7B6FF7378327853B934F822304E
:1036380023F0F0031B051B0D43F4004343F0C003C4
:103648000BE0012B0BD134F8223023F0F0031B05DB
:103658001B0D43F4404343F0800324F822303278B2
:1036680034F8223023F4E04323F040031B041B0CFE
:1036780083F0300366E093428BBF9B1A00228B6174
:103688008A6188BF1346097827B300BBB4F8502075
:103698003E2B92B202EBC10101F1020104F58060F8
:1036A8000BD9C3F34F12DD0604BF02F1FF3292B209
:1036B8006FEAC2626FEA524206E0C3F34F02DF07C5
:1036C80044BF013292B2920292B240F8112072784D
:1036D80031780ABBB4F850203E2B92B202EBC101FC
:1036E80001F1060104F580600BD9C3F34F12DD0622
:1036F80004BF02F1FF3292B26FEAC2626FEA52422D
:1037080006E0C3F34F02DB0744BF013292B29202D4
:1037180092B240F811200AE0012A08D1B4F85020EA
:1037280092B202EBC10104EB4101C1F804343278D2
:1037380034F8223023F4804323F070031B041B0C5D
:1037480083F4405343F4004343F0800324F82230C9
:103758000020F8BD013300F5806010B55B1000EB68
:1037680042020024A34205D052F8240021F8140094
:103778000134F7E710BDD0F818321BB10020C3F8A8
:103788001402704702207047D0F81C3210B5D0F8E8
:1037980018425BB194F80002FF2807D09B6894F8A0
:1037A800012221469847FF2384F80032002010BDEB
:1037B8004323038000487047000000204323038010
:1037C80000487047CC00002043230380004870471E
:1037D800880000200A230380004870477C000020EE
:1037E80038B50546D0F8184202F050FBD5F8183223
:1037F800C4F80C024BB1D5F81C3204F50371DB6830
:10380800D4F804029847002038BD022038BD0000D3
:10381800F8B50F78064617F060030C4622D0202B27
:1038280027D1CA884B78BAB13906D0F8185209D5C9
:10383800D0F81C1218468F682946B847E2882946EE
:10384800304614E085F80032E388294685F80132CD
:10385800E28800F0A7FB0CE0D0F81C028468184648
:10386800A04706E04B780A2B03D10349012200F058
:1038780084FB0020F8BD00BFEC01002010B5044611
:10388800812102F09FFA0121204602F09BFA822151
:10389800204602F097FAD4F8183253B1D4F81C3203
:1038A8005B689847D4F8180202F0FAFA0023C4F8C3
:1038B8001832002010BDF8B5037C044643B94FF414
:1038C80000730222812102F06DFA4FF4007305E0C3
:1038D80040230222812102F065FA402302220121BD
:1038E800204602F05FFA082303228221204602F0D4
:1038F80059FA4FF4077002F0CFFA0646C4F81802D6
:10390800E8B1D4F81C3200251B689847277CC6F814
:103918001452C6F818524FB94FF40073D6F804225F
:103928000121204602F0A4FA3846F8BD4023D6F813
:1039380004220121204602F09BFA2846F8BD012006
:10394800F8BD19B1C0F81C1200207047022070475A
:10395800D0F818320020C3F80812C3F810227047B4
:10396800D0F818320020C3F804127047D0F8182293
:1039780010B572B1D2F81442012364B9C2F81432F6
:103988008121B2F81032D2F8082202F063FA2046F8
:1039980010BD022010BD184610BDD0F8182210B571
:1039A80062B1047C14B94FF4007300E04023D2F8EC
:1039B8000422012102F05CFA002010BD022010BD93
:1039C80008B580B1D0F8143213B10023C0F814320E
:1039D80009B1C0F81012012380F8FC31027002F01E
:1039E80091F9002008BD022008BD19B1C0F81412D1
:1039F800002070470220704708B502F0C5F9002082
:103A080008BD08B5D0F814320BB9022008BD1B68F0
:103A180098470028F9D108BD08B5D0F814325B687A
:103A28009847002008BD38B5044600F502752846B9
:103A380000F0E2F80123C4F8F43194F80812B4F85D
:103A48000E32C4F8F83101F01F03012B0CD006D355
:103A5800022B0ED12946204600F010FA0EE0294626
:103A6800204600F0E9F809E02946204600F0EEF982
:103A780004E001F08001204602F0B2F9002038BDD0
:103A880038B50446154609BBD0F8F431032B26D1C6
:103A9800D0F80C11D0F8102191420AD98B1A9A4209
:103AA80028BF1A46C0F80C3192B2294600F089FAAC
:103AB80015E0D0F814321B6923B190F8FC21032AD1
:103AC80000D19847204600F084FA08E0D0F8143274
:103AD8009B6923B190F8FC21032A00D19847002064
:103AE80038BD70B5134604460E4600293CD1D0F8BF
:103AF800F421022A30D1C569026A954207D9AA1A67
:103B0800C261194692B200F045FA334611E0836962
:103B1800B3FBF2F502FB15358DB99A420FD8D0F8F0
:103B2800F82193420BD22A4600F034FA2B46C4F807
:103B3800F8511A461946204602F09AF90CE0D4F8D2
:103B48001432DB682BB194F8FC21032A01D12046FA
:103B58009847204600F048FA94F80032012B0CD11F
:103B6800002384F8003208E0D0F814325B6923B1EE
:103B780090F8FC21032A00D19847002070BD38B581
:103B88000446002211464025402302F00BF92B463B
:103B9800C4F8105100228021204602F003F90123C5
:103BA80084F8FC31D4F8183225622BB1D4F81432D9
:103BB80021795B6820469847002038BD01740020B1
:103BC800704790F8FC3180F8FD31042380F8FC310F
:103BD8000020704790F8FD3180F8FC3100207047D4
:103BE80008B590F8FC21032A04D1D0F81432DB6917
:103BF80003B19847002008BD0B7803704B784370D9
:103C0800CA788B7803EB022343804A790B7903EB5C
:103C180002238380CA798B7903EB0223C380704720
:103C280010B50446802102F0DBF82046BDE81040BC
:103C3800002102F0D5B8000073B54B7804460D4654
:103C4800092B00F2F980DFE813F0CB00E200F7005F
:103C5800DE00F70075000A00F700BB0091004B88F2
:103C68001A0A013A062A00F2E780DFE812F0070094
:103C78000B001700E500E5003C004700D0F81032C3
:103C88001B6817E0027CD0F814320AB99B6A00E07E
:103C9800DB6A0DF10600984702233AE0DBB2052BF8
:103CA80000F2CA80DFE803F0030B0F13171BD0F8EC
:103CB80010325B680DF10601207C98472AE0D0F8A5
:103CC80010329B68F6E7D0F81032DB68F2E7D0F8DC
:103CD80010321B69EEE7D0F810325B69EAE7D0F8DA
:103CE80010329B69E6E7037C002B40F0A580D0F8F2
:103CF80014320DF106005B6B98470BE0037C002B38
:103D080040F09A80D0F814320DF106001B6B9847EA
:103D180007234370BDF80620002A00F09180EB8845
:103D2800002B00F08D809A4228BF1A460146ADF854
:103D3800062064E08B88002B7ED1CB88002B7BD1BA
:103D480090F8FC318E78032B06F07F0674D080F84B
:103D5800FE61314602F070F8204600F03AF90EB1E3
:103D6800022300E0012384F8FC3169E08978364EAB
:103D78000129317060D890F8FC31022B02D0032B56
:103D880008D059E0002953D001210323416080F86D
:103D9800FC310FE031B9022380F8FC314160FFF7B4
:103DA8003BFE45E04168012942D0C9B2FFF734FE25
:103DB800317861602046FFF724FE022838D13BE0C5
:103DC800CA88012A38D190F8FC31022B03D0032B82
:103DD80032D1011D13E00146002341F8083F0EE0EF
:103DE80090F8FC31023B012B26D80123C360D0F8A0
:103DF80004320BB10323C360022204F10C012046F4
:103E080000F0BBF81CE04B88012B19D108E090F8B2
:103E1800FC31023B012B0FD84B88012B10D100231A
:103E2800C4F80432D4F8143229469B6820469847CF
:103E3800204600F0CEF803E029462046FFF7F0FEC2
:103E4800002002B070BD00BFED01002038B590F829
:103E5800FC310446032B0D460CD10B79012B09D8F4
:103E6800D0F814329B689847EB882BB9204600F0AD
:103E7800B0F801E0FFF7D4FE002038BD70B50A782D
:103E88008E8802F06002202A04460D46F3B204D15F
:103E9800D0F814329B68984751E04A78012A10D02C
:103EA80026D3032A4BD190F8FC21022A27D0032AD3
:103EB80043D14A8892B95E0610D0194601F090FFA6
:103EC8000CE090F8FC21022A19D0032A35D14A883F
:103ED800AABB590608D0194601F090FFD4F814324D
:103EE80029469B6820469847204600F072F826E04D
:103EF80090F8FC21022A02D0032A06D01DE05A06B7
:103F08001DD0194601F06CFF19E003F07F0516F08B
:103F1800800F00EB0515194614BF143505F5827599
:103F280001F07AFF10B101232B6000E02860022223
:103F38002946204600F021F801E0FFF771FE002035
:103F480070BD30B5C0B105462B1A15F8014BDBB270
:103F5800002CF9D15B00023313800B7003234B70E4
:103F68000138022310F8015F35B15A1CCD54D2B282
:103F78000233DBB28C54F5E730BD134610B502228C
:103F8800C0F8F42183610A46C361002101F062FF91
:103F9800002010BD08B513460A46002101F05AFF5B
:103FA800002008BD134610B50322C0F8F421C0F85C
:103FB80008310A46C0F80C31002101F059FF0020F1
:103FC80010BD08B513460A46002101F051FF002034
:103FD80008BD08B50423C0F8F43100231A46194671
:103FE80001F038FF002008BD08B50523C0F8F431FA
:103FF80000231A46194601F03BFF002008BD08B50A
:1040080001F0C4F8012803D0BDE8084000F0E8B882
:1040180008BD00F1080343604FF0FF32C36003613D
:104028000023826003607047002303617047436880
:104038009A684B608A609A68516099600368086161
:104048000133036070470A6830B5531C01D1036916
:1040580007E000F108035C682568AA4201D32346FB
:10406800F9E75A684A6091608B6059600368086193
:104078000133036030BD4168826803698A608268E1
:1040880051605968884208BF5A6000220261186866
:10409800013818607047000006480068006880F31F
:1040A800088862B661B6BFF34F8FBFF36F8F00DF2A
:1040B80000BF000008ED00E04FF0807300E90A003F
:1040C800034B40F8202C40F80C3C4038704700BFA8
:1040D80029410008074B19680868B0E8F00F80F319
:1040E8000988BFF36F8F4FF0000080F311884EF0FE
:1040F8000D0E7047E82A0020044B4FF080521A60DA
:10410800BFF34F8FBFF36F8F704700BF04ED00E020
:10411800EFF311804FF0500181F3118870470020B0
:1041280008B5054B1B68013302D0FFF7F1FFFEE726
:10413800FFF7EEFFFEE700BF1001002008B5FFF70C
:10414800E7FF094A136801331360BFF34F8FBFF3CA
:104158006F8F012B07D1054B1B6813F0FF0F02D09F
:10416800FFF7D6FFFEE708BD1001002004ED00E0D0
:1041780080F311887047000008B5074B186810B91C
:10418800FFF7C6FFFEE70138186018B9BDE8084018
:10419800FFF7EEBF08BD00BF10010020EFF3098054
:1041A800BFF36F8F0D4B1A6820E9F00F10602DE9EF
:1041B80008404FF0500080F3118800F0D5FE4FF012
:1041C800000080F31188BDE8084019680868B0E865
:1041D800F00F80F30988BFF36F8F7047E82A00203B
:1041E80008B5FFF795FF00F03BFD18B1044B4FF001
:1041F80080521A600020BDE80840FFF7B9BF00BF31
:1042080004ED00E0F0B53F4B85B01B683E4A98428C
:10421800019088BF019313683C4D23F0010313609C
:10422800019993682C68013904FB0134384E08322F
:10423800336817469C4288BFE41A72B600F08CFFB8
:10424800314B344A50B939681160196841F001019D
:1042580019602B68013B136062B650E014602E4A67
:10426800002111601A6804A842F001021A60019B3B
:1042780040F8043D01F0B2FA039B23B1BFF34F8F1E
:1042880030BFBFF36F8F01A801F0A9FA1E4A136867
:1042980023F00101116062B613F4803F1E490FD06C
:1042A8000B682A6831681344013B1B1B8B4201D3FE
:1042B8009A4200D2531E174A1360019C013C0BE03E
:1042C8002B680A68019959438A1AB2FBF3F404FB74
:1042D80003339B1A0F4A13600F4B00221A60FFF733
:1042E8002DFF094A2046136843F00103136000F0CC
:1042F800A3FC2B68074A013B1360FFF73DFF05B09D
:10430800F0BD00BF0002002010E000E0F001002036
:10431800F401002014E000E018E000E00D4B0E4925
:104328001A684FF47A73B2FBF3F30B606FF07F41B6
:10433800B1FBF3F1B2FBF2F20848013B01602D2119
:10434800B1FBF2F206490A60064A1360064B0722DF
:104358001A60704718010020F001002000020020B8
:10436800F401002014E000E010E000E013B51F4B5A
:1043780000211A78D2B20192FF221A701B781C4AC7
:10438800DBB28DF803309DF8033003F0500313704F
:10439800184B07221A609DF80300541E000608D522
:1043A8009DF8032001215200D2B28DF80320224645
:1043B800F1E701B11A601A68120202F4E0621A60A9
:1043C800019B0A4ADBB213700B4B1A6842F4700265
:1043D8001A601A6842F070421A60FFF79FFF074B95
:1043E80000221A60FFF758FEFFF79AFE00E400E08B
:1043F800F8010020FC01002020ED00E01001002061
:1044080008B5EFF305830F2B08D90A4A9B5C0A4AC3
:1044180012789A4202D9FFF77BFEFEE7074B084A5B
:104428001B68126803F4E063934202D9FFF770FE39
:10443800FEE708BDF0E300E0F80100200CED00E025
:10444800FC01002010B50F4B1A68824201D21346B6
:10445800FAE759685C18A04201BF40680918184675
:10446800596041684418A24207D1074C2468A24207
:104478001FBF54681268091941609842026018BF4A
:10448800186010BD0C020020080200202DE9F04140
:10449800044600F0C9FB3C493C4D0B680BBB3C4A49
:1044A80056071FBFD01D20F0070002F52053024613
:1044B80014BF1B1A4FF420531344364E083B23F005
:1044C8000703002070603260586018600B60981A0B
:1044D8001360314B50601860304B18604FF0004348
:1044E8002B602F68274240D1002C3FD004F10803ED
:1044F80058071CBF23F007030833002B33D0274A83
:1045080016689046B34230D8224A156868688342D4
:1045180003D809688D4206D127E02C68002CF8D012
:104528002A462546F2E7296814681160C21A102A3B
:1045380004F1080409D9E818410702D0FFF7E8FD9B
:10454800FEE742606B60FFF77DFF13496A68086801
:10455800B31A8342C8F8003038BF0B6017430023F2
:104568006F602B6002E01C4600E0002400F012FCA3
:104578000CB901F032F9630702D0FFF7C9FDFEE775
:104588002046BDE8F08100BF08020020142A002060
:10459800140200200C020020182A00200402002027
:1045A80010B5044610B3124A50F8043C126813427E
:1045B80002D1FFF7ADFDFEE750F8081C11B1FFF777
:1045C800A7FDFEE723EA020340F8043C00F02CFBB9
:1045D800084A54F8041C1368A4F108000B4413603B
:1045E800FFF730FFBDE8104000F0D4BB10BD00BF9E
:1045F800142A00200402002038B51546026C04462F
:1046080032B9056845BB406800F01AFE656024E0D1
:104618006DB9806802F0ADF8A268236C1344626833
:10462800A360934218D323682846A36015E0C068A6
:1046380002F09FF8236CE2685B4221681A448A42C0
:10464800E2603EBF62689B18E360022D04D1A36B51
:1046580013B1A36B013BA3630020A36B0133A363D6
:1046680038BD03461A6C10B4084662B1D9685C6854
:104678001144A142D96028BF196810BC28BFD9606D
:10468800D96802F076B810BC704738B50446FFF711
:1046980055FD04F12405A36C002B0BDD636A4BB1B7
:1046A800284600F0D7FC08B100F050FDA36C013B90
:1046B800A364F0E74FF0FF33A364FFF75DFDFFF756
:1046C8003DFD04F11005636C002B0BDD23694BB134
:1046D800284600F0BFFC08B100F038FD636C013BD0
:1046E8006364F0E74FF0FF336364BDE83840FFF7D9
:1046F80043BD38B50D46044610B9FFF709FDFEE77E
:10470800FFF71CFD206CE36B22684343D1181B1A8A
:1047180013446160E36000214FF0FF33A163A2609E
:104728006364A36455B9236983B104F1100000F0F0
:1047380091FC01280AD1FFF7DFFC07E004F1100023
:10474800FFF767FC04F12400FFF763FCFFF714FD93
:10475800012038BDF8B50D461746064610B9FFF7D3
:10476800D7FCFEE711B14843013000E00846543059
:10477800FFF78CFE044630B10DB9206006E000F169
:104788005403036002E0FFF7C3FCFEE7E663256419
:1047980001212046FFF7ADFF84F850702046F8BD90
:1047A8002DE9F0410E4690461D46044610B9FFF724
:1047B800AFFCFEE721B9036C13B1FFF7A9FCFEE7D4
:1047C800022D05D1E36B012B02D0FFF7A1FCFEE718
:1047D800FFF716FEFFF79CFCA26BE36B07469A42B5
:1047E80001D3022D1AD12A4631462046FFF704FF8D
:1047F800A36C01330DD1636A73B104F1240000F096
:1048080029FC48B1B8F1000F06D00124C8F80040CF
:1048180005E0A36C0133A364012400E000243846BA
:10482800FFF7A6FC2046BDE8F0812DE9F04385B0EE
:10483800884601929946044610B9FFF769FCFEE7DD
:1048480021B9036C13B1FFF763FCFEE700F09EFC8F
:1048580010B9019E0EB178E000260027FFF76EFC24
:10486800A36B3BB341462046E568FFF7FAFEB9F172
:10487800000F12D1A36B013BA363236813B900F0A7
:1048880023FD606023698BB104F1100000F0E2FBA6
:1048980001280BD1FFF730FC08E0636AE5602BB113
:1048A80004F1240000F0D6FB0028F3D1FFF764FCE4
:1048B80001204DE0019D1DB9FFF75EFC284647E049
:1048C80016B902A800F004FCFFF756FC00F0ACF99A
:1048D800FFF734FC636C013308BF6764A36C0133D2
:1048E80008BFA764FFF748FC01A902A800F000FC74
:1048F80020BBFFF723FCA56BFFF73EFCC5B9236877
:1049080033B9FFF71BFC606800F050FCFFF734FC7C
:10491800019904F1240000F06BFB2046FFF7B5FE77
:1049280000F038FA08B1012698E7FFF7E5FBFAE747
:104938002046FFF7AAFE00F02DFAF4E72046FFF71D
:10494800A4FE00F027FA002002E0FFF7E1FBFEE7F3
:1049580005B0BDE8F0830000074B1B68D86A48B96A
:10496800064B1B68012B06D8054A064B1B681068C6
:10497800181A704700207047E82A0020482A0020AB
:10498800F42A0020EC2A0020064A13681968064B0E
:1049980011B94FF0FF3203E01268D268D26852684A
:1049A8001A607047242A0020EC2A00200E4B10B50C
:1049B8001A68044650600D4A1268904207D2BDE852
:1049C80010400B4A106819680431FFF73CBB094ACC
:1049D800106819680431FFF736FB074B1A689442D0
:1049E80038BF1C6010BD00BFE82A0020F42A002050
:1049F800F82A0020242A0020EC2A00202DE9F84F6C
:104A08000A9E9A460F461546DDF82C800C9B814677
:104A180010B9FFF77DFBFEE7062E02D9FFF778FBFA
:104A2800FEE73BB99000FFF731FD8346002800F010
:104A3800AA8000E09B466420FFF728FD044688B161
:104A4800AD002A46C0F830B0A521584601F0B7FE9F
:104A5800236B043D1D4425F007057B1E04F133023A
:104A68000F3705E05846FFF79BFD8CE0BB4206D0A8
:104A780013F8011F02F8011F19780029F6D14FF029
:104A8800000B271D384684F843B0E662E664C4F894
:104A980050B0FFF7C9FA04F11800FFF7C5FAC6F1DC
:104AA8000703C4F85CB02461A3616462C4F854B01D
:104AB800C4F858B084F860B0524649462846FFF713
:104AC800FBFA2060B8F1000F01D0C8F80040FFF7EA
:104AD80035FB2F4A2F4D1368DFF8DC900133136044
:104AE8002B683BBB2C601268012A2BD1984609EB36
:104AF800080008F11408FFF78CFAB8F18C0FF6D10A
:104B0800DFF8B8A0DFF8B8805046FFF782FA4046D1
:104B1800FFF77FFA2048FFF77CFA2048FFF779FA79
:104B28001F48FFF776FA1F4BC3F800A01E4BC3F8C7
:104B3800008007E01D4B1B6823B92B68DB6A9E4287
:104B480028BF2C601A4A1B49136801331360E26AB4
:104B580063640B68012404FA02F0034314200B6019
:104B680000FB02903946FFF762FAFFF705FB0F4B8F
:104B78001B682BB12B68DB6A9E4201D9FFF7BCFA90
:104B88002046BDE8F88F4FF0FF30BDE8F88F00BF32
:104B9800142B0020E82A0020FC2A0020D42A002018
:104BA8002C2B0020242A0020F82A0020282A002064
:104BB800102B0020402B0020482A0020302A0020FB
:104BC800182B002030B5002485B00394029401947A
:104BD8000094234680220F490F48FFF70FFF012852
:104BE800054610D1FFF794FA0C4B4FF0FF321A60CC
:104BF8000B4B1D600B4B1C6000F0EAFD05B0BDE8D7
:104C08003040FFF7B3BB10B9FFF782FAFEE705B0F3
:104C180030BD00BF54780008CD4E0008EC2A0020B3
:104C2800282A0020F42A0020024A1368013313605E
:104C3800704700BFF02A002008B5074B07491A68DB
:104C4800096802448A4202D9FFF762FAFEE71A6845
:104C58001044186008BD00BFF42A0020EC2A002088
:104C6800414B2DE9F74F1B68002B3CD13F4B1A688D
:104C780001321A601D688DB93D4B1A68126812B16D
:104C8800FFF746FAFEE73B4A19681068186011609A
:104C9800394A136801331360FFF776FE374C4FF03B
:104CA800000B236801949D42354E364F0BD3DFF835
:104CB800C080DFF8DC90D8F800201268E2B9019BC8
:104CC8004FF0FF321A603A68D16A14224A43B25848
:104CD800022A2D4A28BF4FF0010B1268002A39D149
:104CE80000F07AFD36E0284A4FF0000B13680133D4
:104CF800136000F071FD2DE0D8F80020D268D46868
:104D080061688D4202D2019B1960DCE704F1040A54
:104D18005046FFF7B0F9A16A19B104F11800FFF77E
:104D2800AAF9E06AD9F80010012303FA00FE4EEA56
:104D380001014FF0140EC9F800100EFB0060514637
:104D4800FFF775F93868E16AC26A914228BF4FF0E7
:104D5800010BB0E70D4A1268002A18BF4FF0010B8B
:104D6800584603B0BDE8F08FF02A0020F42A00204E
:104D7800242A0020F82A0020202A0020EC2A0020DB
:104D8800482A0020E82A0020442A0020442B00203A
:104D9800402B00202DE9F8432A4C236813B9FFF76C
:104DA800B7F9FEE7FFF7CAF92368013B23602368D8
:104DB8000BB1002441E0244B1B68002BF9D0234D94
:104DC800234EDFF89C802B6803B3EB680127DC686F
:104DD80004F1040904F11800FFF74DF94846FFF7FC
:104DE8004AF9E26A336807FA02F114200B4300FB20
:104DF800028049463360FFF71AF9164BE26A1B68CE
:104E0800DB6A9A42DFD3144B1F60DAE7134C23683E
:104E180033B9114B1C68012CCBD1FFF76DF90CE0AD
:104E28000D4D01262368002BF3D0FFF719FF00B1C1
:104E38002E602368013B2360F4E7FFF79DF92046C5
:104E4800BDE8F883F02A0020142B0020FC2A00205B
:104E5800402B0020E82A0020442B0020442A002070
:104E6800482A002038B518B9BDE83840FFF744B9DA
:104E7800104B1B6813B1FFF74BF9FEE7FFF7D4FEA1
:104E88000D4B0E4D1B68C41828680430FFF7F3F863
:104E980040B92B680A49D86A0A680123834022EA84
:104EA80003030B602046FFF781FDFFF773FF00281F
:104EB800DAD038BDF02A0020F42A0020E82A0020A1
:104EC800402B0020F8B5224D2E46224F2B68F3B117
:104ED800FFF7AAFE3C68FFF75DFF002CF6D0FFF74E
:104EE8002DF91C4BDB68DC68201DFFF7C4F81A4A53
:104EF8001368013B13603368013B3360FFF73CF9EB
:104F0800206BFFF74DFB2046FFF74AFBDEE7134B0C
:104F18001B68012B01D9FFF7EFF800F05CFCFFF7E5
:104F28001BFD0128D1D9FFF77FFE0D4B1A680D4BE9
:104F38001B689A4202D2FFF7EBF8FEE7FFF70CFD79
:104F4800012801D9FFF75EF9FFF724FFBDE700BF8D
:104F58002C2A0020D42A0020142B0020482A0020C4
:104F6800EC2A0020F42A00201B4B10B51A681B4BB2
:104F78000AB101222DE01A6000F02BFC184A1468CF
:104F8800A04205D9174B19688B6D1B1B03448B6511
:104F9800154B10601B68B3FA83F3DBB2C3F11F0330
:104FA80014225A4311498C58881814B9FFF7B0F8DD
:104FB800FEE74468083264680A44944208BF62689D
:104FC800446008BF4260142202FB03135B68DA687E
:104FD800044B1A6010BD00BFF02A0020442B0020AB
:104FE8001C2A0020E82A0020402B0020482A002004
:104FF80038B50D4610B9FFF78BF8FEE7114C21685C
:105008001831FFF720F820680430FFF734F840B96A
:1050180023680D49D86A0A680123834022EA0303FA
:105028000B606B1C06D1216808480431BDE8384084
:10503800FEF7FDBF064B18682844BDE83840FFF767
:10504800B5BC00BFE82A0020402B00202C2B0020F4
:10505800F42A0020C36870B5DC6814B9FFF758F863
:10506800FEE704F118052846FFF705F8124B1B6800
:1050780083B9261D3046FEF7FEFF1049E56A0A6827
:105088000123AB4013430B600D4B1420314600FB4A
:10509800053001E029460B48FEF7C9FF0A4BE26AD2
:1050A8001B68DB6A9A4285BF084B01200020186004
:1050B800FFF76AFC70BD00BFF02A0020402B0020DB
:1050C800482A0020FC2A0020E82A0020442B00203F
:1050D80008B510B9FFF71CF8FEE7034B1B6803601F
:1050E800024B1B68436008BD202A0020F42A0020D8
:1050F80038B50D46044610B9FFF70AF8FEE711B9AE
:10510800FFF706F8FEE7FFF719F80E4B19682B684A
:105118005A1C10D00C4A206812689042626801D06C
:1051280091420AD2881A834207D9521A13442B6033
:105138002046FFF7CDFF002400E00124FFF71CF80C
:10514800204638BDF42A0020202A0020014B0122E5
:105158001A607047442B0020084B186860B9084B48
:105168001B6853B9074B1868074B01381B68834203
:1051780014BF01200220704700207047FC2A00203D
:10518800442B0020142B00202C2B0020054B1B68DF
:1051980033B1054B1B68002B0CBF02200020704761
:1051A80001207047282A0020F02A00202DE9F0412C
:1051B800044600283BD01F4DC36A2A68D26A93422E
:1051C80035D282691C4E002AA8BF2A684FF01407FE
:1051D800A8BFD26A07FB0363A4BFC2F107028261BA
:1051E80042699A4220D100F104084046FEF743FF85
:1051F800124B48B9E06A4743F2592AB919680122A3
:10520800824021EA02021A602A680120D26A4146D5
:10521800E2621C68904020431860142000FB026082
:10522800BDE8F041FEF703BF2B68DB6AC362BDE847
:10523800F08100BFE82A0020482A0020402B0020E7
:10524800F8B5044608B90020F8BD1C4B1B68984205
:1052580002D0FEF75DFFFEE7036D13B9FEF758FFB6
:10526800FEE7C16AC26C013B91420365EBD0002B9B
:10527800E9D1051D2846FEF7FEFE114E114A50B928
:10528800E76A1421794373582BB910680123BB408E
:1052980020EA03031360E36C1068C3F10701E362BB
:1052A800A161012404FA03F108431060142000FBF3
:1052B80003602946FEF7BBFE2046F8BDE82A002019
:1052C800482A0020402B0020044B1A681AB119689C
:1052D8000A6D01320A651868704700BFE82A002085
:1052E8007FB5214C214B042523604FF480734FF484
:1052F80060220126A36020460023E261E660636124
:1053080063602561FCF71AF9092302960DEB050184
:105318000526204601930396FBF766FF02230DEB53
:105328000501204602930196FBF75EFF06230193D1
:105338000DEB0501032320460293FBF755FF1023CD
:105348000DEB0501204601930295FBF74DFF06483A
:10535800FCF796F90028FAD1042205490248FCF71F
:105368003BF804B070BD00BF842D0020002401402C
:10537800482B0020024B33F8100080B2704700BF62
:10538800482B0020BFF34F8F0549064BCA6802F42B
:10539800E0621343CB60BFF34F8F00BFFDE700BF50
:1053A80000ED00E00400FA052DE9F843124C002551
:1053B8000128256007D0114B03262360104B63603A
:1053C800104BA36012E02E46D1F80080DFF8389029
:1053D80059F835704146384601F0BCFA0135874224
:1053E80004BF44F826700136032DF1D1002344F898
:1053F80026300148BDE8F883C02E002059780008FF
:105408005E78000864780008C078000810B5094C78
:10541800094801F04FFA0949204601F0D9F908492D
:10542800204601F0D5F92046BDE81040054901F0B5
:10543800CFB900BF827800086B7800085978000857
:105448005E7800086478000810B50446FAF7E8FEAC
:1054580081B2204600F0E8FBBDE810400120FFF7CC
:1054680001BD000008B5002201211020FFF772F9E4
:10547800014B186008BD00BF502B002010B5094C27
:105488000949206800F00EFF2068084900F039FF3C
:105498002068074900F032FF20680649BDE810403F
:1054A80000F032BF140100205154000805550008CF
:1054B800B15300088D530008094B07B5186860B14F
:1054C80000230DF107014FF0FF32FFF7AEF9054B4E
:1054D8009DF80710186800F099FF03B05DF804FB09
:1054E800502B00201401002008B5FFF7ADFFBDE8E0
:1054F80008400148FFF7A8BF807800082DE9F0416F
:1055080007460E46DFF83480002458F83410306817
:10551800E50001F0D7F938B9084B1D446B684BB169
:1055280031463846984705E00134032CEDD104484C
:10553800FFF7DAFF0020BDE8F08100BFC07800085F
:10554800877800080FB407B504A951F8040B019136
:1055580001F056FA03B05DF804EB04B070470000A0
:1055680073B5002301930C4B1A681D4632B9019B91
:1055780083B10A4B4FF080521A600BE0044646187C
:10558800B442F4D02146002301AA2868FFF708F99D
:105598000134F5E702B070BD502B002004ED00E0A7
:1055A80030B5002387B00C460021054603930493C9
:1055B8000593FBF749FD294918B12846FBF780FAFE
:1055C80002E02846FBF77AFA2549FBF781FBFBF74F
:1055D80045FD054680EAE0700A226946A0EBE570C1
:1055E80001F0C5F8002DACBF20232D2368468DF8A7
:1055F8000C30FAF715FE012807D130238DF80D304D
:105608008DF80E308DF80F300CE0022805D13023CC
:105618008DF80D308DF80E3004E0032804BF3023D8
:105628008DF80D30694603A801F06AF903A8FAF766
:10563800F7FD0338C5B22A4603A9204601F077F9D9
:10564800002363550749204601F05AF903AB59195D
:10565800204601F055F9204607B030BD6F12033AD5
:1056680000007A44D878000800B5454B89B019681D
:10567800444B4548B1FBF3F1FFF764FF434B444803
:10568800198889B2FFF75EFF424B434819685A6888
:1056980008331B68FFF756FF0020FFF76BFEFBF788
:1056A800BFFAFAF729FF32A3D3E90023FAF778FF04
:1056B80031A3D3E90023FBF79DF80022374BFAF713
:1056C8006FFFFBF7A7F96946FFF76AFF6946344899
:1056D800FFF738FF0120FFF74DFEFBF7A1FAFAF7B5
:1056E8000BFF23A3D3E90023FAF75AFF22A3D3E938
:1056F8000023FBF77FF80022284BFAF751FFFBF74E
:1057080089F96946FFF74CFF69462648FFF71AFFF3
:105718000220FFF72FFEFBF783FAFAF7EDFE14A33A
:10572800D3E90023FAF73CFF13A3D3E90023FBF7DF
:1057380061F802460B46FAF781FDFBF76BF96946FB
:10574800FFF72EFF69461848FFF7FCFE00F014F932
:10575800FBF76AFA1549FBF76FFB6946FFF720FF6D
:1057680069461348FFF7EEFE09B05DF804FB00BF79
:1057780046B6F3FDD4780A400000000000FEAF40B2
:105788001801002040420F00DA780008E0F7FF1FF8
:10579800F4780008E8F7FF1F0D79000800001840AA
:1057A8003079000848790008607900080000204135
:1057B8007879000808B50448FFF7C4FEBDE808403A
:1057C8000248FFF7BFBE00BF947900089B79000824
:1057D80070470020704770477047704770477047A0
:1057E80008B5FFF74BFEFFF767FEFCE708B5054C69
:1057F8002068FFF737FB4FF400510348FCF762FBC2
:10580800F6E700BFD42E00200010014030B54FF459
:10581800803397B001220D930021022414930CA821
:105828004FF4E0130C920E91109213941593FCF719
:105838003DFF00B1FEE70F2503904FF4806305900C
:10584800214601A8019502940493FDF7D7F900B108
:10585800FEE710230B9006A80693FDF79FFA04466F
:1058680000B1FEE7FDF77CFA4FF47A73B0FBF3F072
:10587800FBF7C0FF0420FBF7D3FF224629464FF071
:10588800FF30FBF777FF17B030BD000000B58DB0D3
:10589800304CFBF741FC304B64221A60FFF7B6FF2F
:1058A800A369002243F01003A361A3694FF4C04128
:1058B80003F010030593059BA369284843F02003D0
:1058C800A361A369012603F020030693069BA3693D
:1058D800022543F00403A361A36903F004030793BB
:1058E800079BFCF7EBFA4FF4C04308A91B48089341
:1058F80009960B95FCF7FCF9636900223343636151
:1059080063690521334008930B200024089BFBF7AB
:1059180031FF0B20FBF762FFFFF7E2FC00F02AF9EA
:10592800FFF7A0FD2346C8220D4903940294019471
:1059380000960C48FFF762F823464FF4FA720A49BA
:1059480003940294019400950848FFF757F8FFF76D
:1059580039F9FEE700100240D42E00200010014063
:10596800A1790008F5570008A5790008E95700084B
:10597800FEE700000000000008B50320FFF7FAFC6E
:10598800FAF7A8FD14A3D3E90023FAF709FE14A334
:10599800D3E90023FAF72EFFFBF73CF80146144839
:1059A800FBF78CF8FAF7A8FD0022124BFAF7F8FD7E
:1059B8000DA3D3E90023FAF71DFF00220E4BFAF7D7
:1059C8003DFC00220D4BFAF7EBFDFAF7FBFF00B2A6
:1059D80008BD00BFAFF300806666666666660A406B
:1059E8000000000000FEAF400000004033331140CB
:1059F8003D0AB73F00408F40000039400000244076
:105A080030B502681D4B87B09A42054634D103F57C
:105A18006C439A69032442F400729A619B6902A953
:105A280003F400730193019B1548602302930394C8
:105A3800FCF75EF90223134802A902930394FCF7CA
:105A480057F9114C114B2046236000236360A36073
:105A58008023E3604FF4807323614FF480636361B4
:105A68002023A3614FF40053E361FBF7E5FE08B17F
:105A7800FFF77EFF2C62656207B030BD002401404D
:105A880000080140000C0140B42D0020080002402D
:105A98007047FEE7FEE7FEE7FEE7704708B5FBF74D
:105AA8004BFBBDE80840FEF7AABA00000148FBF727
:105AB80015BF00BFB42D00200148FCF72BBB00BF69
:105AC80084310020044B0246196809B9034919605A
