:020000040800F2
:1000000000000120C5100008495B00084B5B000898
:100010004D5B00084F5B0008515B000800000000CA
:10002000000000000000000000000000794000080F
:10003000535B00080000000041410008555B0008C8
:100040000D1100080D1100080D1100080D11000818
:100050000D1100080D1100080D1100080D11000808
:100060000D1100080D1100080D110008655B000856
:100070000D1100080D1100080D1100080D110008E8
:100080000D1100080D1100080D1100080D110008D8
:10009000715B00080D1100080D1100080D1100081A
:1000A0000D1100080D1100080D1100080D110008B8
:1000B0000D1100080D1100080D1100080D110008A8
:1000C0000D1100080D1100080D1100080D11000898
:1000D0000D1100080D1100080D1100080D11000888
:1000E0000D1100080D1100080D1100080D11000878
:1000F0000D1100080D1100080D1100080D11000868
:100100000D1100080D1100080D1100080D11000857
:100110000D1100080D1100080D1100080D11000847
:100120000D1100080D1100080D1100080D11000837
:1001300000000000000000000000000000000000BF
:1001400000000000000000000000000000000000AF
:10015000000000000000000000000000000000009F
:10016000000000000000000000000000000000008F
:10017000000000000000000000000000000000007F
:10018000000000000000000000000000000000006F
:10019000000000000000000000000000000000005F
:1001A000000000000000000000000000000000004F
:1001B000000000000000000000000000000000003F
:1001C000000000000000000000000000000000002F
:1001D000000000000000000000000000000000001F
:0401E0005FF8E0F1F3
:1001E80010B5054C237833B9044B13B10448AFF369
:1001F80000800123237010BD5C0100200000000076
:10020800F464000808B5034B1BB103490348AFF376
:10021800008008BD0000000060010020F4640008B0
:1002280081F0004102E000BF83F0004330B54FEA9F
:1002380041044FEA430594EA050F08BF90EA020F0C
:100248001FBF54EA000C55EA020C7FEA645C7FEA9F
:10025800655C00F0E2804FEA5454D4EB5555B8BFC2
:100268006D420CDD2C4480EA020281EA030382EA33
:10027800000083EA010180EA020281EA0303362DC5
:1002880088BF30BD11F0004F4FEA01314FF4801C98
:100298004CEA113102D0404261EB410113F0004FAA
:1002A8004FEA03334CEA133302D0524263EB430361
:1002B80094EA050F00F0A780A4F10104D5F1200EFF
:1002C8000DDB02FA0EFC22FA05F2801841F100015A
:1002D80003FA0EF2801843FA05F359410EE0A5F12E
:1002E80020050EF1200E012A03FA0EFC28BF4CF05F
:1002F800020C43FA05F3C01851EBE37101F0004515
:1003080007D54FF0000EDCF1000C7EEB00006EEB21
:100318000101B1F5801F1BD3B1F5001F0CD34908AB
:100328005FEA30004FEA3C0C04F101044FEA445202
:1003380012F5800F80F09A80BCF1004F08BF5FEA89
:10034800500C50F1000041EB045141EA050130BD69
:100358005FEA4C0C404141EB010111F4801FA4F10C
:100368000104E9D191F0000F04BF01460020B1FA61
:1003780081F308BF2033A3F10B03B3F120020CDA99
:100388000C3208DD02F1140CC2F10C0201FA0CF077
:1003980021FA02F10CE002F11402D8BFC2F1200CDC
:1003A80001FA02F120FA0CFCDCBF41EA0C01904092
:1003B800E41AA2BF01EB0451294330BD6FEA0404DB
:1003C8001F3C1CDA0C340EDC04F11404C4F12002C6
:1003D80020FA04F001FA02F340EA030021FA04F3D8
:1003E80045EA030130BDC4F10C04C4F1200220FA2F
:1003F80002F001FA04F340EA0300294630BD21FA6D
:1004080004F0294630BD94F0000F83F4801306BF32
:1004180081F480110134013D4EE77FEA645C18BF26
:100428007FEA655C29D094EA050F08BF90EA020FBD
:1004380005D054EA000C04BF1946104630BD91EAB5
:10044800030F1EBF0021002030BD5FEA545C05D1B8
:100458004000494128BF41F0004130BD14F58004F7
:100468003CBF01F5801130BD01F0004545F0FE416B
:1004780041F470014FF0000030BD7FEA645C1ABFA0
:10048800194610467FEA655C1CBF0B46024650EAD7
:10049800013406BF52EA033591EA030F41F4002103
:1004A80030BD00BF90F0000F04BF0021704730B589
:1004B8004FF4806404F132044FF000054FF000015E
:1004C80050E700BF90F0000F04BF0021704730B51F
:1004D8004FF4806404F1320410F0004548BF4042F4
:1004E8004FF000013EE700BF42004FEAE2014FEA49
:1004F80031014FEA02701FBF12F07F4393F07F4F24
:1005080081F06051704792F0000F14BF93F07F4F55
:10051800704730B54FF4607401F0004521F0004198
:1005280020E700BF50EA010208BF704730B54FF01E
:1005380000050AE050EA010208BF704730B511F023
:10054800004502D5404261EB41014FF4806404F15B
:1005580032045FEA915C3FF4DCAE4FF003025FEADD
:10056800DC0C18BF03325FEADC0C18BF033202EB65
:10057800DC02C2F1200300FA03FC20FA02F001FABF
:1005880003FE40EA0E0021FA02F11444C1E600BF5E
:1005980070B54FF0FF0C4CF4E06C1CEA11541DBF11
:1005A8001CEA135594EA0C0F95EA0C0F00F0DEF8DC
:1005B8002C4481EA030621EA4C5123EA4C5350EAC1
:1005C800013518BF52EA033541F4801143F4801312
:1005D80038D0A0FB02CE4FF00005E1FB02E506F0A3
:1005E8000042E0FB03E54FF00006E1FB03569CF0F8
:1005F800000F18BF4EF0010EA4F1FF04B6F5007FFE
:1006080064F5407404D25FEA4E0E6D4146EB06066F
:1006180042EAC62141EA55514FEAC52040EA5E50F8
:100628004FEACE2EB4F1FD0C88BFBCF5E06F1ED8A2
:10063800BEF1004F08BF5FEA500E50F1000041EBD9
:10064800045170BD06F0004646EA010140EA020086
:1006580081EA0301B4EB5C04C2BFD4EB0C0541EAA8
:10066800045170BD41F480114FF0000E013C00F3BD
:10067800AB8014F1360FDEBF002001F0004170BDE1
:10068800C4F10004203C35DA0C341BDC04F11404FA
:10069800C4F1200500FA05F320FA04F001FA05F286
:1006A80040EA020001F0004221F0004110EBD37053
:1006B80021FA04F642EB06015EEA430E08BF20EA7F
:1006C800D37070BDC4F10C04C4F1200500FA04F322
:1006D80020FA05F001FA04F240EA020001F00041B4
:1006E80010EBD37041F100015EEA430E08BF20EA27
:1006F800D37070BDC4F1200500FA05F24EEA020E6F
:1007080020FA04F301FA05F243EA020321FA04F09D
:1007180001F0004121FA04F220EA020000EBD37054
:100728005EEA430E08BF20EAD37070BD94F0000F54
:100738000FD101F00046400041EB010111F4801F88
:1007480008BF013CF7D041EA060195F0000F18BF39
:10075800704703F00046520043EB030313F4801F75
:1007680008BF013DF7D043EA0603704794EA0C0F2F
:100778000CEA135518BF95EA0C0F0CD050EA410645
:1007880018BF52EA4306D1D181EA030101F00041C2
:100798004FF0000070BD50EA410606BF10461946EA
:1007A80052EA430619D094EA0C0F02D150EA0136F6
:1007B80013D195EA0C0F05D152EA03361CBF104637
:1007C80019460AD181EA030101F0004141F0FE41D6
:1007D80041F470014FF0000070BD41F0FE4141F45A
:1007E800780170BD70B54FF0FF0C4CF4E06C1CEA5A
:1007F80011541DBF1CEA135594EA0C0F95EA0C0F0F
:1008080000F0A7F8A4EB050481EA030E52EA0335C9
:100818004FEA013100F088804FEA03334FF08055EA
:1008280045EA131343EA12634FEA022245EA111517
:1008380045EA10654FEA00260EF000419D4208BFC8
:10084800964244F1FD0404F5407402D25B084FEA75
:100858003202B61A65EB03055B084FEA32024FF421
:1008680080104FF4002CB6EB020E75EB030E22BF7E
:10087800B61A754640EA0C005B084FEA3202B6EB3E
:10088800020E75EB030E22BFB61A754640EA5C00ED
:100898005B084FEA3202B6EB020E75EB030E22BF7D
:1008A800B61A754640EA9C005B084FEA3202B6EB7E
:1008B800020E75EB030E22BFB61A754640EADC003D
:1008C80055EA060E18D04FEA051545EA16754FEA9F
:1008D80006164FEAC30343EA52734FEAC2025FEABD
:1008E8001C1CC0D111F4801F0BD141EA00014FF04C
:1008F80000004FF0004CB6E711F4801F04BF01431D
:100908000020B4F1FD0C88BFBCF5E06F3FF6AFAE38
:10091800B5EB030C04BFB6EB020C5FEA500C50F1C8
:10092800000041EB045170BD0EF0004E4EEA11314B
:1009380014EB5C04C2BFD4EB0C0541EA045170BD52
:1009480041F480114FF0000E013C90E645EA060E96
:100958008DE60CEA135594EA0C0F08BF95EA0C0FC4
:100968003FF43BAF94EA0C0F0AD150EA01347FF40C
:1009780034AF95EA0C0F7FF425AF104619462CE7E3
:1009880095EA0C0F06D152EA03353FF4FDAE104646
:10099800194622E750EA410618BF52EA43067FF497
:1009A800C5AE50EA41047FF40DAF52EA43057FF427
:1009B800EBAE12E74FF0FF3C06E000BF4FF0010C32
:1009C80002E000BF4FF0010C4DF804CD4FEA410C96
:1009D8007FEA6C5C4FEA430C18BF7FEA6C5C1BD063
:1009E80001B050EA410C0CBF52EA430C91EA030FE4
:1009F80002BF90EA020F0020704710F1000F91EA41
:100A0800030F58BF994208BF90422CBFD8176FEA0E
:100A1800E37040F0010070474FEA410C7FEA6C5CDC
:100A280002D150EA013C07D14FEA430C7FEA6C5CE3
:100A3800D6D152EA033CD3D05DF8040B704700BF0F
:100A48008446104662468C461946634600E000BF5D
:100A580001B5FFF7B7FF002848BF10F1000F01BD2F
:100A68004DF808EDFFF7F4FF0CBF012000205DF8FA
:100A780008FB00BF4DF808EDFFF7EAFF34BF01207F
:100A880000205DF808FB00BF4DF808EDFFF7E0FF18
:100A980094BF012000205DF808FB00BF4DF808ED69
:100AA800FFF7CEFF94BF012000205DF808FB00BFD0
:100AB8004DF808EDFFF7C4FF34BF012000205DF8B2
:100AC80008FB00BF4FEA410212F5001215D211D5FA
:100AD8006FF47873B3EB625212D94FEAC12343F033
:100AE800004343EA505311F0004F23FA02F018BFB5
:100AF800404270474FF00000704750EA013005D17E
:100B080011F0004008BF6FF0004070474FF0000040
:100B1800704700BF4FEA4102B2F1E04324BFB3F58A
:100B2800001CDCF1FE5C0DD901F0004C4FEAC0025C
:100B38004CEA5070B2F1004F40EB830008BF20F040
:100B48000100704711F0804F21D113F13872BCBFFA
:100B580001F00040704741F480114FEA5252C2F14F
:100B68001802C2F1200C10FA0CF320FA02F018BF98
:100B780040F001004FEAC1234FEAD32303FA0CFCEB
:100B880040EA0C0023FA02F34FEA4303CCE77FEA7A
:100B9800625307D150EA01331EBF4FF0FE4040F4C4
:100BA8004000704701F0004040F0FE4040F4000073
:100BB800704700BF80F0004002E000BF81F00041B4
:100BC80042001FBF5FEA410392EA030F7FEA226CEB
:100BD8007FEA236C6AD04FEA1262D2EB1363C1BF7B
:100BE800D218414048404140B8BF5B42192B88BFEA
:100BF800704710F0004F40F4000020F07F4018BF0D
:100C0800404211F0004F41F4000121F07F4118BF2C
:100C1800494292EA030F3FD0A2F1010241FA03FCD4
:100C280010EB0C00C3F1200301FA03F100F00043BC
:100C380002D5494260EB4000B0F5000F13D3B0F184
:100C4800807F06D340084FEA310102F10102FE2AF3
:100C580051D2B1F1004F40EBC25008BF20F0010063
:100C680040EA03007047490040EB000010F4000F11
:100C7800A2F10102EDD1B0FA80FCACF1080CB2EBA4
:100C88000C0200FA0CF0AABF00EBC2505242184303
:100C9800BCBFD0401843704792F0000F81F40001A8
:100CA80006BF80F400000132013BB5E74FEA41037B
:100CB8007FEA226C18BF7FEA236C21D092EA030FE7
:100CC80004D092F0000F08BF0846704790EA010F61
:100CD8001CBF0020704712F07F4F04D1400028BF8E
:100CE80040F00040704712F100723CBF00F5000070
:100CF800704700F0004343F0FE4040F400007047A6
:100D08007FEA226216BF08467FEA23630146420251
:100D180006BF5FEA412390EA010F40F48000704764
:100D28004FF0000304E000BF10F0004348BF40420A
:100D38005FEA000C08BF704743F0964301464FF046
:100D480000001CE050EA010208BF70474FF00003A2
:100D58000AE000BF50EA010208BF704711F00043E3
:100D680002D5404261EB41015FEA010C02BF8446B3
:100D78000146002043F0B64308BFA3F18053A3F512
:100D88000003BCFA8CF2083AA3EBC25310DB01FA59
:100D980002FC634400FA02FCC2F12002BCF1004FDD
:100DA80020FA02F243EB020008BF20F0010070476E
:100DB80002F1200201FA02FCC2F1200250EA4C00C2
:100DC80021FA02F243EB020008BF20EADC70704708
:100DD8004FF0FF0C1CEAD0521EBF1CEAD15392EA16
:100DE8000C0F93EA0C0F6FD01A4480EA010C4002F2
:100DF80018BF5FEA41211ED04FF0006343EA50104C
:100E080043EA5111A0FB01310CF00040B1F5000F8D
:100E18003EBF490041EAD3715B0040EA010062F13C
:100E28007F02FD2A1DD8B3F1004F40EBC25008BF26
:100E380020F00100704790F0000F0CF0004C08BF44
:100E480049024CEA502040EA51207F3AC2BFD2F111
:100E5800FF0340EAC250704740F400004FF000031F
:100E6800013A5DDC12F1190FDCBF00F00040704759
:100E7800C2F10002410021FA02F1C2F1200200FA97
:100E880002FC5FEA310040F1000053EA4C0308BF5E
:100E980020EADC70704792F0000F00F0004C02BFAF
:100EA800400010F4000F013AF9D040EA0C0093F02A
:100EB800000F01F0004C02BF490011F4000F013B84
:100EC800F9D041EA0C018FE70CEAD15392EA0C0FF2
:100ED80018BF93EA0C0F0AD030F0004C18BF31F05D
:100EE800004CD8D180EA010000F00040704790F033
:100EF800000F17BF90F0004F084691F0000F91F0D7
:100F0800004F14D092EA0C0F01D142020FD193EA9C
:100F18000C0F03D14B0218BF084608D180EA010024
:100F280000F0004040F0FE4040F40000704740F000
:100F3800FE4040F4400070474FF0FF0C1CEAD052CE
:100F48001EBF1CEAD15392EA0C0F93EA0C0F69D02A
:100F5800A2EB030280EA010C49024FEA402037D095
:100F68004FF0805343EA111143EA10130CF000408C
:100F78008B4238BF5B0042F17D024FF4000C8B427C
:100F880024BF5B1A40EA0C00B3EB510F24BFA3EB5C
:100F9800510340EA5C00B3EB910F24BFA3EB91032C
:100FA80040EA9C00B3EBD10F24BFA3EBD10340EA86
:100FB800DC001B0118BF5FEA1C1CE0D1FD2A3FF6CC
:100FC80050AF8B4240EBC25008BF20F00100704781
:100FD8000CF0004C4CEA50207F32C2BFD2F1FF0324
:100FE80040EAC250704740F400004FF00003013A55
:100FF80037E792F0000F00F0004C02BF400010F4F9
:10100800000F013AF9D040EA0C0093F0000F01F00C
:10101800004C02BF490011F4000F013BF9D041EA2E
:101028000C0195E70CEAD15392EA0C0F08D1420261
:101038007FF47DAF93EA0C0F7FF470AF084676E734
:1010480093EA0C0F04D14B023FF44CAF08466EE70D
:1010580030F0004C18BF31F0004CCAD130F00042DB
:101068007FF45CAF31F000437FF43CAF5FE700BF33
:101078004FEA4002B2F1FE4F0FD34FF09E03B3EB9D
:1010880012620DD94FEA002343F0004310F0004FDD
:1010980023FA02F018BF404270474FF00000704733
:1010A80012F1610F01D1420205D110F0004008BFD2
:1010B8006FF0004070474FF000007047002103E0D8
:1010C8000B4B5B58435004310A480B4B42189A4269
:1010D800F6D30A4A02E0002342F8043B084B9A423E
:1010E800F9D304F047FD04F055FF04F0C1FA704746
:1010F800F0650008000000205C0100205C01002071
:1011080058370020FEE710B5044601F083FE4FF47F
:101118007A73B0FBF3F000F089F8002221464FF013
:10112800FF3000F043F8002010BD0000074A08B562
:101138001368032043F01003136000F025F80F2014
:10114800FFF7E1FF04F0A6FC002008BD00200240E4
:10115800024A136801331360704700BF780100200A
:10116800014B1868704700BF7801002013B5019043
:10117800FFF7F6FF0446FFF7F3FF019B001B9842B9
:10118800F9D302B010BD0000074A0002D36800F48A
:10119800E06023F4E0631B041B0C43F0BF6343F4DB
:1011A80000330343D360704700ED00E0174B30B5C0
:1011B800DC68C4F30224C4F10703251D042B28BFEF
:1011C8000423062D4FF0010598BF002405FA03F308
:1011D80003F1FF3388BF033C1940A14005FA04F42A
:1011E800013C2240002842EA01024FEA0212AFBF46
:1011F80000F16040064B00F00F00D2B2A5BFD2B29A
:1012080000F561401A5480F8002330BD00ED00E07D
:1012180014ED00E00123420900F01F0003FA00F07A
:10122800014B43F82200704700E100E00138B0F1BB
:10123800807F0AD2F021064B064A586082F82310B4
:101248000020072298601A6070470120704700BF8D
:1012580010E000E000ED00E0044B04281A680CBF21
:1012680042F0040222F004021A60704710E000E025
:1012780070B50368C34D0446AB4240F2E380C24AEE
:1012880011680832934200F0D6801432934200F07D
:10129800D4801432934200F0D2801432934214BFA7
:1012A8004FF400224FF400420A4230D01A68120765
:1012B80029D51A68AB4222F008021A6040F23B8135
:1012C800B24A934200F030811432934200F02E81EA
:1012D8001432934200F02C81143293420CBF4FF425
:1012E80000434FF40023A84A5360636B43F00103A3
:1012F8006363042384F82130002384F82030236BAF
:101308000BB1204698472368AB4240F2B8809E4A0A
:1013180011680832934200F042811432934200F07F
:1013280040811432934200F03E811432934214BF3C
:101338004FF480224FF480420A4200F0B9811A68C3
:10134800560725D51A68900603D41A6822F00402B5
:101358001A60AB4240F241818C4A934200F03681D8
:101368001432934200F034811432934200F03281F7
:101378001432934214BF4FF480234FF48043824ABF
:101388005360112384F82130E36A0BB12046984753
:101398002368AB4240F297807B4A11680832934237
:1013A80000F045811432934200F043811432934295
:1013B80000F041811432934214BF4FF400324FF4CD
:1013C80000520A4214BF01220022002A00F0728152
:1013D8001A68910740F16E811A68920603D41A6858
:1013E80022F002021A60AB4240F23881674A934207
:1013F80000F02D811432934200F02B811432934275
:1014080000F029811432934214BF4FF400334FF493
:1014180000535D4A5360636B6363012384F8213092
:10142800002384F82030A36A002B00F04381204673
:10143800BDE870401847082236E7802234E74FF4A9
:10144800006231E7524A1168083293425CD0143284
:1014580093425BD0143293425AD0143293425AD0FA
:10146800143293425AD0143293425AD0AB4214BF2A
:101478004FF400224FF000620A427FF417AF444A4B
:1014880011680832934200F091801432934200F0C0
:101498008F801432934200F08D801432934200F012
:1014A8008C801432934200F08B801432934200F007
:1014B8008A80AB4214BF4FF480224FF080620A4208
:1014C8007FF43DAF2368324A11680832934200F036
:1014D800AE801432934200F0AC801432934200F094
:1014E800AA801432934200F0A9801432934200F08B
:1014F800A8801432934200F0A780AB4214BF4FF487
:1015080000324FF000725CE70822B5E78022B3E7AB
:101518004FF40062B0E74FF40042ADE74FF4002209
:10152800AAE74FF40002A7E70823DCE68023DAE6FF
:101538004FF40063D7E6174A934216D01432934209
:1015480015D01432934214D01432934214D014326A
:10155800934214D0143293421ED0AB420CBF4FF0CA
:1015680000634FF400230A4ABEE60823FBE7802302
:10157800F9E74FF40063F6E74FF40043F3E74FF45D
:101588000023F0E780000240000402400804024003
:1015980000000240080002404FF40003E3E7042281
:1015A800CAE64022C8E64FF48062C5E6042286E710
:1015B800402284E74FF4806281E74FF480427EE75F
:1015C8004FF480227BE74FF4800278E70423D6E6C5
:1015D8004023D4E64FF48063D1E6374A934216D0CD
:1015E8001432934215D01432934214D014329342D9
:1015F80014D01432934214D01432934214D0AB4214
:1016080014BF4FF480234FF080632C4AB8E60423BC
:10161800FBE74023F9E74FF48063F6E74FF4804394
:10162800F3E74FF48023F0E74FF48003EDE702225D
:10163800C7E62022C5E64FF40072C2E64FF4005216
:10164800BFE64FF40032BCE64FF40012B9E60223BD
:10165800DFE62023DDE64FF40073DAE6164A93420C
:1016680016D01432934215D01432934214D0143247
:10167800934214D01432934214D01432934214D0AB
:10168800AB4214BF4FF400334FF000730B4AC1E66E
:101698000223FBE72023F9E74FF40073F6E74FF442
:1016A8000053F3E74FF40033F0E74FF40013EDE78E
:1016B800236871E670BD00BF0800024000000240C8
:1016C8002DE9F74F002216466C4F6D4BDFF8B8E155
:1016D800DFF8B8C14FF001080C6808FA06F808EA04
:1016E8000404A04540F085804D68122D00F0B780B5
:1016F80000F28D80022D00F0AF8000F28180002D75
:1017080000F09180012D00F0A5804FF00F09FF2C0B
:1017180093BF824606F18045083DD0F800B092BFDD
:10172800B500D0F804B0AD0009FA05F82BEA0808AE
:1017380002FA05F588BF00F1040A48EA0505CAF867
:101748000050D1F804A01AF0805F52D0BD6926F08D
:10175800030845F00105BD61BD6908F1804805F041
:101768000105019508F5803806F0030B019D4FEA45
:101778008B0BD8F8085009FA0BF925EA0909414DED
:10178800A84271D005F58065A8426FD005F580653F
:10179800A8426DD005F58065A8426BD005F5806537
:1017A800A84269D070450CBF0525062505FA0BF53A
:1017B80045EA0905C8F808501D681AF4803F14BFA7
:1017C8002543A5431D605D681AF4003F14BF2543F7
:1017D800A5435D609D681AF4801F14BF2543A54387
:1017E8009D60DD681AF4001F14BF2C4325EA040429
:1017F800DC600136102E7FF46DAF03B0BDE8F08FCA
:10180800032D25D0112D80D1CA6804327DE76545A6
:1018180009D012D8DFF878904D4504D009F5803901
:101828004D457FF472AF8A68E2B1012A0CBFC0F857
:101838001080C0F81480082267E7DFF858904D45FB
:10184800F1D009F580394D45EDD0A9F58019E7E7C4
:1018580000225AE7CA6858E7CA68083255E7CA68D2
:101868000C3252E7042250E700259FE701259DE747
:1018780002259BE7032599E7042597E70010024016
:101888000004014000080140001C01400000211034
:1018980000001110000031100AB1016170470904FD
:1018A800FBE7C3685940C16070470268536913F485
:1018B80080630DD0536923F48063536104238363E9
:1018C800202380F83530002380F834300120704719
:1018D800184670472DE9F0410C46064615461F4646
:1018E800FFF73EFC8046200CA4B215B3C5B22CE02D
:1018F8007A1C0FD047B9202386F8353000230320FF
:1019080086F83430BDE8F081FFF72AFCA0EB080028
:101918008742F0D33368012D0CBF5B699B6934EAB9
:10192800030314BF01230023002BE1D10020BDE8ED
:10193800F081C5B2EEE77B1C07D0002FDBD0FFF7A4
:101948000FFCA0EB08008742D5D33368012D0CBFEC
:101958005B699B6934EA03030CBF01230023002B56
:10196800E9D1E3E72DE9F0410D4604461646FFF7B5
:10197800F7FB0746C5F30748ADB22368B8F1010F76
:101988000CBF5A699A6935EA020214BF0120002087
:1019980008B9BDE8F0815A69520512D51A680120C4
:1019A80042F400721A605A6922F480625A61042370
:1019B800A363202384F83530002384F83430BDE84D
:1019C800F081731CD9D046B9202384F83530002320
:1019D800032084F83430BDE8F081FFF7C1FBC01B59
:1019E8008642CAD2F0E770B504460D46FFF7B8FB49
:1019F800064623685B691B0601D5002070BD20469A
:101A0800FFF753FFA0B96A1CF3D05DB9A36B03209D
:101A180043F02003A363202384F83530002384F89F
:101A2800343070BDFFF79CFB801B8542E1D2EDE7A7
:101A3800012070BDF7B5154602681F4613680E46AB
:101A480043F4807313604FF00111089B0022044691
:101A5800FFF740FF60B9236806F0FE061E61089A8A
:101A680017492046FFF77EFF28B1A36B042B15D03A
:101A7800032003B0F0BD236808995A6920460192F3
:101A88009B690193019BFFF7AEFF48B1A36B042B41
:101A9800EED12268136843F4007313600120E8E76D
:101AA800012F236802D1EDB21D61E2E72A0A1A610B
:101AB80008992046FFF797FF0028E7D12368F2E747
:101AC80002000100F7B51F46036815461A680E465E
:101AD80042F480621A601A684FF0011142F4807271
:101AE8001A60089B00220446FFF7F4FE78B92368C1
:101AF800F6B206F0FE021A612849089A2046FFF756
:101B080031FF38B1A36B042B01D1012000E0032081
:101B180003B0F0BD236808995A69204601929B6971
:101B28000193019BFFF75FFF40B1A36B042BEED13C
:101B38002268136843F400731360E6E7012F2368F3
:101B480021D1EDB21D6108992046FFF74CFF0246EE
:101B58000028EAD1216820460B6843F480730B60A3
:101B6800089B4FF00111FFF7B5FE0028CFD123687D
:101B780046F001061E61089A08492046FFF7F2FE62
:101B88000028BFD1C4E72A0A1A6108992046FFF73E
:101B98002AFF0028C9D12368D3E700BF020001004B
:101BA80070B504460D46FFF7DBFA0646226853690E
:101BB80013F0400301D0002070BD5169C9060BD550
:101BC8005169012021F0100151612022A36384F89A
:101BD800343084F8352070BD5DB9A36B032043F021
:101BE8002003A363202384F83530002384F834309D
:101BF80070BDFFF7B5FA801B8542D7D2EDE700002C
:101C080070B5044600285FD090F8353003F0FF0225
:101C18001BB980F8342003F07BFF2423226884F862
:101C280035301368294E23F00103136001F0F8F8EA
:101C38006368274DB342B0FBF5F588BF4FF4967142
:101C4800226888BF6943556085BF4FF47A75B1FB38
:101C5800F5F1691C0131B342116220D85B00B0FB79
:101C6800F3F0C0F30B03032B98BF0420216AE36948
:101C7800D0610B431360E168236900200B43936034
:101C8800A16963690B43D360136843F001031360D0
:101C98002023A06384F8353084F8360070BDA1682D
:101CA80059B903EB4303B0FBF3F040F40040C0F331
:101CB8000B03002B08BF0120D8E719214B43B0FBC9
:101CC800F3F040F44040F2E7012070BDA086010027
:101CD80040420F002DE9F74F9B4690F835300446F7
:101CE800202B894692460C9FBDF8346003D0022011
:101CF80003B0BDE8F08F57B34EB342F21073012220
:101D08002F49FFF7E7FD80460028F0D194F83430DA
:101D1800012BECD00125226884F834501368494619
:101D280023F400631360212384F83530402384F8BA
:101D380036300E9BA063009352465B462046FFF761
:101D480079FE88B1A36B84F83480042B15D1012067
:101D5800CEE722683B7813615169731E49079BB22D
:101D68000DD41E4601375EB10E992046FFF73BFEA3
:101D78000028EED0A36B042B1BD00320B8E793B93F
:101D88000E992046FFF72FFE0028F3D1226813682A
:101D980043F400731360202384F8340084F835304A
:101DA80084F83600A4E77B78023E1361B6B20237A6
:101DB800D9E72268136843F400731360C7E700BFCC
:101DC800020010002DE9F04F9B4690F8353089B09D
:101DD800202B044603919246129EBDF84C50149F46
:101DE80005D04FF0020A504609B0BDE8F08F5EB347
:101DF80055B342F2107301226249FFF76BFD80462A
:101E08000028EED194F83430012BEAD04FF00109C4
:101E1800226884F834901368039923F400631360EC
:101E2800222384F835304023524684F83630009710
:101E3800A0635B462046FFF745FE824638B1A36B98
:101E480084F83480042B1ED14FF0010ACBE72368B5
:101E5800012D1A681AD122F480621A6072B62368BA
:101E68005A6905929A690592059A1A6842F40072AD
:101E78001A6062B639462046FFF792FE00284DD018
:101E8800A36B202BE0D14FF0030AACE7022D23D13E
:101E980042F400621A6072B623685A6906929A6917
:101EA8000692069A1A6822F480621A6062B63B4665
:101EB800002235492046FFF70DFD0028E3D172B610
:101EC80023681A6842F400721A601B69337062B69C
:101ED80023681B69737024E042F480621A605A69AF
:101EE80007929B690793079B032D23D93946204600
:101EF800FFF756FE0028C3D123681B693370226898
:101F080053695B074DBF1269731C05F1FF35B31C9C
:101F180044BF023D7270ADB21E46E5E723681B69F7
:101F28003370202384F83530002384F8363084F861
:101F3800343058E7022DBAD000223B4612492046D9
:101F4800FFF7C8FC024600289DD121680B6823F4DE
:101F580080630B6072B623680B491B692046337097
:101F68003B46FFF7B7FC00288DD123681A6842F476
:101F780000721A601B69737062B623681B69B370BC
:101F8800CFE700BF02001000040001002DE9F04176
:101F9800044686B0002860D090F8E93303F0FF02C9
:101FA8001BB980F8E82303F07BFE254603236E4621
:101FB80055F8100B84F8E93300F0E0FF0FCD0FC699
:101FC8002B6804F10408336098E80E00206800F0DC
:101FD800C5FF0021206800F0DBFF002123462246D0
:101FE8000126084604F1100582F82810918601316F
:101FF8000F2982F8296082F82B009063D06310645F
:1020080002F12002F0D10022174683F808229A86AE
:1020180001320F2A83F8097283F80B72C3F8187219
:10202800C3F81C72C3F8207203F12003EDD16E4689
:102038000FCD0FC62B68336098E80E00206800F0BB
:10204800A9FF012384F82470206884F8E93301F09B
:1020580073FA002006B0BDE8F0810120FAE790F895
:10206800E83310B5012B04460ED0012180F8E8139F
:1020780003F03DFF206801F05DFA206800F075FF6D
:10208800002084F8E80310BD022010BD90F8E82372
:1020980010B5012A04460BD0012280F8E82384F801
:1020A8002410006801F040FA002084F8E80310BD0D
:1020B800022010BD38B5044648B2002801F07F055B
:1020C800B5BF04EB451104EB4111283101F502714C
:1020D800C00F0D704870CB7094F8E8330A61012B7B
:1020E80009D00123206884F8E83300F067FF002056
:1020F80084F8E80338BD022038BD4BB2002B01F04C
:102108007F02B5BF00EB421100EB4111283101F508
:102118000271DB0F10B50A704B7090F8E833044673
:10212800012B09D0012380F8E833006801F0BAF8E0
:10213800002084F8E80310BD022010BD70B50446E5
:1021480001F07F0670012518C5F820320023C5F874
:10215800243285F8093294F8E833C5F81C22012B9B
:1021680085F808620CD0012300F50270211884F864
:10217800E833206801F0FAF9002084F8E80370BD1C
:10218800022070BD01F07F0100EB4111B1F824027B
:10219800704770B5044601F07F06700125182B645E
:1021A80000236B640123EA6394F8E82385F8293057
:1021B8009A4285F828600AD02830211884F8E83334
:1021C800206801F0D3F9002084F8E80370BD0220EC
:1021D80070BD00002DE9F3470446006801F0AEF930
:1021E800000400F19480206801F0A8F941050FD59A
:1021F80022682046B2F8443023F480631B041B0C89
:10220800A2F8443003F083FD00212046FFF73EFF8B
:10221800206801F093F9470408D52268B2F84430E1
:1022280023F480431B041B0CA2F84430206801F0FF
:1022380085F9860408D52268B2F8443023F400539F
:102248001B041B0CA2F84430206801F077F9C50480
:1022580018D522682046B2F8403023F004031B0446
:102268001B0CA2F840304FF43D43A2F8403003F075
:102278006BFD2268B2F8443023F480531B041B0C16
:10228800A2F84430206801F059F900051DD52068EE
:10229800B0F8443023F400631B041B0CA0F844304E
:1022A800B0F840309BB243F00803A0F84030B0F8D3
:1022B80040309BB243F00403A0F8403001F03EF9EF
:1022C800C10402D4204603F02FFD206801F036F93E
:1022D80082050BD522682046B2F8443023F40073F7
:1022E8001B041B0CA2F8443003F00DFD206801F01C
:1022F80025F9C30508D52268B2F8443023F4807361
:102308001B041B0CA2F8443002B0BDE8F087002380
:10231800C34FDFF81083DFF81093ADF80430ADF841
:1023280006302068B0F844309BB2ADF804301B0486
:102338007FF559AFBDF8045015F00F0540F0AB809C
:10234800BDF80410038811F010019BB226D13B4060
:102358000380B0F8503094F828209BB203EBC203F6
:1023680000EB4300D0F80434E26BC3F30903636461
:102378001344E363204603F0BFFC94F82430002B99
:10238800CFD0226C002ACCD194F82430216843F0B5
:102398008003A1F84C3084F82420C2E7ADF8063059
:1023A800BDF806301A051FD5B0F8503094F8082249
:1023B8009BB203EBC20300EB4303D3F80C34B4F82D
:1023C8000C22C3F30903C4F8243204F57B7101F02D
:1023D800A1F922682046138823F070031B051B0D02
:1023E800138003F07BFC9CE7BDF806301B0498D5EE
:1023F800038823F070031B051B0D0380B0F85030D1
:1024080094F808229BB203EBC20300EB4303D3F812
:102418000C34C3F30903C4F8243263B1B4F80C22B2
:10242800D4F81C1201F076F9D4F81C32D4F824221E
:102438001344C4F81C320021204603F055FC2268DE
:10244800D4F81852B2F850103E2D89B201F10601A5
:1024580002F5806017D9C5F34F13EE0604BF03F1E8
:10246800FF339BB249EA83239BB240F811301388AB
:102478009BB203EA080383F4405343F4004343F058
:10248800800313804DE7C5F34F03ED0744BF0133C5
:102498009BB29B02E8E730F825309BB2ADF80630D6
:1024A800BDF8063019043DD530F825304FEA451AF5
:1024B80023F070031B051B0D20F8253004EB0A01DF
:1024C80091F81232002B6FD1B0F8503091F80822F1
:1024D8009BB203EBC20300EB4303D3F80C64C6F3CF
:1024E800090636B1B1F80C223346D1F81C1201F0B6
:1024F80011F904EB0A01D1F82432D1F81C22334433
:10250800C1F82432D1F820323244C1F81C221BB160
:10251800D1F8180286427DD2A2449AF808122046C1
:1025280003F0E2FBBDF806301A067FF5FAAE206824
:102538006E0130F82530A1199BB23B4020F82530B8
:1025480091F832300235002B70D1B0F8503091F844
:1025580028209BB203EBC20300EB4303D3F80434F7
:1025680004EB4515C3F309036B601BB18A8DC96B76
:1025780000F0EAFF22682644B2F8503096F8281096
:102588009BB203EBC10302EB4303D3F80424F36BC0
:10259800C2F3090272641A44336CF2632046002BBA
:1025A8007AD103F0A9FBBCE691F8083230F8232071
:1025B800DB0012F4804FB0F8502092B2134400EBC5
:1025C80043031DD0D3F80464C6F3090636B1334675
:1025D800B1F80E22D1F81C1201F09CF804EB0A03A2
:1025E80093F80812226832F8213023F0F0031B0513
:1025F8001B0D43F4004343F0C00322F8213078E771
:10260800D3F80C64C6F30906002EE7D03346B1F8B8
:102618001022DFE791F808122046FFF78FFD81E7C7
:102628000F8FFFFF8FBFFFFF0080FFFF91F828305B
:1026380030F82320DB0012F0400FB0F8502092B29F
:10264800134400EB43031CD0D3F8043404EB4515C2
:10265800C3F309036B601BB1CA8DC96B00F074FF2B
:10266800A31993F82810226832F8213023F0F003D8
:102678001B051B0D43F4404343F0800322F821302F
:1026880078E7D3F80C3404EB4515C3F309036B6002
:10269800002BE5D00A8EE0E7FFF77BFD41E600BF9F
:1026A800012238B54BB2002B01F07F05B5BF00EB16
:1026B800451100EB4111283101F50271DB0FEDB234
:1026C8008A700D704B7090F8E833044693420ED030
:1026D80080F8E823006800F0B3FE25B904F57B71A3
:1026E800206800F02FFF002084F8E80338BD02209E
:1026F80038BD38B500244BB2002B01F07F02B5BFBE
:1027080000EB421100EB4111283101F50271DB0F9A
:102718008C700A704B7090F8E8330546012B09D08D
:10272800012380F8E833006800F0BCFE85F8E84330
:10273800204638BD022038BD11F0800F1BBF01F0C4
:102748007F0100EB411000EB4110283008BF00F575
:1027580002701AB982728380002070470122C380F8
:102768001B0C82720381F7E703682DE9F743DE0744
:10277800054634D42B689C0700F1A7802B681A07FC
:1027880023D5AA69BE4C0123BE49002A00F0158151
:1027980093FAA3F2B2FA82F241F82230FEF7E0FC93
:1027A8000226074696FAA6F396FAA6F3626A96FAFE
:1027B800A6F3B3FA83F303F01F0322FA03F3DB074C
:1027C80040F1F4800120FEF7D1FC2B68590700F195
:1027D8001481EA69002A40F09381002020E0A84C87
:1027E800636803F00C03042B07D0636803F00C0341
:1027F800082B18D16368D80315D54FF4003393FA22
:10280800A3F2226893FAA3F3B3FA83F303F01F0346
:1028180022FA03F3D907ADD56B68002BAAD10120A2
:1028280003B0BDE8F0836B68B3F5803F1CD1236823
:1028380043F480332360FEF793FC4FF400360746D9
:1028480096FAA6F3226896FAA6F3B3FA83F303F08E
:102858001F0322FA03F3DA078CD4FEF781FCC01BAE
:102868006428EDD90320DBE703BB23684FF4003667
:1028780023F480332360236823F480232360FEF746
:102888006FFC074696FAA6F3226896FAA6F3B3FAFF
:1028980083F303F01F0322FA03F3DB077FF56AAF24
:1028A800FEF75EFCC01B6428ECD9DBE7B3F5A02F6C
:1028B800236803D143F480232360B8E723F48033EB
:1028C8002360236823F48023B4E76D4C636813F016
:1028D8000C0F07D0636803F00C03082B20D1636842
:1028E800DF031DD4022393FAA3F2226893FAA3F319
:1028F800B3FA83F303F01F0322FA03F3DE0702D5CA
:102908002B69012B8BD12168F82393FAA3F3B3FA2F
:1029180083F26B69934021F0F802134323602DE79B
:102928002A69012302B393FAA3F2B2FA82F292005F
:1029380002F1844202F584021360FEF711FC0226BC
:10294800074696FAA6F3226896FAA6F3B3FA83F333
:1029580003F01F0322FA03F3D807D4D4FEF700FCD0
:10296800C01B0228EDD97DE793FAA3F3B3FA83F3EA
:102978009B0003F1844303F584031A60FEF7F0FB20
:102988000226074696FAA6F3226896FAA6F3B3FA41
:1029980083F303F01F0322FA03F3D9077FF5EEAEA2
:1029A800FEF7DEFBC01B0228ECD95BE7FEF7D8FB7D
:1029B800C01B02287FF6F6AE54E793FAA3F3B3FAE6
:1029C80083F341F82320FEF7CBFB0226074696FA4D
:1029D800A6F396FAA6F3626A96FAA6F3B3FA83F315
:1029E80003F01F0322FA03F3D8077FF5EEAEFEF7D4
:1029F800B7FBC01B0228EAD934E7214C224EE36911
:102A080043F08053E361E36903F080530193019B32
:102A1800336843F480733360FEF7A2FB07463368DC
:102A2800DA0526D5EB68012B30D1236A43F0010380
:102A38002362FEF795FB02268146B04641F28837AD
:102A480096FAA6F396FAA6F3002B55D0226A98FABE
:102A5800A8F3B3FA83F303F01F0322FA03F3DB07A7
:102A68003FF5B7AEFEF77CFBA0EB0900B842E7D90B
:102A7800F8E6FEF775FBC01B6428D0D9F2E600BF64
:102A880000100240800442420070004033BB236AB9
:102A9800022623F001032362236A374623F0040346
:102AA8002362FEF75DFB41F28839804696FAA6F369
:102AB80096FAA6F313B3226A97FAA7F3B3FA83F345
:102AC80003F01F0322FA03F3D8077FF582AEFEF75F
:102AD80047FBA0EB08004845E8D9C3E6052B236A65
:102AE80003D143F0040323629FE723F00103236229
:102AF800236A23F004039BE7626AA8E7626ADBE7BC
:102B0800444C636803F00C03082B3FF488AE022A98
:102B18004FF0807359D193FAA3F3B3FA83F30022E9
:102B28009B0003F1844303F584031A60FEF718FB46
:102B38004FF00076074696FAA6F3226896FAA6F3AF
:102B4800B3FA83F303F01F0322FA03F3D90736D449
:102B58002B6AB3F5803F05D16268A96822F4003278
:102B68000A4362606268696A22F474120B43134371
:102B780063604FF0807393FAA3F3B3FA83F30122EF
:102B88009B0003F1844303F584031A60FEF7E8FA17
:102B98004FF00075064695FAA5F3226895FAA5F355
:102BA800B3FA83F303F01F0322FA03F3DA073FF5BE
:102BB80014AEFEF7D5FA801B0228ECD952E6FEF7D0
:102BC800CFFAC01B0228B6D94CE693FAA3F3B3FA9E
:102BD80083F300229B0003F1844303F584031A6006
:102BE800FEF7BEFA4FF00075064695FAA5F322687F
:102BF80095FAA5F3B3FA83F303F01F0322FA03F35C
:102C0800DB077FF5EAADFEF7ABFA801B0228ECD9AB
:102C180028E600BF0010024030B5204B87B002AC58
:102C280003F11005224618685968083303C2AB42FD
:102C38001446F7D101238DF804300223184C8DF87F
:102C48000530616801F00C03082B24D14FF4701390
:102C580093FAA3F3B3FA83F201F47013D34006AAEC
:102C6800134413F8100CCB0313D563684FF40032E8
:102C780092FAA2F2B2FA82F203F40033D34006AA1F
:102C8800134413F8142C074BB3FBF2F3584307B063
:102C980030BD054BFAE70348F9E700BF10650008A7
:102CA8000010024000127A0000093D00554A2DE943
:102CB800F0411368064603F007038B420D4630D3F4
:102CC800326894073AD4D00740D44E4A136803F0C8
:102CD80007039D42C0F0848032684B4C12F0040F09
:102CE80040F08980130706D56368326923F460537E
:102CF80043EAC2036360FFF78FFF6368F02292FA2A
:102D0800A2F2B2FA82F203F0F003D3403F4AD35C56
:102D1800D8403F4B18600F20FEF7F5F90020BDE8BA
:102D2800F081136823F007030B431360136803F063
:102D380007039942C4D00120BDE8F0813249B06848
:102D48004B6823F0F00303434B60BCE772682E4CDA
:102D5800012A28D14FF4003393FAA3F1216893FA9A
:102D6800A3F3B3FA83F303F01F0321FA03F3D9079C
:102D7800E1D5636841F2883823F003031A4362609F
:102D8800FEF7EEF973680746012B12D1636803F06A
:102D98000C03042B99D0FEF7E3F9C01B4045F5D985
:102DA8000320BDE8F081022A0CBF4FF00073022314
:102DB800D2E7022B0FD1636803F00C03082B84D0F1
:102DC800FEF7CEF9C01B4045F5D9E9E7FEF7C8F98B
:102DD800C01B4045E4D8636813F00C0FF6D174E7C4
:102DE800136823F007032B431360136803F00703EA
:102DF8009D42A0D170E76368F16823F4E0630B4358
:102E080063606FE700200240001002403765000849
:102E180014010020014B1868704700BF14010020FE
:102E2800084B4FF4E0625B6892FAA2F2B2FA82F2BF
:102E380003F4E063D340044AD35C044A1068D840E2
:102E4800704700BF001002404765000814010020C9
:102E580003682DE9F743DC0705461ED53C4C3D4E7B
:102E6800E36943F08053E361E36903F0805301931E
:102E7800019B336843F480733360FEF771F90746AA
:102E88003368D8051FD5236A13F4407324D1236A05
:102E98006A6823F44073134323622868830706D5BE
:102EA8002B4AA968536823F440430B43536010F03E
:102EB80010000ED0264A69695368002023F4800365
:102EC8000B43536005E0FEF74BF9C01B6428D7D9C4
:102ED800032003B0BDE8F0836A6802F440729342AD
:102EE800D5D0216A4FF4803321F4407693FAA3F2C7
:102EF8000127B2FA82F2184840F8227093FAA3F335
:102F08000022B3FA83F3C90740F823202662BED50E
:102F1800FEF726F902268046374641F2883996FAA6
:102F2800A6F396FAA6F38BB1226A97FAA7F3B3FA37
:102F380083F303F01F0322FA03F3DA07A7D4FEF79B
:102F48000FF9A0EB08004845E9D9C1E7626AECE748
:102F580000100240007000400004424284B001A802
:102F680080E80E0004B000207047B0F840309BB2F3
:102F780043F43D43A0F8403000207047B0F840309B
:102F880023F474535B045B0CA0F8403000207047B6
:102F98000020704784B010B503AC84E80E00BDE88B
:102FA80010400123A0F84030002304B0A0F84030BE
:102FB800A0F84430A0F850301846704770B5CB7868
:102FC8000A78032B0FD8DFE803F00264505930F871
:102FD800223023F4EC4323F070031B041B0C43F44E
:102FE800007320F8223040F60F730C7830F8242054
:102FF80044F4004545F080051A402A4320F824206F
:103008008A7A0D78002A40F098804C788A88002CBB
:103018004AD0B0F850405208A4B204EBC50400EB03
:1030280044045200C4F800240C7830F824205206D6
:1030380008D530F82420134043F4004343F0C0037C
:1030480020F824300A7830F8223023F4E04323F0C3
:1030580040031B041B0C83F0200343F4004343F09C
:10306800800320F82230002070BD30F8223023F48D
:10307800EC4323F070031B041B0CB2E730F822303A
:1030880023F4EC4323F070031B041B0C43F4C063CC
:10309800A7E730F8223023F4EC4323F070031B0435
:1030A8001B0C43F480639CE7B0F8503052089BB285
:1030B80003EBC5030433520000F5806444F8132081
:1030C800B0F850200B780D6992B202EBC3023E2D86
:1030D80002F1060229D9C5F34F16EB0604BF06F123
:1030E800FF339EB26E4B43EA86239BB244F81230FC
:1030F8000A7830F822305E040BD530F8223023F0FD
:10310800F0031B051B0D43F4404343F0800320F8F4
:1031180022300A7830F8223023F4804323F07003F9
:103128001B041B0C83F4405397E7C5F34F03ED07CB
:1031380044BF01339BB29B02D7E730F8252022F425
:10314800F8721205120D42F4014242F0800220F892
:103158002520B0F850200C7892B202EBC402CC883B
:1031680000F580656408640045F81240B0F8502006
:103178000C7892B202EBC4020C8904326408640031
:1031880045F812404A780C78002A47D130F82420B4
:10319800550408D530F82420134043F4404343F045
:1031A800800320F824300A7830F822305C060BD5EA
:1031B80030F8223023F0F0031B051B0D43F40043C5
:1031C80043F0C00320F822300A7830F8223023F088
:1031D800F0031B051B0D43F4004343F0C00320F824
:1031E800223048F280020C7830F8243023F48043EF
:1031F80023F070031B041B0C83F44053134320F883
:103208002430097830F8213023F4E04323F04003D8
:103218001B041B0C134320F8213024E730F824202A
:10322800520408D530F82420134043F4404343F0B7
:10323800800320F824300A7830F822305B060BD55A
:1032480030F8223023F0F0031B051B0D43F4004334
:1032580043F0C00320F822300A7830F8223023F0F7
:10326800F0031B051B0D43F4404343F0800320F893
:10327800223048F280020C7830F8243023F4E043FE
:1032880023F040031B041B0C134320F82430097857
:1032980030F8213023F4804323F07003B8E700BFEF
:1032A8000080FFFF10B58C7A4A780B78CCBB02B34C
:1032B80030F8232052060BD530F8232022F0F002F4
:1032C8001205120D42F4004242F0C00220F82320F9
:1032D8000A7830F8223023F4E04323F040031B043B
:1032E8001B0C43F4004343F0800320F822300020F5
:1032F80010BD30F8232054040BD530F8232022F0D9
:10330800F0021205120D42F4404242F0800220F809
:1033180023200A7830F8223023F4804323F0700306
:10332800DDE7002A48D130F8232052040BD530F8C5
:10333800232022F0F0021205120D42F4404242F01E
:10334800800220F823200A7830F822305C060BD55A
:1033580030F8223023F0F0031B051B0D43F4004323
:1033680043F0C00320F822300A7830F8223023F0E6
:10337800F0031B051B0D43F4004343F0C00320F882
:10338800223048F280020C7830F8243023F480434D
:1033980023F070031B041B0C134320F82430097816
:1033A80030F8213023F4E04323F040031B041B0CC6
:1033B800134320F821309AE730F8232052040BD524
:1033C80030F8232022F0F0021205120D42F4404298
:1033D80042F0800220F823200A7830F822305B0679
:1033E8000BD530F8223023F0F0031B051B0D43F4F6
:1033F800004343F0C00320F822300A7830F8223026
:1034080023F0F0031B051B0D43F4404343F08003F6
:1034180020F8223048F280020C7830F8243023F467
:10342800E04323F040031B041B0C134320F8243013
:10343800097830F8213023F4804323F07003B5E78E
:103448000A788AB9038823F4804323F040031B04D5
:103458001B0C83F4805383F0100343F4004343F0C0
:1034680080030380002070474B7883B130F8223006
:1034780023F4E04323F040031B041B0C83F01003E8
:1034880043F4004343F0800320F82230EAE730F8A1
:10349800223023F4804323F070031B041B0C83F4B5
:1034A8008053EDE74B780A7813B330F822305B0687
:1034B8000BD530F8223023F0F0031B051B0D43F425
:1034C800004343F0C00320F822300A7830F8223055
:1034D80023F4E04323F040031B041B0C83F0300368
:1034E80043F4004343F0800320F822300020704763
:1034F80030F822305B040BD530F8223023F0F0038B
:103508001B051B0D43F4404343F0800320F8223091
:103518000A7830F8223023F4804323F070031B0428
:103528001B0C83F44053DBE711B98023A0F84C301F
:10353800002070470020704700207047B0F8440012
:1035480080B270470020704710B50024013300F5A1
:1035580080605B1000EB4202A34200D110BD31F83D
:10356800020B22F824000134F6E7000070B50E467D
:103578008A694978054601293369B07A5ED19A4249
:103588001C469BBF00231446D21AB36188BFB261A0
:10359800A3B208BBB28871692846FFF7D5FFB5F812
:1035A800503032789BB203EBC20305EB4303C3F8F8
:1035B8000444327835F8223023F4E04323F0400302
:1035C8001B041B0C83F0300343F4004343F08003D7
:1035D80025F82230002070BD3278284635F82210B0
:1035E800D20011F0400FB5F8501089B20A4405EB2B
:1035F8004202C2F80444716914BF3289F288FFF7A5
:10360800A3FF7378327863B935F8223023F0F003DA
:103618001B051B0D43F4004343F0C00325F822307B
:10362800C7E7012BC5D135F8223023F0F0031B057D
:103638001B0D43F4404343F08003EFE79A4293BFE6
:103648000023D21AB261B36198BF1346327818BB0F
:10365800B5F850103E2B89B201EBC20101F1060109
:1036680005F5806049D9C3F34F12DC0604BF02F1A7
:10367800FF339AB2264B43EA82239BB240F81130BB
:10368800327835F8223023F4804323F070031B048A
:103698001B0C83F4405397E7B9B9B5F850103E2B8B
:1036A80089B201EBC20101F1020105F580641CD960
:1036B800C3F34F10DA0604BF00F1FF3290B2144A88
:1036C80042EA802292B244F81120717832780029B7
:1036D800BED00129D4D1B5F8501089B201EBC2018E
:1036E80005EB4101C1F80434CAE7C3F34F02D80718
:1036F80044BF013292B29202E4E7C3F34F02DB0700
:1037080044BF013292B2920292B240F81120B7E758
:103718000080FFFF10B50024013300F580605B10C6
:1037280000EB4202A34200D110BD52F8240021F858
:1037380014000134F6E7D0F818321BB10020C3F8A2
:103748001402704702207047D0F81C3210B5D0F828
:1037580018425BB194F80002FF2807D09B6894F8E0
:10376800012221469847FF2384F80032002010BD2B
:103778004323038000487047380000204323038018
:10378800004870477C0000204323038000487047AE
:10379800CC0000200A23038000487047C0000020A6
:1037A80038B50546D0F8184202F096FBD5F818321D
:1037B800C4F80C024BB1D5F81C3204F50371DB6870
:1037C800D4F804029847002038BD022038BD000014
:1037D800F8B50F78064617F060030C4623D0202B67
:1037E80019D1CA884B78C2B13906D0F818520BD50E
:1037F800D0F81C1218468F682946B8472946304623
:10380800E28800F08AFB06E085F8003285F801229C
:10381800294600F097FB0020F8BDD0F81C02846808
:103828001846A047F7E74B780A2BF4D10122014943
:10383800E7E700BF7C01002010B50446812102F0B3
:10384800E7FA0121204602F0E3FA8221204602F03D
:10385800DFFAD4F8183253B1D4F81C325B689847B1
:10386800D4F8180202F042FB0023C4F818320020F2
:1038780010BDF8B5037C04467BBB4FF400730222ED
:10388800812102F0B5FA4FF400730222012120468B
:1038980002F0AEFA082303228221204602F0A8FA99
:1038A8004FF4077002F01EFB0646C4F8180220B356
:1038B8000025D4F81C321B689847277CC6F8145298
:1038C800C6F8185287B94FF40073D6F804220121BC
:1038D800204602F0F3FA3846F8BD4023022281213F
:1038E80002F086FA4023D0E74023D6F804220121CB
:1038F800204602F0E3FA2846F8BD0120F8BD19B1C8
:10390800C0F81C120020704702207047D0F8183207
:103918000020C3F80812C3F810227047D0F81832F4
:103928000020C3F804127047D0F8182210B572B1FD
:10393800D2F81442012364B9C2F814328121B2F8D2
:103948001032D2F8082202F0ABFA204610BD02204D
:1039580010BD184610BDD0F8182210B562B1047C0D
:1039680044B94FF40073D2F80422012102F0A6FAF8
:10397800002010BD4023F6E7022010BD08B580B135
:10398800D0F8143213B10023C0F8143209B1C0F8CA
:1039980010120123027080F8FC3102F0D9F90020DE
:1039A80008BD022008BD19B1C0F8141200207047E4
:1039B8000220704708B502F00DFA002008BD08B5CE
:1039C800D0F814320BB9022008BD1B6898470028AC
:1039D800F9D108BD08B5D0F814325B6898470020C3
:1039E80008BD38B500F502750446284600F065FAAA
:1039F800012394F80812C4F8F431B4F80E32C4F86C
:103A0800F83101F01F03012B0ED007D3022B10D081
:103A180001F08001204602F009FA03E02946204619
:103A280000F0D6F8002038BD2946204600F0CAF933
:103A3800F8E72946204600F0DDF9F3E738B50446F3
:103A4800154611BBD0F8F431032B0FD1D0F80C3147
:103A5800D0F8102193420BD99B1A9A4228BF1A46D4
:103A6800C0F80C3192B2294600F07BFA002038BD2C
:103A7800D0F814321B6923B190F8FC21032A00D135
:103A88009847204600F075FAF0E7D0F814329B69A1
:103A9800002BEBD090F8FC21032AE7D19847E5E703
:103AA80070B5134604460E4600293DD1D0F8F421DE
:103AB800022A0FD1C569026A954214D9AA1AC261AD
:103AC800194692B200F036FA33461A46194620468D
:103AD80002F0F4F994F80032012B02D1002384F8A3
:103AE8000032002070BD8369B3FBF2F502FB153587
:103AF80065B99A420AD8D0F8F821934206D22A46E4
:103B080000F018FAC4F8F8512B46DEE7D4F814325E
:103B1800DB682BB194F8FC21032A01D12046984791
:103B2800204600F031FAD5E7D0F814325B69002B53
:103B3800D7D090F8FC21032AD3D19847D1E70022A7
:103B480038B5044640251146402302F051F92B466A
:103B5800C4F8105100228021204602F049F90123BF
:103B680084F8FC31D4F8183225622BB1D4F8143219
:103B780021795B6820469847002038BD01740020F1
:103B8800704790F8FC3180F8FD31042380F8FC314F
:103B98000020704790F8FD3180F8FC310020704714
:103BA80008B590F8FC21032A04D1D0F81432DB6957
:103BB80003B19847002008BD10B50446802102F0E3
:103BC80035F92046BDE81040002102F02FB9000069
:103BD80037B54B7804460D46092B79D8DFE813F042
:103BE800C900E5007800D90078006D000A00780067
:103BF800B9008D004B881A0A013A062A68D8DFE80E
:103C080002F0041C296767495200D0F810321B687B
:103C18000DF10601207C9847BDF80620002A67D0E0
:103C2800EB88002B64D09A4228BF1A460146ADF8AB
:103C38000620204600F071F95AE0027CD0F81432D0
:103C480032B99B6A0DF10600984702234370E3E7F7
:103C5800DB6AF7E7DBB2052B3AD8DFE803F00307A6
:103C68000B0F1317D0F810325B68D1E7D0F8103279
:103C78009B68CDE7D0F81032DB68C9E7D0F810327E
:103C88001B69C5E7D0F810325B69C1E7D0F810327C
:103C98009B69BDE7037CDBB9D0F814320DF106004F
:103CA8005B6B9847B8E7037C93B9D0F814320DF1F1
:103CB80006001B6B98470723C8E78B8843B9CB8856
:103CC80033B990F8FC318D78032B05F07F0503D1CB
:103CD8002046FFF771FF0BE080F8FE51294602F0FD
:103CE800D1F8204600F045F92DB1022384F8FC31C3
:103CF800002003B030BD0123F8E78978304D012951
:103D08002970E5D890F8FC31022B0CD0032BDFD1B9
:103D1800B1B90223416080F8FC31FFF75BFE204611
:103D280000F027F9E4E70029F9D0012103234160D5
:103D380080F8FC312046FFF742FE0228EFD1C7E7A2
:103D480041680129EBD0C9B2FFF744FE29786160C8
:103D5800F0E7CA88012ABBD190F8FC31022B03D0C6
:103D6800032BB5D1011D64E70146002341F8083F44
:103D78005FE790F8FC31023B012BA9D80123C3600F
:103D8800D0F804320BB10323C360022204F10C0102
:103D98004FE74B88012BABD1C4F80432D4F8143266
:103DA80029469B6820469847B9E790F8FC31023BC2
:103DB800012B8DD84B88012B9AD10023ECE700BF4B
:103DC8007D01002038B590F8FC310446032B0D46E0
:103DD8000DD10B79012B0AD8D0F814329B6898477B
:103DE800EB8813B9204600F0C4F8002038BDFFF76F
:103DF800E3FEFAE770B50A788E8802F06002202A9E
:103E080004460D46F3B205D1D0F814329B689847A2
:103E1800002070BD4A78012A1CD02AD3032AF7D182
:103E280090F8FC21022A40D0032A02D0FFF7C4FEF2
:103E3800EEE74A8822B95E0602D0194601F0F6FF7D
:103E4800D4F8143229469B6820469847204600F04B
:103E580090F8DDE790F8FC21022A26D0032AE5D164
:103E68004A88002AD4D15906F0D0194601F0ECFF4F
:103E7800E6E790F8FC21022A17D0032AD6D103F0EE
:103E88007F0516F0800F00EB0515194614BF143591
:103E980005F5827501F0E6FF68B101232B60022267
:103EA8002946204600F039F8B2E75A06B0D019463C
:103EB80001F0BCFFACE72860F1E70B7803704B78A2
:103EC8004370CA788B7803EB022343804A790B79D5
:103ED80003EB02238380CA798B7903EB0223C38027
:103EE800704730B588B105462B1A15F8014BDBB27F
:103EF800002CF9D15B00023313800B7003234B7045
:103F08000223013810F8015F05B930BD5A1CCD54A1
:103F1800D2B20233DBB28C54F4E71346022210B556
:103F2800C0F8F42183610A46C361002101F0B8FF9B
:103F3800002010BD08B513460A46002101F0B0FF65
:103F4800002008BD1346032210B5C0F8F421C0F8BC
:103F580008310A46C0F80C31002101F0AFFF0020FB
:103F680010BD08B513460A46002101F0A7FF00203E
:103F780008BD08B50423C0F8F43100231A461946D1
:103F880001F08EFF002008BD08B50523C0F8F43104
:103F980000231A46194601F091FF002008BD08B514
:103FA80000F0A8FF012803D0BDE8084000F0E6B8FB
:103FB80008BD00F1080343604FF0FF32C36003619E
:103FC80000238260036070470023036170474368E1
:103FD8009A684B608A609A685160996003680861C2
:103FE8000133036070470A6830B5531C0AD103696E
:103FF8005A684A6091608B605960036808610133B0
:10400800036030BD00F108035C682568AA42EFD35D
:104018002346F9E74168826803698A6082685160CB
:104028005968884208BF5A6000220261186801383E
:104038001860704706480068006880F3088862B610
:1040480061B6BFF34F8FBFF36F8F00DF00BF000073
:1040580008ED00E04FF0807300E90A00034B40F8D8
:10406800202C40F80C3C4038704700BFC540000881
:10407800074B19680868B0E8F00F80F30988BFF3A8
:104088006F8F4FF0000080F311884EF00D0E7047CF
:10409800A82900204FF08052034B1A60BFF34F8FBE
:1040A800BFF36F8F704700BF04ED00E0EFF311809E
:1040B8004FF0500181F311887047002008B5054B77
:1040C8001B68013302D0FFF7F1FFFEE7FFF7EEFFB1
:1040D800FEE700BF1001002008B5FFF7E7FF094A17
:1040E800136801331360BFF34F8FBFF36F8F012B3A
:1040F80007D1054B1B6813F0FF0F02D0FFF7D6FF5F
:10410800FEE708BD1001002004ED00E080F31188EF
:104118007047000008B5074B186810B9FFF7C6FFCD
:10412800FEE70138186018B9BDE80840FFF7EEBF90
:1041380008BD00BF10010020EFF30980BFF36F8FA7
:104148000D4B1A6820E9F00F10602DE908404FF078
:10415800500080F3118800F031FE4FF0000080F32A
:104168001188BDE8084019680868B0E8F00F80F3C6
:104178000988BFF36F8F7047A829002008B5FFF79B
:1041880095FF00F057FC18B14FF08052034B1A60AE
:104198000020BDE80840FFF7B9BF00BF04ED00E00C
:1041A800F0B53E4B85B01B683D4A9842019088BFE8
:1041B800019313683B4F23F0010313603A4D019BB1
:1041C8003C682968013B01FB0344384E33689C4234
:1041D80088BFE41A72B600F073FE314B344A58B9FE
:1041E80039681160196841F0010119602B68013BB9
:1041F800136062B605B0F0BD00211460294A04A816
:1042080011601A6842F001021A60019B40F8043DEF
:1042180000F0EAFE039B23B1BFF34F8F30BFBFF31B
:104228006F8F01A800F0E1FE1D4A136823F0010119
:10423800116062B613F4803F1A4922D00B682A68CD
:1042480031681344013B1B1B8B4201D39A4200D2B5
:10425800531E174A1360019C013C0022114B1A603F
:10426800FFF73AFF0E4A2046136843F00103136034
:1042780000F0CCFB2B680E4A013B1360FFF74AFFA6
:10428800B8E72B68019A09685A43521AB2FBF3F44B
:1042980004FB03339B1A064A1360DEE78C010020F7
:1042A80010E000E018E000E0880100208401002010
:1042B80014E000E00D4B0E491A684FF47A73B2FB14
:1042C800F3F30B606FF07F41B1FBF3F10948B2FBE8
:1042D800F2F201602D21B1FBF2F20749013B0A60BD
:1042E800064A13600722064B1A6070471401002023
:1042F800880100208C0100208401002014E000E0E7
:1043080010E000E013B51F4B00211A78D2B20192D9
:10431800FF221A701B781C4ADBB28DF803309DF817
:10432800033003F0500313700722184B1A609DF8EE
:104338000300541E00061CD401B11A601A68120248
:1043480002F4E0621A60019B0E4ADBB21370104B54
:104358001A6842F470021A601A6842F070421A60D1
:10436800FFF7A8FF00220B4B1A60FFF763FEFFF769
:10437800A5FE9DF8032001215200D2B28DF803203A
:104388002246D4E700E400E07E01002080010020FE
:1043980020ED00E01001002008B5EFF305830F2B96
:1043A80008D90A4A9B5C0A4A12789A4202D9FFF74E
:1043B8007DFEFEE7074B084A1B68126803F4E063BA
:1043C800934202D9FFF772FEFEE708BDF0E300E072
:1043D8007E0100200CED00E08001002010B50F4B9D
:1043E8001A68824218D35C681919884201BF41686B
:1043F800184609195960446801198A4207D10849C1
:1044080009688A421FBF51681268091941609842B9
:10441800026018BF186010BD1346E1E7A02900200C
:10442800900100202DE9F041044600F0E1FA3A49F4
:104438003A4D0B680BBB3A4A56071DBFD01D20F0FA
:10444800070002F520534FF420531CBF02461B1AE5
:1044580000201344334E083B23F00703706032609A
:10446800586018600B60981A13602F4B50601860E2
:104478002E4B18604FF000432B602F68274216D14F
:10448800002C3CD004F1080358071CBF23F0070395
:10449800083363B1254A16689046B34207D8214AC3
:1044A80015686868834204D809688D4207D10024DA
:1044B80025E02C68002CF7D02A462546F1E7296824
:1044C80014681160C21A102A04F1080409D9E818FE
:1044D800410702D0FFF7EAFDFEE742606B60FFF795
:1044E8007DFF002310496A680868B61A864247EAC1
:1044F8000207C8F8006038BF0E606F602B6000F0DC
:104508002DFB0CB900F06FFD630702D0FFF7CEFD5D
:10451800FEE72046BDE8F0819001002094290020A4
:1045280094010020A02900209C290020982900201F
:1045380010B5044610B3124A50F8043C12681342EE
:1045480002D1FFF7B3FDFEE750F8081C11B1FFF7E1
:10455800ADFDFEE723EA020340F8043C00F048FA08
:10456800084A54F8043C1168A4F108000B4413608D
:10457800FFF734FFBDE8104000F0F0BA10BD00BFEF
:10458800942900209829002038B51546026C044665
:104598005AB905680DB1002003E0406800F0BAFC84
:1045A8006560A36B0133A36338BD65B9806801F00A
:1045B80015FDA368226C13446268A3609342EAD392
:1045C8002368A360E7E7C06801F008FD236CE26890
:1045D8005B4221681A448A42E2603EBF62689B18C7
:1045E800E360022DD7D1A36B002BD4D0A36B013B82
:1045F800A363D0E72DE9F0410E4690461D460446D8
:1046080010B9FFF753FDFEE7D9B9036CCBB1FFF73B
:104618004DFDFEE704F1240000F014FC60B3B8F18E
:10462800000F29D00124C8F800403846FFF76EFD76
:104638002046BDE8F081A36C0133A3641CE000248C
:10464800F3E7022D02D1E36B012B17D1FFF7A4FE8C
:10465800FFF72CFDA26BE36B07469A4201D3022DAC
:10466800EDD12A4631462046FFF78EFFA36C013371
:10467800E1D1636A002BCDD10124D6E7FFF716FDFF
:10468800FEE70000074B1B68D86A48B9064B1B6851
:10469800012B06D8054B1868054B1B68C01A7047D4
:1046A80000207047A8290020B4290020842A00206F
:1046B800CC2A0020064A13681968064B19B94FF02E
:1046C800FF321A6070471268D268D2685268F8E7F9
:1046D800AC290020842A00200E4B10B51A68044625
:1046E80050600D4A1268904207D2BDE810400B4A4C
:1046F800106819680431FFF776BC094A1068196810
:104708000431FFF770FC074B1A68944238BF1C60ED
:1047180010BD00BFA8290020CC2A0020B029002005
:10472800AC290020842A00202DE9F84F0A9F8846EA
:1047380016469B46DDF82C900C9D824610B9FFF773
:10474800B5FCFEE7062F02D9FFF7B0FCFEE735B946
:104758009000FFF767FE0546002800F09780642068
:10476800FFF760FE0446002800F08D80B600324650
:104778000563A521284601F03CFC236B043E1E443A
:1047880026F0070608F1FF3304F1340208F10F0898
:10479800597802F8011B13F8011F09B14345F7D1F5
:1047A800002504F10408404684F84350E762E764B2
:1047B8002565FFF709FC04F11800FFF705FCC7F1B0
:1047C8000703E5652461A36164626565A56584F8EE
:1047D80060505A4651463046FFF73CFC2060B9F11C
:1047E800000F01D0C9F80040FFF776FC2E4B2F4D83
:1047F8001A68DFF8E09001321A602E68002E48D15E
:104808002C601B68012B1DD109EB06001436FFF73D
:10481800D0FB8C2EF8D1DFF8C0A0254E5046FFF70C
:10482800C8FB3046FFF7C5FB2248FFF7C2FB22480A
:10483800FFF7BFFB2148FFF7BCFB214BC3F800A0E3
:10484800204B1E60204A2149136808680133136011
:104858006364E26A012404FA02F3034314200B6040
:1048680000FB02904146FFF7B2FBFFF753FC184BE1
:104878001B682BB12B68DB6A9F4201D9FFF70AFC42
:104888002046BDE8F88F2846FFF752FE4FF0FF3468
:10489800F6E70F4B1B68002BD4D12B68DB6A9F42CD
:1048A80028BF2C60CEE700BF442A0020A82900209A
:1048B800702A00208C2A0020B82A0020A42A002070
:1048C800AC290020B0290020502A0020582A0020B6
:1048D800A02A0020B42900205C2A002038B504460C
:1048E800FFF7FAFB0CB9214B1C68251D2846FFF77A
:1048F80091FB60B91421E06A1D4B41435B5833B901
:1049080001221C4982400B6823EA02030B60A36A58
:104918001BB104F11800FFF77DFB29461648FFF785
:1049280056FB164A136801331360154A136801339E
:104938001360FFF7EFFB134B1B68ABB10B4B1B6806
:104948009C4209D1104B1B6813B1FFF7AFFBFEE780
:10495800BDE83840FFF79EBBFFF7BEFBFFF7AAFE96
:10496800BDE83840FFF7D6BB38BD00BFA8290020F6
:10497800B4290020582A0020B82A0020542A0020F0
:10498800502A0020A02A00204C2A002030B50024FC
:1049980085B00394029401940094234680220F4921
:1049A8000F48FFF7C1FE0128054610D1FFF77EFB2F
:1049B8004FF0FF320B4B1A600B4B1D600B4B1C600A
:1049C80000F00CFB05B0BDE83040FFF79BBC10B908
:1049D800FFF76CFBFEE705B030BD00BF206500089F
:1049E800254D0008842A0020A02A0020CC2A002077
:1049F800024A136801331360704700BF4C2A002035
:104A0800014B1868704700BFCC2A002008B5074B37
:104A180007491A68096802448A4202D9FFF746FB27
:104A2800FEE71A681044186008BD00BFCC2A0020B1
:104A3800842A00202DE9F84F3D4B1B68002B4ED1EE
:104A48003C4B1A6801321A601D688DB93A4B1A68D6
:104A5800126812B1FFF72AFBFEE7384A1968106896
:104A680018601160364A136801331360FFF722FE9D
:104A7800344C4FF0000B2368334F9D4240D3DFF88E
:104A8800B880DFF8D490D8F80020126882BB4FF0C5
:104A9800FF32226034E006F1040A5046FFF7BAFA02
:104AA800B16A19B106F11800FFF7B4FA01224FF004
:104AB800140EF06AD9F8003002FA00F11943234BBA
:104AC800C9F800100EFB00305146FFF780FA38682D
:104AD800F16AC26A914228BF4FF0010BD3E71C4A22
:104AE8004FF0000B13680133136000F07BFA16E0F7
:104AF800D8F80020D268D66871688D42CBD2216080
:104B08003A68124BD16A14224A439A58022A104A28
:104B180028BF4FF0010B12680AB900F063FA0D4A7A
:104B28001268002A18BF4FF0010B5846BDE8F88FED
:104B38004C2A0020CC2A0020AC290020B0290020D3
:104B4800882A0020842A0020A8290020B4290020CF
:104B5800482A0020D02A0020582A00202DE9F843AE
:104B68002B4C236813B9FFF7A1FAFEE7FFF7B4FA55
:104B78002368013B236023682BB10024FFF7CAFA9E
:104B88002046BDE8F883234B1B68002BF5D0224D47
:104B9800224E1FE0EB680127DC6804F1040904F1E8
:104BA8001800FFF737FA4846FFF734FA1420E26A8C
:104BB800316807FA02F30B4300FB02804946336071
:104BC800FFF705FA164BE26A1B68DB6A9A4203D3C1
:104BD800144B1F60DFF854802B68002BDAD1124C7D
:104BE80023688BB90F4B1C68012CC6D1FFF752FA0A
:104BF800C4E7FFF71FFF00B12E602368013B236065
:104C08002368002BF5D1EDE7064D0126F8E700BF34
:104C18004C2A0020442A00208C2A0020582A0020F0
:104C2800A8290020D02A0020482A0020B4290020E2
:104C380038B510B9FFF73AFAFEE711B9FFF736FAB7
:104C4800FEE71A4B1D6815B1FFF730FAFEE7FFF7CC
:104C5800CFFE174B02681B688C18934220D2A242E1
:104C680003D9A3422CBF0025012504608DB1114D45
:104C780028680430FFF7CEF940B92A680E49D06A8F
:104C880001220B68824023EA02030B602046FFF7EB
:104C980023FDFFF763FF38B9BDE83840FFF7FAB9DD
:104CA800A242DED90125E0E738BD00BF4C2A00202A
:104CB800CC2A0020A8290020582A002038B518B985
:104CC800BDE83840FFF7E6B9104B1B6813B1FFF792
:104CD800EDF9FEE7FFF78CFE0D4B0E4D1C68044402
:104CE80028680430FFF796F940B92A680A49D06A5B
:104CF80001220B68824023EA02030B602046FFF77B
:104D0800EBFCFFF72BFF0028DAD038BD4C2A002037
:104D1800CC2A0020A8290020582A002070B5214E4E
:104D2800214C2368B3B9214B1B68012B01D9FFF72C
:104D3800B1F900F056F9FFF7A5FC0128F0D9FFF703
:104D480057FE1B4B1A681B4B1B689A4220D2FFF771
:104D5800ADF9FEE7FFF74CFE3568FFF7FFFE002DC3
:104D6800DFD0FFF7B9F9F368DD68281DFFF752F9BE
:104D7800114A1368013B13602368013B2360FFF766
:104D8800C9F9286BFFF7D4FB2846FFF7D1FBC8E722
:104D9800FFF778FC012801D9FFF702FAFFF7DEFEDA
:104DA800BEE700BFB82A0020542A0020B4290020FA
:104DB800842A0020CC2A0020442A00201B4B10B54E
:104DC8001A681B4B12B101221A6010BD1A6000F05C
:104DD80006F9184A1468A04205D9174B19688B6D53
:104DE8001B1B03448B65154B10601B68B3FA83F3D8
:104DF8001422DBB2C3F11F035A4311498C58881897
:104E080014B9FFF753F9FEE74468083264680A44A6
:104E1800944208BF6268446008BF4260142202FBE3
:104E280003135B68DA68044BCEE700BF4C2A002006
:104E3800D02A0020402A0020A8290020582A002033
:104E4800B429002038B5C368DC6814B9FFF72EF917
:104E5800FEE704F118052846FFF7DCF8124B1B683B
:104E6800F3B9251D2846FFF7D5F801230F49E26A53
:104E780008689340034314200B6029460C4B00FB41
:104E88000230FFF7A4F80B4BE26A1B68DB6A9A4210
:104E980085BF0120084B00201860FFF70BFC38BDC8
:104EA80029460648EDE700BF4C2A0020582A002072
:104EB800B4290020A8290020D02A00208C2A00200C
:104EC800084B186860B9084B1B6853B9074B084A68
:104ED8001B681068013B984214BF012002207047EC
:104EE800002070478C2A0020D02A0020442A002065
:104EF800A42A0020054B1B6833B1054B1B68002B07
:104F08000CBF02200020704701207047A02A002013
:104F18004C2A0020F8B5044608B90020F8BD1C4BFF
:104F28001B68984202D0FFF7C1F8FEE7036D13B97A
:104F3800FFF7BCF8FEE7C16AC26C013B914203650A
:104F4800EBD0002BE9D1051D2846FFF763F8114E79
:104F5800114A50B91421E76A794373582BB90120D3
:104F68001368B84023EA00031360E36CC3F1070138
:104F7800E362A1610124116804FA03F00843106098
:104F88001420294600FB0360FFF721F82046F8BDEE
:104F9800A8290020B4290020582A0020002373B52E
:104FA8000C4D01932A681AB9019B6BB902B070BD08
:104FB80004464618B442F7D02146002301AA2868BF
:104FC800FFF718FB0134F5E74FF08052024B1A60E7
:104FD800ECE700BFD42A002004ED00E07047002071
:104FE80070477047704770477047704708B50C485E
:104FF8000C4BDFF834E04FF4804280E8084000238F
:1050080002618360C36043618361C3610362FCF72B
:10501800F7FD18B1BDE8084000F03EBB08BD00BF71
:105028007C2D002000580040A08601001FB5FF24F9
:10503800019200930A460294014601230648FCF7B0
:10504800C1FE20B100F028FB002004B010BD0A20EA
:10505800FFF734FE0120F8E77C2D002030B587B03B
:1050680006AB03F8012D0125FF228DE828000292E6
:105078002B460A4601460748FCF72CFE044620B199
:1050880000F00AFB284607B030BD0A20FFF716FEDD
:105098002046F8E77C2D002008B5F0222321D420F3
:1050A800FFF7DCFF40B9CF222021D420FFF7D6FF3D
:1050B800B0FA80F0400908BD002008BD07B50122FC
:1050C8000DF107030F21D420FFF7B0FF28B19DF899
:1050D8000730D42B04D1FFF7DFFF03B05DF804FBE2
:1050E8000020FAE713B504466B460622A821D4200F
:1050F800FFF79CFF9DF800209DF8013043EA02234A
:1051080023809DF802209DF8033043EA0223638040
:105118009DF804209DF8053043EA02235B42A380F2
:1051280002B010BD13B5012204460DF10703262174
:10513800D420FFF77BFF18B101209DF807302380AA
:1051480002B010BD13460122FFF770BF37B5054600
:105158000DF1070220213320FFF7F4FF044620B9A0
:1051680000F09AFA204603B030BD9DF807202021B0
:1051780002F00F0242EA0512D2B233208DF807205E
:10518800FFF76CFF003018BF0120ECE713B50446A9
:105198000DF1070200213D20FFF7D4FF78B19DF8FB
:1051A8000720002122F07F0242EA8402D2B23D2089
:1051B8008DF80720FFF752FF003018BF012002B01A
:1051C80010BD13B504460DF1070200213D20FFF77D
:1051D800B9FF78B19DF80720002102F07F0242EA6A
:1051E800C412D2B23D208DF80720FFF737FF0030F8
:1051F80018BF012002B010BD13B504460DF1070217
:1052080001213D20FFF79EFF50B16201D2B201217A
:105218003D208DF80720FFF721FF003018BF01203F
:1052280002B010BD13B504460DF1070202213D205E
:10523800FFF788FF48B1224602213D208DF807403C
:10524800FFF70CFF003018BF012002B010BD37B5C2
:10525800054601AB0222B1213D20FFF7E7FE0446D7
:1052680020B900F019FA204603B030BD9DF804209B
:105278009DF80530012043EA022310221BB293FB5C
:10528800F2F32B80F0E7000013B504460DF1060297
:1052980020213320FFF756FF08B9002040E00DF128
:1052A800070223213320FFF74DFF0028F5D09DF892
:1052B800062012F0F00F06D1214B1B7823F00F03C4
:1052C80013438DF80630012C2CD010D3022CE4D1D6
:1052D8009DF8063023F008038DF806309DF8073056
:1052E80023F0080343F008038DF8073007E09DF822
:1052F8000630134A137003F00F038DF806309DF83B
:10530800062020213320FFF7A9FE0028C5D09DF8EC
:10531800072023213320FFF7A1FE003018BF01200A
:1053280002B010BD9DF8063023F0080343F00803CF
:105338008DF806309DF8073023F00803D4E700BF46
:10534800D82A002013B504460DF107022021332086
:10535800FFF7F8FE78B19DF8072004F0070422F063
:1053680007022243202133208DF80720FFF776FE1D
:10537800003018BF012002B010BD13B504460DF16E
:10538800070223213320FFF7DDFE78B19DF80720BF
:10539800232122F0300242EA0412D2B233208DF8DF
:1053A8000720FFF75BFE003018BF012002B010BDD8
:1053B800042807B52CD10DF107022E213320FFF761
:1053C800C1FE18B9002003B05DF804FB9DF8072062
:1053D8002E2102F01F0233208DF80720FFF73EFE32
:1053E8000028EFD00DF1070224213320FFF7AAFE91
:1053F8000028E7D024219DF8072002F0BF028DF88D
:1054080007203320FFF72AFE0028DBD00120DAE747
:1054180028BB0DF1070224213320FFF793FE002853
:10542800D0D09DF80720242122F0400242F040020B
:1054380033208DF80720FFF711FE0028C2D00DF1A8
:1054480007022E213320FFF77DFE0028BAD09DF8F1
:1054580007202E2102F01F028DF80720D1E701282E
:105468002DD10DF1070224213320FFF76BFE002810
:10547800A8D09DF80720242122F0400242F04002E3
:1054880033208DF80720FFF7E9FD00289AD00DF1A9
:1054980007022E213320FFF755FE002892D09DF8F1
:1054A800072002F01F0242F040022E2133208DF81F
:1054B8000720FFF7D3FD003018BF012083E702283B
:1054C80027D10DF1070224213320FFF73BFE0028E6
:1054D8003FF478AF9DF80720242122F0400242F0E3
:1054E800400233208DF80720FFF7B8FD00283FF46D
:1054F80069AF0DF107022E213320FFF723FE0028A4
:105508003FF460AF9DF8072002F01F0242F08002CE
:10551800CBE703287FF47AAF0DF10702242133206B
:10552800FFF710FE00283FF44DAF9DF80720242117
:1055380022F0400242F0400233208DF80720FFF7A6
:105548008DFD00283FF43EAF0DF107022E213320D8
:10555800FFF7F8FD00283FF435AF9DF8072002F06B
:105568001F0242F0C002A0E708B50720FFF7EEFDD2
:105578000520FFF70BFE0220FFF786FE0020FFF74D
:1055880051FE0220FFF7F9FE0120FFF735FE042047
:10559800FFF70EFF0720FFF7D5FEBDE80840012002
:1055A800FFF70FBE13B5062204466B46A821332029
:1055B800FFF73CFD10219DF801209DF8003043EADB
:1055C80002231BB293FBF1F35B4263809DF8022038
:1055D8009DF8033042EA032212B292FBF1F29DF8E1
:1055E800043022809DF8052043EA02231BB293FB76
:1055F800F1F3A38002B010BD2DE9F041DFF86C8013
:10560800184F194E8EB0D8F80000FBF731FD05B2DF
:10561800386CFBF72DFD04B23068FBF729FD122327
:105628008DF8043010238DF807308DF80A301323D5
:1056380000B28DF80B0000128DF805508DF8084067
:105648008DF80C002D1224120A2101A88DF806509D
:105658008DF809408DF80D3000F00CFB9620FFF70F
:105668002DFBD0E7FC2D0020E02A0020E82A0020AE
:105678001FB5002302220393029301930092044969
:1056880080220448FFF750F8FFF780F9FEE700BFD3
:10569800326500084D57000808B5074C074E084DFD
:1056A80000230133A342FCD14FF400512846346053
:1056B800FCF7F7F8F4E700BF40420F00DC2A0020AF
:1056C800001001404FF4803330B597B001220D939C
:1056D8000021022414934FF4E0130CA80C920E91AD
:1056E800109213941593FDF73FF808B1FFF7D4FF14
:1056F8000F254FF4806303900590214601A801957A
:1057080002940493FDF7D2FA0028EFD110230B90EE
:1057180006A80693FDF79CFB04460028E6D1FDF792
:1057280079FB4FF47A73B0FBF3F0FBF77FFD0420AD
:10573800FBF792FD224629464FF0FF30FBF736FD76
:1057480017B030BDF0B564258FB03F4CFBF7EEFCC9
:105758003E4B01271D60FFF7B5FFE369284643F478
:105768008003E361E369022603F480030593059B44
:10577800FFF7A4FA2369284643F480032361FFF75F
:105788009DFA2369284623F480032361FFF796FADC
:105798004FF47A70FFF792FAFDF73EFAA3690022F8
:1057A80043F01003A361A3694FF4C04103F0100351
:1057B8000693069BA36943F02003A361A36903F042
:1057C80020030793079BA36943F00403A361A3691C
:1057D80003F004030893089BA36943F00803A3613B
:1057E800A369A4F5803403F0080309932046099BB4
:1057F800FCF752F84FF4C043204600240AA90A9344
:105808000B970D96FBF75CFFFFF7F0FB00F0D8F95C
:1058180000F026F8234603940294019400974FF46D
:1058280080720B490B48FEF77FFF23462A460A4938
:1058380003940294019400960848FEF775FF2046E9
:10584800FFF74CF80FB0F0BD00100240F82D002013
:1058580025650008795800082C65000801560008DD
:1058680008B5FFF72BFCBDE80840FFF77DBE000038
:105878002DE9FF470FF2C819D9E90089FFF7C0F8E9
:10588800794C019002A8FFF72DFCBDF90850DFF80C
:10589800FCA12846FBF748FA2146FBF799FACAF813
:1058A8000C00BDF90A00FBF73FFA2146FBF790FA16
:1058B800CAF81000BDF90C00FBF736FA2146FBF7D1
:1058C80087FA002DBEBFC5F30E05C5F50045ADF836
:1058D8000850BDF80830B8BF012203F109039BB294
:1058E800A8BF0022122B9CBF0023ADF80830CAF8CD
:1058F8001400BDF90800002A6AD1FBF715FA214601
:10590800FBF766FA594BCAF83C0019784A1C322949
:10591800D2B262D01A7002A8FFF744FEBDF908009F
:10592800FBF702FAFAF7E0FD0F460646BDF90C0050
:10593800FBF7FAF9FAF7D8FD3B46324600F061FB6F
:1059480041A3D3E9002301F100473946FAF720FEC5
:105958000022474BFAF76AFCFBF7DCF8454B464D4B
:10596800197828644A1C3229D2B250D01A70434997
:10597800DAF83C00FBF72CFA414F06460146386836
:10598800FBF71EF9DFF808A13860DAF80010304696
:10599800FBF716F9FAF7A8FD2DA3D3E90023FAF7C8
:1059A800F7FD06460F46286C3649FBF711FAFAF759
:1059B8009BFD02460B4630463946FAF737FCFBF7A3
:1059C800A9F80F21CAF8000001A8FFF731F959E733
:1059D800FBF7AAF900F1004091E700220DF102005F
:1059E8001A70FFF79FFB002895D0BDF90200FAF75F
:1059F80069FD19A3D3E90023FAF7CAFD42464B46CD
:105A0800FAF714FCFBF75EF8AAF8080083E700220F
:105A18000DF102001A70FFF71AFC0028A7D0BDF993
:105A28000200FAF74FFD0EA3D3E90023FAF7B0FD01
:105A38000022154BFAF7FAFBFBF744F8288196E7A2
:105A4800CDCCCCCCCCC4744000000020DCA54C40AC
:105A5800000000CCCCCCEC3F7B14AE47E17A1FC0F1
:105A6800FCA9F1D24D62F23F295C8F3DEC2A00205F
:105A780000805640E42A0020FC2D00208FC2753C8F
:105A8800E02A0020CDCCCC3D00406540442E0020CB
:105A9800E82A00201D4B07B59A69032042F001024D
:105AA8009A619B6903F001030193019BFBF76CFB6F
:105AB80000226FF00B001146FBF778FB00226FF015
:105AC8000A001146FBF772FB00226FF0090011462D
