:020000040800F2
:100000000000012025020008B5A90008C1A90008C8
:10001000C7A90008CDA90008D3A900080000000066
:100020000000000000000000000000006D810008DA
:10003000D9A900080000000021830008E5A90008F4
:100040006D0200086D0200086D0200086D020008D4
:100050006D0200086D0200086D0200086D020008C4
:100060006D0200086D0200086D020008F5A9000885
:100070006D0200086D0200086D0200086D020008A4
:100080006D0200086D0200086D0200086D02000894
:1000900009AA00086D0200086D0200086D02000840
:1000A0006D0200086D0200086D0200086D02000874
:1000B0006D0200086D0200086D0200086D02000864
:1000C0006D0200086D0200086D0200086D02000854
:1000D0006D0200086D0200086D0200086D02000844
:1000E0006D0200086D0200086D0200086D02000834
:1000F0006D0200086D0200086D0200086D02000824
:100100006D0200086D0200086D0200086D02000813
:100110006D0200086D0200086D0200086D02000803
:100120006D0200086D0200086D0200086D020008F3
:1001300000000000000000000000000000000000BF
:1001400000000000000000000000000000000000AF
:10015000000000000000000000000000000000009F
:10016000000000000000000000000000000000008F
:10017000000000000000000000000000000000007F
:10018000000000000000000000000000000000006F
:10019000000000000000000000000000000000005F
:1001A000000000000000000000000000000000004F
:1001B000000000000000000000000000000000003F
:1001C000000000000000000000000000000000002F
:1001D000000000000000000000000000000000001F
:0401E0005FF8E0F1F3
:1001E40010B5054C237833B9044B13B10448AFF36D
:1001F40000800123237010BD5C010020000000007A
:1002040048B4000808B5034B1BB103490348AFF3D6
:10021400008008BD000000006001002048B4000810
:10022400002103E00B4B5B58435004310A480B4B4D
:1002340042189A42F6D30A4A02E0002342F8043BE9
:10024400084B9A42F9D30AF0E7FB0BF0C3F80AF023
:1002540003F970471CB50008000000205C01002071
:100264005C010020CC360020FEE7000080B500AF22
:10027400084A084B1B6843F010031360032000F086
:100284000FFE0F2000F008F80AF094FA0023184635
:1002940080BD00BF0020024080B582B000AF78600E
:1002A40004F06EFC0246094BA3FB02239B0918468B
:1002B40000F02BFE002279684FF0FF3000F0FBFDC8
:1002C400002318460837BD4680BD00BFD34D6210D9
:1002D40080B400AF044B1B680133034A136000BFB2
:1002E400BD4680BC704700BF7801002080B400AFD9
:1002F400024B1B681846BD4680BC7047780100203D
:1003040080B584B000AF78600023FB60FFF7EEFF98
:10031400F86000BFFFF7EAFF0246FB68D21A7B6869
:100324009A42F7D300BF1037BD4680BD80B58CB06C
:1003340000AF7860002387F82F300023BB620023CE
:100344003B6200237B627B68002B01D10123F3E035
:100354007B689B68002B7B689B6A002B09D17B68B8
:100364000022DA627B68002283F8242078680AF08D
:1003740063FA786800F092FB034687F82F307B68B5
:100384009B6A03F01003002B40F0CB8097F82F30CA
:10039400002B40F0C6807B689B6A23F4885323F0CB
:1003A400020343F002027B689A627B685A687B68A6
:1003B4001B6863498B420AD17B68DB69B3F5402F24
:1003C40002D07B68DB6904E04FF4002301E07B6822
:1003D400DB691A437B68D9680223FB61FB6993FAE2
:1003E400A3F3BB61BB69B3FA83F301FA03F31343C9
:1003F4003A6A13433B627B689B68B3F5807F03D002
:100404007B689B68012B02D14FF4807300E00023CA
:10041400BA6A1343BB627B685B69012B24D17B6896
:10042400DB68002B14D17B689B695A1E4FF4604330
:100434007B617B6993FAA3F33B613B69B3FA83F372
:1004440002FA03F343F40063BA6A1343BB620BE09A
:100454007B689B6A43F020027B689A627B68DB6A54
:1004640043F001027B68DA627B681B687A68126871
:10047400526822F46941BA6A0A435A607B681A686E
:100484007B681B6899682F4B0B40396A0B43936058
:100494007B689B68B3F5807F03D07B689B68012BE6
:1004A4000FD17B681B695A1E4FF47003FB60FB6815
:1004B40093FAA3F3BB60BB68B3FA83F302FA03F3C2
:1004C4007B627B681B687A681268D26A22F47001C6
:1004D4007A6A0A43DA627B681B689A681A4B13408B
:1004E4003A6A93420BD17B680022DA627B689B6A8A
:1004F40023F0030343F001027B689A621AE07B68ED
:100504009B6A23F0120343F010027B689A627B68B3
:10051400DB6A43F001027B68DA62012387F82F303B
:1005240008E07B689B6A43F010027B689A620123AF
:1005340087F82F3097F82F3018463037BD4680BDE6
:10054400003C0140FDF7E1FFFE0E1FFF80B586B0C1
:1005540000AFF860B9607A600023FB75FB681B6824
:10056400644A934204D0FB681B68634A934206D1F1
:10057400604B5B6803F47023002B40F0B380FB688E
:1005840093F82430012B01D10223AEE0FB68012251
:1005940083F82420F86800F02FFA0346FB75FB7DEE
:1005A400002B40F09A80FB689B6A23F4706323F06D
:1005B400010343F48072FB689A62FB681B684E4A2D
:1005C400934205D14B4B5B6803F47023002B15D188
:1005D400FB689B6A23F48012FB689A62FB681B68C1
:1005E4005B6803F48063002B26D0FB689B6A23F4CA
:1005F400405343F48052FB689A621DE0FB689B6A97
:1006040043F48012FB689A62FB681B68394A934280
:1006140004D0FB681B68384A93420DD1354B5B68A4
:1006240003F48063002B07D0FB689B6A23F44053D8
:1006340043F48052FB689A62FB689B6A03F480531C
:10064400002B06D0FB68DB6A23F00602FB68DA6243
:1006540002E0FB680022DA62FB68002283F82420AF
:10066400FB681B6A254A9A62FB681B6A244ADA62A1
:10067400FB681B6A234A1A63FB681B686FF002025B
:100684001A60FB681B68FA681268926842F4807208
:100694009A60FB68186AFB681B684C331946BA6891
:1006A4007B6800F0A5FCFB681B689B6803F460236F
:1006B400B3F5602F08D1FB681B68FA68126892686A
:1006C40042F4A0029A600FE0FB681B68FA681268A3
:1006D400926842F480129A6006E0FB68002283F874
:1006E400242001E00123FB75FB7D18461837BD4625
:1006F40080BD00BF0024014000280140150B000804
:10070400910B0008AD0B000880B483B000AF786093
:1007140000BF0C37BD4680BC704780B483B000AFC7
:10072400786000BF0C37BD4680BC704780B483B08E
:1007340000AF786000BF0C37BD4680BC7047000036
:1007440090B498B000AF78603960002387F85F30C8
:100754000023BB607B6893F82430012B01D1022372
:100764003EE17B68012283F824203B685B68062B0A
:1007740030D87B681B687A681268516B4FF47872C2
:100784003A653A6D92FAA2F2FA64FA6CB2FA82F21B
:1007940010463A685268013A02FB00F21F2000FA40
:1007A40002F2D24311403A6810684FF47872BA6585
:1007B400BA6D92FAA2F27A657A6DB2FA82F21446AE
:1007C4003A685268013A02FB04F200FA02F20A4360
:1007D4005A6364E03B685B680C2B30D87B681B6809
:1007E4007A681268116B4FF478723A643A6C92FA30
:1007F400A2F2FA63FA6BB2FA82F210463A685268CD
:10080400073A02FB00F21F2000FA02F2D243114021
:100814003A6810684FF47872BA64BA6C92FAA2F229
:100824007A647A6CB2FA82F214463A685268073AE9
:1008340002FB04F200FA02F20A431A632FE07B6817
:100844001B687A681268D16A4FF478723A633A6B1B
:1008540092FAA2F2FA62FA6AB2FA82F210463A689C
:1008640052680D3A02FB00F21F2000FA02F2D24352
:1008740011403A6810684FF47872BA63BA6B92FA0E
:10088400A2F27A637A6BB2FA82F214463A68526838
:100894000D3A02FB04F200FA02F20A43DA623B6800
:1008A4001B68092B2ED97B681B687A681268D1688B
:1008B40038223A623A6A92FAA2F2FA61FA69B2FA10
:1008C40082F210463A6812680A3A02FB00F20720E4
:1008D40000FA02F2D24311403A6890683822BA62B0
:1008E400BA6A92FAA2F27A627A6AB2FA82F2144686
:1008F4003A6812680A3A02FB04F200FA02F20A4366
:10090400DA602BE07B681B687A6812681169382208
:100914003A613A6992FAA2F2FA60FA68B2FA82F299
:1009240010463A68126802FB00F2072000FA02F24D
:10093400D24311403A6890683822BA61BA6992FA8F
:10094400A2F27A617A69B2FA82F214463A681268BB
:1009540002FB04F200FA02F20A431A613B681B68C4
:10096400102B03D03B681B68112B33D17B681B68A9
:100974001E4A934225D17B681B689B6803F40003DD
:10098400002B27D17B681B687A681268926842F44E
:1009940000029A603B681B68102B1BD1144B1B6828
:1009A400144AA2FB03239A0C13469B0013445B00D6
:1009B400BB6002E0BB68013BBB60BB68002BF9D1A4
:1009C40008E07B689B6A43F020027B689A620123FB
:1009D40087F85F307B68002283F8242097F85F3023
:1009E40018466037BD4690BC704700BF00240140E4
:1009F4001401002083DE1B4380B584B000AF78600F
:100A04000023FB600023BB607B681B689B6803F0CA
:100A14000103012B39D07B681B687A6812689268DD
:100A240042F001029A601B4B1B681B4AA2FB032382
:100A34009B0CBB6002E0BB68013BBB60BB68002B46
:100A4400F9D1FFF753FCF86018E0FFF74FFC0246BA
:100A5400FB68D31A022B11D97B689B6A43F01002FE
:100A64007B689A627B68DB6A43F001027B68DA6226
:100A74007B68002283F82420012307E07B681B683D
:100A84009B6803F00103012BDFD1002318461037C4
:100A9400BD4680BD1401002083DE1B4380B584B0B5
:100AA40000AF78600023FB607B681B689B6803F0E1
:100AB4000103012B27D17B681B687A68126892684E
:100AC40022F001029A60FFF711FCF86014E0FFF7CE
:100AD4000DFC0246FB68D31A022B0DD97B689B6A76
:100AE40043F010027B689A627B68DB6A43F0010280
:100AF4007B68DA62012307E07B681B689B6803F06C
:100B04000103012BE3D0002318461037BD4680BDF6
:100B140080B584B000AF78607B685B6AFB60FB687B
:100B24009B6A03F05003002B27D1FB689B6A43F4B4
:100B34000072FB689A62FB681B689B6803F460237D
:100B4400B3F5602F15D1FB68DB68002B11D1FB686E
:100B54009B6A23F48072FB689A62FB689B6A03F4C5
:100B64008053002B05D1FB689B6A43F00102FB68AC
:100B74009A62F868FFF7C8FD04E0FB681B6A1B6B08
:100B84007868984700BF1037BD4680BD80B584B0F3
:100B940000AF78607B685B6AFB60F868FFF7BDFDB7
:100BA40000BF1037BD4680BD80B584B000AF78600B
:100BB4007B685B6AFB60FB689B6A43F04002FB68EE
:100BC4009A62FB68DB6A43F00402FB68DA62F86845
:100BD400FFF7ACFD00BF1037BD4680BD90B587B0B0
:100BE40000AF78600023FB750023FB607B6893F8FB
:100BF4002430012B01D1022386E07B68012283F893
:100C040024207868FFF74AFF0346FB75FB7D002B21
:100C140075D17B689B6A23F4885323F0020343F065
:100C240002027B689A623A4B1C68022004F0DAF8EC
:100C34000346B4FBF3F35B00FB6002E0FB68013B9B
:100C4400FB60FB68002BF9D17868FFF7D5FE7B6861
:100C54001B687A681268926842F008029A60FFF78B
:100C640045FB386114E0FFF741FB02463B69D31AA8
:100C74000A2B0DD97B689B6A23F0120343F0100200
:100C84007B689A627B68002283F8242001233BE07E
:100C94007B681B689B6803F00803002BE3D17B6827
:100CA4001B687A681268926842F004029A60FFF73F
:100CB4001DFB386114E0FFF719FB02463B69D31AA8
:100CC4000A2B0DD97B689B6A23F0120343F01002B0
:100CD4007B689A627B68002283F82420012313E056
:100CE4007B681B689B6803F00403002BE3D17B68DB
:100CF4009B6A23F0030343F001027B689A627B68DA
:100D0400002283F82420FB7D18461C37BD4690BD85
:100D14001401002080B485B000AF78607B6803F0D4
:100D24000703FB600C4BDB68BB60BA684FF6FF033C
:100D34001340BB60FB681A02BB68134343F0BF63F4
:100D440043F40033BB60044ABB68D36000BF14376C
:100D5400BD4680BC704700BF00ED00E080B400AF2A
:100D6400044BDB681B0A03F007031846BD4680BC2E
:100D7400704700BF00ED00E080B483B000AF0346CD
:100D8400FB71084997F907305B09FA7902F01F02F1
:100D9400012000FA02F241F8232000BF0C37BD46BF
:100DA40080BC704700E100E080B483B000AF03462C
:100DB4003960FB7197F90730002B0BDA0D49FB7989
:100DC40003F00F03043B3A68D2B21201D2B20B44CF
:100DD4001A7609E0084997F907303A68D2B2120145
:100DE400D2B20B4483F8002300BF0C37BD4680BC4D
:100DF400704700BF00ED00E000E100E080B489B07E
:100E040000AFF860B9607A60FB6803F00703FB6128
:100E1400FB69C3F10703042B28BF0423BB61FB69EF
:100E24000433062B02D9FB69033B00E000237B61FA
:100E34000122BB6902FA03F35A1EBB681A407B699C
:100E44009A4001217B6901FA03F3591E7B680B4028
:100E5400134318462437BD4680BC704780B582B022
:100E640000AF78607B68013BB3F1807F01D301233D
:100E74000FE00A4A7B68013B53600F214FF0FF30BB
:100E8400FFF792FF054B00229A60044B07221A6079
:100E9400002318460837BD4680BD00BF10E000E0BF
:100EA40080B582B000AF78607868FFF733FF00BF89
:100EB4000837BD4680BD80B586B000AF0346B96033
:100EC4007A60FB7300237B61FFF748FF78617A68DF
:100ED400B9687869FFF792FF024697F90F30114617
:100EE4001846FFF761FF00BF1837BD4680BD80B5C7
:100EF40082B000AF0346FB7197F907301846FFF73D
:100F04003BFF00BF0837BD4680BD80B582B000AF4F
:100F140078607868FFF7A2FF034618460837BD4695
:100F240080BD000080B483B000AF78607B68042B80
:100F340006D1094A084B1B6843F00403136005E01B
:100F4400054A054B1B6823F00403136000BF0C37EC
:100F5400BD4680BC704700BF10E000E080B485B09F
:100F640000AF78600023FB607B68002B01D1012374
:100F740039E07B6893F82130002B03D17B68002291
:100F840083F820207B68022283F821207B681B6879
:100F94001B68FB60FB6823F47F5323F03003FB6082
:100FA4007B685A687B689B681A437B68DB681A43D2
:100FB4007B681B691A437B685B691A437B689B697E
:100FC4001A437B68DB691343FA681343FB607B684D
:100FD4001B68FA681A607B6800225A637B680122E6
:100FE40083F82120002318461437BD4680BC70477F
:100FF40080B584B000AFF860B9607A603B60FB688C
:1010040093F82030012B01D1022336E0FB68012242
:1010140083F82020FB68022283F82120FB681B68E8
:10102400FA681268126822F001021A603B687A6852
:10103400B968F86800F008FEFB681B68FA68126873
:10104400126842F002021A60FB681B68FA681268B0
:10105400126842F004021A60FB681B68FA6812689E
:10106400126842F008021A60FB681B68FA6812688A
:10107400126842F001021A60002318461037BD4678
:1010840080BD000080B582B000AF78607B681B68CB
:101094001A469F4B9A4269D99E4B1A687B681B6813
:1010A40019469D4B994259D07B681B6819469B4B46
:1010B400994251D07B681B681946994B994248D094
:1010C4007B681B681946974B99423FD07B681B6825
:1010D4001946954B994236D07B681B681946934B49
:1010E40099422DD07B681B681946894B994224D0BC
:1010F4007B681B6819468E4B99421CD07B681B6821
:1011040019468C4B994214D07B681B6819468A4B4C
:1011140099420BD07B681B681946884B994202D1CF
:101124004FF400431BE04FF4002318E04FF4006336
:1011340015E0802313E0082311E04FF000630EE074
:101144004FF400030BE04FF4002308E04FF4004396
:1011540005E04FF4006302E0802300E0082313401D
:10116400002B14BF01230023DBB268E0744B1A6820
:101174007B681B681946684B994259D07B681B6889
:101184001946664B994251D07B681B681946644BDB
:10119400994248D07B681B681946624B99423FD0FC
:1011A4007B681B681946604B994236D07B681B6884
:1011B40019465E4B99422DD07B681B681946544BE7
:1011C400994224D07B681B681946594B99421CD01C
:1011D4007B681B681946574B994214D07B681B687F
:1011E4001946554B99420BD07B681B681946534BE3
:1011F400994202D14FF400431BE04FF4002318E05E
:101204004FF4006315E0802313E0082311E04FF04E
:1012140000630EE04FF400030BE04FF4002308E0FA
:101224004FF4004305E04FF4006302E0802300E044
:1012340008231340002B14BF01230023DBB2002B2F
:1012440000F00D817B681B681B6803F00803082B02
:1012540040F005817B681B687A681268126822F086
:1012640008021A607B681B681A46294B9A427DD98A
:10127400284A7B681B681946274B994273D07B68C0
:101284001B681946254B99426BD07B681B6819462D
:10129400234B994262D07B681B681946214B9942C3
:1012A40059D07B681B6819461F4B994250D07B6804
:1012B4001B6819461D4B994247D07B681B68194629
:1012C400134B99423ED07B681B681946184B9942D0
:1012D4001CD07B681B681946164B994214D07B6856
:1012E4001B681946144B99420BD07B681B6819463E
:1012F400124B994202D14FF4004335E04FF40023DE
:1013040032E04FF400632FE080232DE008232BE02C
:101314008000024000040240080002401C00024019
:101324003000024044000240580002406C00024079
:10133400080402401C0402403004024044040240F9
:10134400000002404FF000630EE04FF400030BE096
:101354004FF4002308E04FF4004305E04FF400632A
:1013640002E0802300E00823536062E09E4A7B6829
:101374001B6819469D4B994259D07B681B681946D6
:101384009B4B994251D07B681B681946994B9942F3
:1013940048D07B681B681946974B99423FD07B68BD
:1013A4001B681946954B994236D07B681B681946D1
:1013B400934B99422DD07B681B681946914B9942F7
:1013C40024D07B681B6819468F4B99421CD07B68DC
:1013D4001B6819468D4B994214D07B681B681946CB
:1013E4008B4B99420BD07B681B681946894B9942F9
:1013F40002D14FF400431BE04FF4002318E04FF4F4
:10140400006315E0802313E0082311E04FF000632C
:101414000EE04FF400030BE04FF4002308E04FF418
:10142400004305E04FF4006302E0802300E008235A
:1014340053607B685B6B43F001027B685A637B6893
:10144400042283F821207B68002283F820207B6813
:101454001B6B002B03D07B681B6B786898477B68F9
:101464001B681A46674B9A4269D96B4B1A687B68AA
:101474001B6819465D4B994259D07B681B68194615
:101484005B4B994251D07B681B681946594B994272
:1014940048D07B681B681946574B99423FD07B68FC
:1014A4001B681946554B994236D07B681B68194610
:1014B400534B99422DD07B681B681946514B994276
:1014C40024D07B681B6819464F4B99421CD07B681B
:1014D4001B6819464D4B994214D07B681B6819460A
:1014E4004B4B99420BD07B681B681946494B994278
:1014F40002D14FF480431BE04FF4802318E04FF4F3
:10150400806315E0402313E0042311E04FF080636F
:101514000EE04FF480030BE04FF4802308E04FF417
:10152400804305E04FF4806302E0402300E004239D
:101534001340002B14BF01230023DBB283E02A4BAA
:101544001A687B681B681946284B994274D07B68DB
:101554001B681946264B99426CD07B681B68194658
:10156400244B994263D07B681B681946224B9942ED
:101574005AD07B681B681946204B994251D07B682E
:101584001B6819461E4B994248D07B681B68194654
:101594001C4B994224D07B681B6819461A4B99420C
:1015A4001CD07B681B681946184B994214D07B6881
:1015B4001B681946164B99420BD07B681B68194669
:1015C400144B994202D14FF4804336E04FF4802308
:1015D40033E04FF4806330E040232EE004232CE01A
:1015E4004FF0806329E000BF000002400800024081
:1015F4001C000240300002404400024058000240F7
:101604006C00024080000240080402401C040240B6
:101614003004024044040240000402404FF48003BA
:101624000BE04FF4802308E04FF4804305E04FF4CF
:10163400806302E0402300E004231340002B14BF26
:1016440001230023DBB2002B00F0F0807B681B68D1
:101654001B6803F00403042B40F0E8807B681B68DC
:101664001B6803F02003002B07D17B681B687A6892
:101674001268126822F004021A607B681B681A461A
:101684009F4B9A4263D99F4A7B681B6819469E4BBD
:10169400994259D07B681B6819469C4B994251D09A
:1016A4007B681B6819469A4B994248D07B681B6833
:1016B4001946984B99423FD07B681B681946964B54
:1016C400994236D07B681B681946944B99422DD0B9
:1016D4007B681B6819468A4B994224D07B681B6837
:1016E40019468F4B99421CD07B681B6819468D4B59
:1016F400994214D07B681B6819468B4B99420BD0D6
:101704007B681B681946894B994202D14FF4804388
:101714001BE04FF4802318E04FF4806315E040236E
:1017240013E0042311E04FF080630EE04FF48003D4
:101734000BE04FF4802308E04FF4804305E04FF4BE
:10174400806302E0402300E00423536062E0784AAF
:101754007B681B6819466C4B994259D07B681B689F
:1017640019466A4B994251D07B681B681946684BED
:10177400994248D07B681B681946664B99423FD012
:101784007B681B681946644B994236D07B681B689A
:101794001946624B99422DD07B681B681946584BF9
:1017A400994224D07B681B6819465D4B99421CD032
:1017B4007B681B6819465B4B994214D07B681B6895
:1017C4001946594B99420BD07B681B681946574BF5
:1017D400994202D14FF480431BE04FF4802318E078
:1017E4004FF4806315E0402313E0042311E04FF02D
:1017F40080630EE04FF480030BE04FF4802308E095
:101804004FF4804305E04FF4806302E0402300E09E
:10181400042353607B68112283F821207B68DB6AF0
:10182400002B03D07B68DB6A786898477B681B6869
:101834001A46334B9A4240F28580324B1A687B68D1
:101844001B681946304B994274D07B681B68194653
:101854002E4B994251D07B681B6819462C4B9942F8
:1018640048D07B681B6819462A4B99423FD07B6855
:101874001B681946284B994236D07B681B68194669
:10188400264B99422DD07B681B6819461C4B994204
:1018940024D07B681B681946214B99421CD07B6875
:1018A4001B6819461F4B994214D07B681B68194664
:1018B4001D4B99420BD07B681B6819461B4B994200
:1018C40002D14FF4005336E04FF4003333E04FF4C9
:1018D400007330E020232EE002232CE04FF000734D
:1018E40029E04FF4001326E04FF4003323E04FF4D3
:1018F400005320E04FF400731DE020231BE000BFE1
:101904008000024000040240080002401C00024023
:101914003000024044000240580002406C00024083
:10192400080402401C040240300402404404024003
:101934000000024002231340002B14BF01230023A4
:10194400DBB268E09F4B1A687B681B6819469E4BA4
:10195400994259D07B681B6819469C4B994251D0D7
:101964007B681B6819469A4B994248D07B681B6870
:101974001946984B99423FD07B681B681946964B91
:10198400994236D07B681B681946944B99422DD0F6
:101994007B681B681946924B994224D07B681B686C
:1019A4001946904B99421CD07B681B6819468E4B94
:1019B400994214D07B681B6819468C4B99420BD012
:1019C4007B681B6819468A4B994202D14FF4005335
:1019D4001BE04FF4003318E04FF4007315E02023AC
:1019E40013E0022311E04FF000730EE04FF40013F4
:1019F4000BE04FF4003308E04FF4005305E04FF4DC
:101A0400007302E0202300E002231340002B14BFE4
:101A140001230023DBB2002B00F012817B681B68DA
:101A24001B6803F00203022B40F00A817B681B68E9
:101A34001B6803F02003002B07D17B681B687A68BE
:101A44001268126822F002021A607B681B681A4648
:101A5400634B9A4263D9674A7B681B6819465A4BA1
:101A6400994259D07B681B681946584B994251D00A
:101A74007B681B681946564B994248D07B681B68A3
:101A84001946544B99423FD07B681B681946524B08
:101A9400994236D07B681B681946504B99422DD029
:101AA4007B681B6819464E4B994224D07B681B689F
:101AB40019464C4B99421CD07B681B6819464A4B0B
:101AC400994214D07B681B681946484B99420BD045
:101AD4007B681B681946464B994202D14FF4005368
:101AE4001BE04FF4003318E04FF4007315E020239B
:101AF40013E0022311E04FF000730EE04FF40013E3
:101B04000BE04FF4003308E04FF4005305E04FF4CA
:101B1400007302E0202300E0022353607CE0294AA2
:101B24007B681B681946284B994273D07B681B68F5
:101B34001946264B99426BD07B681B681946244B87
:101B4400994262D07B681B681946224B994259D04E
:101B54007B681B681946204B994250D07B681B68F0
:101B640019461E4B994247D07B681B6819461C4B8B
:101B7400994224D07B681B6819461A4B99421CD0A1
:101B84007B681B681946184B994214D07B681B6804
:101B94001946164B99420BD07B681B681946144BA7
:101BA400994202D14FF4005335E04FF4003332E050
:101BB4004FF400732FE020232DE002232BE04FF09D
:101BC400007328E000000240080002401C000240AC
:101BD4003000024044000240580002406C000240C1
:101BE40080000240080402401C0402403004024009
:101BF40044040240000402404FF400130BE04FF48D
:101C0400003308E04FF4005305E04FF4007302E0A2
:101C1400202300E0022353607B685A6B7B685A637D
:101C24007B68012283F821207B68002283F820202E
:101C34007B689B6A002B03D07B689B6A7868984713
:101C440000BF0837BD4680BD80B485B000AFF860E2
:101C5400B9607A603B60FB681B683A685A60FB684D
:101C64005B68102B08D1FB681B687A689A60FB6874
:101C74001B68BA68DA6007E0FB681B68BA689A6098
:101C8400FB681B687A68DA6000BF1437BD4680BC05
:101C94007047000080B48BB000AF786039600023D7
:101CA400FB610023BB6100237B6100233B620023B3
:101CB4003B6100237B6233E101227B6A02FA03F376
:101CC400FB613B681A68FB691340BB61BA69FB6935
:101CD4009A4240F022813B685B68122B34D0122B6D
:101CE4000DD8022B2BD0022B04D8002B31D0012B82
:101CF4001CD048E0032B43D0112B1BD043E08D4A6A
:101D0400934226D08B4A934206D88B4A934220D0E2
:101D14008A4A93421DD036E0894A934219D0894AAF
:101D2400934216D0884A934213D02CE03B68DB6878
:101D34003B6228E03B68DB6804333B6223E03B689A
:101D4400DB6808333B621EE03B68DB680C333B62B4
:101D540019E03B689B68002B02D104233B6212E02C
:101D64003B689B68012B05D108233B627B68FA69B9
:101D74001A6108E008233B627B68FA695A6102E051
:101D840000233B6200BFBB69FF2B01D87B6801E0E5
:101D94007B680433FB60BB69FF2B02D87B6A9B0022
:101DA40002E07B6A083B9B003B61FB681A680F21D9
:101DB4003B6901FA03F3DB431A40396A3B6901FAD0
:101DC40003F31A43FB681A603B685B6803F08053B3
:101DD400002B00F0A2805D4A5C4B9B6943F0010339
:101DE40093615A4B9B6903F00103BB60BB68584A7B
:101DF4007B6A9B08023352F823307B617B6A03F0D1
:101E040003039B000F2202FA03F3DB437A691340B6
:101E14007B617B684F4A93421FD07B684E4A934252
:101E240019D07B684D4A934213D07B684C4A934245
:101E34000DD07B684B4A934207D07B684A4A934251
:101E440001D105230AE0062308E0042306E0032366
:101E540004E0022302E0012300E000237A6A02F096
:101E64000302920093407A6913437B6138497B6A89
:101E74009B0802337A6941F823203B685B6803F4CA
:101E84008033002B06D03949384B1A68BB69134399
:101E94000B6006E03549354B1A68BB69DB431340D8
:101EA4000B603B685B6803F40033002B06D02F49BA
:101EB4002E4B5A68BB6913434B6006E02B492B4BEE
:101EC4005A68BB69DB4313404B603B685B6803F4AF
:101ED4008013002B06D02549244B9A68BB69134311
:101EE4008B6006E02149214B9A68BB69DB431340B0
:101EF4008B603B685B6803F40013002B06D01B491E
:101F04001A4BDA68BB691343CB6006E01749174BD9
:101F1400DA68BB69DB431340CB607B6A01337B62C5
:101F24007B6A0F2B7FF6C8AE00BF2C37BD4680BC42
:101F3400704700BF000021100000111000001210B3
:101F44000000311000003210000022100010024086
:101F54000000014000080140000C01400010014055
:101F64000014014000180140001C0140000401401D
:101F740080B483B000AF78600B467B8013467B70DF
:101F84007B78002B03D07A887B681A6103E07B8816
:101F94001A047B681A6100BF0C37BD4680BC7047C9
:101FA40080B483B000AF78600B467B807B68DA68CE
:101FB4007B885A407B68DA6000BF0C37BD4680BC22
:101FC4007047000090B585B000AF78600023FB60D7
:101FD4000023BB607B68002B01D101236EE07B688A
:101FE40093F83530DBB2002B06D17B68002283F8EE
:101FF4003420786808F082FC7B68242283F835203A
:102004007B681B687A681268126822F001021A6001
:1020140002F0C0FDB860BB682A4AA2FB03239B0CF4
:10202400FB607B681B68FA685A607B681A687B6887
:102034005B6825498B4202D8FB68013309E0FB68E1
:102044004FF4967101FB03F32049A1FB03139B0991
:10205400013313627B681C68B968786800F0FEFB82
:102064000346E3617B681B687A68D1697A68126AFF
:102074000A431A607B681B687A6811697A68D268B7
:102084000A439A607B681B687A6851697A68926926
:102094000A43DA607B681B687A681268126842F047
:1020A40001021A607B6800229A637B68202283F80D
:1020B40035207B68002283F8362000231846143725
:1020C400BD4690BD83DE1B43A0860100D34D621044
:1020D40080B586B002AFF860084611461A4603463A
:1020E4007B810B463B811346FB80FB6893F83530BC
:1020F400DBB2202B40F0B380BB69002B02D0BB8B3A
:10210400002B01D10123ABE042F2107301225649A6
:10211400F86800F0F1FB0346002B01D002239FE096
:10212400FB6893F83430012B01D1022398E0FB685B
:10213400012283F83420FB681B68FA68126812686D
:1021440022F400621A60FB68212283F83520FB68C0
:10215400402283F83620FB6800229A63F8883A8983
:1021640079893B6A00930346F86800F015FA034640
:10217400002B44D0FB689B6B042B05D1FB68002229
:1021840083F8342001236BE0FB68002283F83420B9
:10219400032365E0396AF86800F0A6FC0346002BC7
:1021A4000FD0FB689B6B042B09D1FB681B68FA6892
:1021B4001268126842F400721A60012350E003238B
:1021C4004EE0FB681A68BB69591CB9611B7813613E
:1021D400BB8B013BBB83FB681B685B6903F0040397
:1021E400042B0CD1BB8B002B09D0FB681A68BB698C
:1021F400591CB9611B781361BB8B013BBB83BB8B3F
:10220400002BC7D1396AF86800F06EFC0346002B36
:102214000FD0FB689B6B042B09D1FB681B68FA6821
:102224001268126842F400721A60012318E0032352
:1022340016E0FB681B68FA681268126842F40072C0
:102244001A60FB68202283F83520FB68002283F89B
:102254003620FB68002283F83420002300E00223A8
:1022640018461037BD4680BD0200100080B58AB004
:1022740002AFF860084611461A4603467B810B46B6
:102284003B811346FB80FB6893F83530DBB2202B8F
:1022940040F07C81BB6A002B02D0BB8D002B01D1A6
:1022A400012374E142F2107301229749F86800F0A7
:1022B40023FB0346002B01D0022368E1FB6893F85B
:1022C4003430012B01D1022361E1FB68012283F840
:1022D4003420FB681B68FA681268126822F40062F2
:1022E4001A60FB68222283F83520FB68402283F8B9
:1022F4003620FB6800229A63F8883A8979893B6B17
:1023040000930346F86800F0D3F90346002B0FD07E
:10231400FB689B6B042B05D1FB68002283F83420F7
:10232400012334E1FB68002283F8342003232EE1E7
:10233400BB8D012B1BD1FB681B68FA6812681268FD
:1023440022F480621A6072B6FB681B685B69FB61E9
:10235400FB681B689B69FB61FB69FB681B68FA6887
:102364001268126842F400721A6062B6FCE0BB8D17
:10237400022B1BD1FB681B68FA681268126842F4CE
:1023840000621A6072B6FB681B685B69BB61FB681C
:102394001B689B69BB61BB69FB681B68FA681268B0
:1023A400126822F480621A6062B6DDE0FB681B6882
:1023B400FA681268126842F480621A60FB681B684B
:1023C4005B697B61FB681B689B697B617B69CBE014
:1023D400BB8D032B00F29C80BB8D012B1AD1396B72
:1023E400F86800F0BDFB0346002B07D0FB689B6B2D
:1023F400202B01D10323CAE00123C8E0BB6A5A1C85
:10240400BA62FA6812681269D2B21A70BB8D013BC3
:10241400BB85A9E0BB8D022B2BD13B6B00223B4932
:10242400F86800F069FA0346002B01D00323AEE0FC
:1024340072B6FB681B68FA681268126842F400728C
:102444001A60BB6A5A1CBA62FA6812681269D2B27C
:102454001A70BB8D013BBB8562B6BB6A5A1CBA625B
:10246400FA6812681269D2B21A70BB8D013BBB853F
:102474007AE03B6B00222549F86800F03DFA0346F8
:10248400002B01D0032382E0FB681B68FA68126802
:10249400126822F480621A6072B6BB6A5A1CBA626D
:1024A400FA6812681269D2B21A70BB8D013BBB85FF
:1024B4003B6B00221549F86800F01EFA0346002B16
:1024C40001D0032363E0FB681B68FA681268126892
:1024D40042F400721A60BB6A5A1CBA62FA68126843
:1024E4001269D2B21A70BB8D013BBB8562B6BB6A5E
:1024F4005A1CBA62FA6812681269D2B21A70BB8D99
:10250400013BBB8530E000BF020010000400010065
:10251400396BF86800F024FB0346002B07D0FB68F6
:102524009B6B202B01D1032331E001232FE0BB6AF5
:102534005A1CBA62FA6812681269D2B21A70BB8D58
:10254400013BBB85FB681B685B6903F00403042B38
:102554000AD1BB6A5A1CBA62FA6812681269D2B20A
:102564001A70BB8D013BBB85BB8D002B7FF430AF54
:10257400FB68202283F83520FB68002283F836208C
:10258400FB68002283F83420002300E0022318466D
:102594002037BD4680BD00BF80B586B000AFF8606F
:1025A400084611461A4603467B810B463B81134677
:1025B400FB80FB681B68FA681268126842F4807238
:1025C4001A603B6A00224FF00111F86800F094F998
:1025D4000346002B01D0032363E0FB681B687A8960
:1025E400D2B202F0FE021A613A6A3049F86800F089
:1025F4000CFA0346002B07D0FB689B6B042B01D11C
:1026040001234EE003234CE0FB681B685B697B619C
:10261400FB681B689B697B617B69396AF86800F019
:1026240063FA0346002B0FD0FB689B6B042B09D184
:10263400FB681B68FA681268126842F400721A6038
:1026440001232EE003232CE0FB88012B05D1FB683A
:102654001B683A89D2B21A6122E0FB681B683A8986
:10266400120A92B2D2B21A61396AF86800F03CFADE
:102674000346002B0FD0FB689B6B042B09D1FB682E
:102684001B68FA681268126842F400721A60012327
:1026940007E0032305E0FB681B683A89D2B21A619C
:1026A400002318461837BD4680BD00BF0200010054
:1026B40080B586B000AFF860084611461A46034656
:1026C4007B810B463B811346FB80FB681B68FA68E1
:1026D4001268126842F480621A60FB681B68FA6828
:1026E4001268126842F480721A603B6A00224FF04A
:1026F4000111F86800F000F90346002B01D0032310
:10270400A6E0FB681B687A89D2B202F0FE021A6165
:102714003A6A5149F86800F078F90346002B07D06B
:10272400FB689B6B042B01D1012391E003238FE011
:10273400FB681B685B697B61FB681B689B697B6149
:102744007B69396AF86800F0CFF90346002B0FD093
:10275400FB689B6B042B09D1FB681B68FA68126841
:10276400126842F400721A60012371E003236FE0DF
:10277400FB88012B05D1FB681B683A89D2B21A6128
:1027840022E0FB681B683A89120A92B2D2B21A613B
:10279400396AF86800F0A8F90346002B0FD0FB68EB
:1027A4009B6B042B09D1FB681B68FA6812681268DA
:1027B40042F400721A6001234AE0032348E0FB68F4
:1027C4001B683A89D2B21A61396AF86800F08CF948
:1027D4000346002B0FD0FB689B6B042B09D1FB68CD
:1027E4001B68FA681268126842F400721A600123C6
:1027F4002EE003232CE0FB681B68FA681268126859
:1028040042F480721A603B6A00224FF00111F868AA
:1028140000F072F80346002B01D0032318E0FB6894
:102824001B687A89D2B242F00102D2B21A613A6AC2
:102834000949F86800F0E9F80346002B07D0FB6863
:102844009B6B042B01D1012302E0032300E000234E
:1028540018461837BD4680BD0200010080B485B01B
:1028640000AF786039600023FB607B685B68214AB5
:1028740093420FD87B685B685B003A68B2FBF3F362
:10288400FB60FB68C3F30B03032B01D804232BE089
:10289400FB6829E04FF40043FB607B689B68002BD6
:1028A4000BD17B685A6813465B0013443A68B2FB49
:1028B400F3F3FA681343FB600EE07B685A6813462F
:1028C4009B0013449A0013443A68B2FBF3F2FB688A
:1028D400134343F48043FB60FB68C3F30B03002BF7
:1028E40001D1012300E0FB6818461437BD4680BCC3
:1028F400704700BFA086010080B586B000AFF860C5
:10290400B9603B601346FB7100237B61FDF7EEFC6D
:102914007861FB79002B53D118E03B68B3F1FF3F9A
:1029240014D03B68002B07D0FDF7E0FC02467B691E
:10293400D21A3B689A4209D9FB68202283F83520D1
:10294400FB68002283F8342003235AE0BB681B0C85
:10295400DBB2012B0CD1FB681B685B69DA43BB68F3
:1029640013409BB2002B14BF01230023DBB20BE006
:10297400FB681B689B69DA43BB6813409BB2002B5E
:1029840014BF01230023DBB2002BC6D138E03B681F
:10299400B3F1FF3F14D03B68002B07D0FDF7A6FC32
:1029A40002467B69D21A3B689A4209D9FB68202205
:1029B40083F83520FB68002283F83420032320E0C9
:1029C400BB681B0CDBB2012B0CD1FB681B685B6979
:1029D400DA43BB6813409BB2002B0CBF01230023D6
:1029E400DBB20BE0FB681B689B69DA43BB681340EE
:1029F4009BB2002B0CBF01230023DBB2002BC6D1FA
:102A0400002318461837BD4680BD80B586B000AF98
:102A1400F860B9607A6000237B61FDF767FC786138
:102A24003DE0FB681B685B6903F48063B3F5806F6A
:102A34001CD1FB681B68FA681268126842F40072C1
:102A44001A60FB681B68FA681268526922F4806293
:102A54005A61FB6804229A63FB68202283F83520BC
:102A6400FB68002283F83420012339E07B68B3F14A
:102A7400FF3F14D07B68002B07D0FDF737FC0246DC
:102A84007B69D21A7B689A4209D9FB68202283F8B1
:102A94003520FB68002283F83420032320E0BB6840
:102AA4001B0CDBB2012B0CD1FB681B685B69DA439E
:102AB400BB6813409BB2002B14BF01230023DBB27D
:102AC4000BE0FB681B689B69DA43BB6813409BB24D
:102AD400002B14BF01230023DBB2002BA1D1002360
:102AE40018461837BD4680BD80B584B000AF786005
:102AF4003960FDF7FBFBF86026E0786800F07EF8AB
:102B04000346002B01D0012326E03B68B3F1FF3FCD
:102B14001AD03B68002B07D0FDF7E8FB0246FB68A0
:102B2400D21A3B689A420FD97B689B6B43F0200210
:102B34007B689A637B68202283F835207B680022B7
:102B440083F83420032307E07B681B685B6903F088
:102B54008003802BD1D1002318461037BD4680BD99
:102B640080B584B000AF786039600023FB60FDF766
:102B7400BDFBF86036E07B681B685B6903F01003FB
:102B8400102B14D17B681B687A681268526922F092
:102B940010025A617B6800229A637B68202283F8C2
:102BA40035207B68002283F83420012322E03B682F
:102BB400002B07D0FDF79AFB0246FB68D21A3B684C
:102BC4009A420FD97B689B6B43F020027B689A631F
:102BD4007B68202283F835207B68002283F8342028
:102BE400032307E07B681B685B6903F04003402B09
:102BF400C1D1002318461037BD4680BD80B483B0D0
:102C040000AF78607B681B685B6903F48063B3F58D
:102C1400806F14D17B681B687A681268526922F449
:102C240080625A617B6804229A637B68202283F85D
:102C340035207B68002283F83420012300E0002340
:102C440018460C37BD4680BC7047F0B58BB006AF54
:102C540078600023FB607B68002B01D10123CAE06C
:102C64007B6893F8E933DBB2002B06D17B68002242
:102C740083F8E823786807F0CBFF7B68032283F8A6
:102C8400E9237B681B68184602F081FF7B681B6898
:102C94003B607E686D4606F110040FCC0FC52368B7
:102CA4002B60331D0ECB386802F047FF7B681B682E
:102CB4000021184602F087FF0023FB6037E07A68A2
:102CC400FB685B011344293301221A70FB68D9B2F3
:102CD4007A68FB685B01134428330A461A70FB6860
:102CE40099B27A68FB685B01134434330A461A804C
:102CF4007A68FB685B0113442B3300221A707A68EC
:102D0400FB685B011344383300221A607A68FB685D
:102D14005B0113443C3300221A607A68FB68023377
:102D24005B01134400221A60FB680133FB60FB68FB
:102D34000E2BC4D90023FB603CE07A68FB685B017E
:102D4400134403F2092300221A70FB68D9B27A688B
:102D5400FB685B01134403F502730A461A70FB68AF
:102D640099B27A68FB685B01134434330A461A80CB
:102D74007A68FB685B01134403F20B2300221A7088
:102D84007A68FB685B01134403F5067300221A603A
:102D94007A68FB685B01134403F5077300221A6029
:102DA4007A68FB6811335B01134400221A60FB68E4
:102DB4000133FB60FB680E2BBFD97B681B683B604B
:102DC4007E686D4606F110040FCC0FC523682B6096
:102DD400331D0ECB386802F002FF7B68002283F8B3
:102DE40024207B68012283F8E9237B681B6818464A
:102DF40003F0FBFE002318461437BD46F0BD80B532
:102E040082B000AF78607B6893F8E833012B01D17E
:102E1400022316E07B68012283F8E8230121786805
:102E240008F01DFA7B681B68184603F0D4FE7B6823
:102E34001B68184602F091FE7B68002283F8E823A1
:102E4400002318460837BD4680BD80B584B000AF66
:102E540078600023FB607B681B68184603F0CFFE94
:102E6400034603F40043B3F5004F02D1786800F041
:102E7400F3FA7B681B68184603F0C1FE034603F4AB
:102E84008063B3F5806F12D17B681B687A6812681F
:102E9400B2F8442092B222F4806292B2A3F84420A1
:102EA400786807F02AFF0021786800F0CFF87B6883
:102EB4001B68184603F0A3FE034603F48043B3F5EE
:102EC400804F0BD17B681B687A681268B2F8442083
:102ED40092B222F4804292B2A3F844207B681B6829
:102EE400184603F08CFE034603F40053B3F5005F69
:102EF4000BD17B681B687A681268B2F8442092B2DE
:102F040022F4005292B2A3F844207B681B6818464E
:102F140003F075FE034603F48053B3F5805F23D1B9
:102F24007B681B687A681268B2F8402092B222F07B
:102F3400040292B2A3F840204FF43D43FB607B6847
:102F44001B68FA6892B2A3F84020786807F012FF71
:102F54007B681B687A681268B2F8442092B222F443
:102F6400805292B2A3F844207B681B68184603F091
:102F740046FE034603F40063B3F5006F31D17B686A
:102F84001B687A681268B2F8442092B222F4006294
:102F940092B2A3F844207B681B687A681268B2F87E
:102FA400402092B242F0080292B2A3F840207B681B
:102FB4001B687A681268B2F8402092B242F00402A8
:102FC40092B2A3F840207B681B68184603F017FEF2
:102FD400034603F48053B3F5805F02D0786807F0AA
:102FE400AFFE7B681B68184603F009FE034603F432
:102FF4000073B3F5007F0ED17B681B687A68126892
:10300400B2F8442092B222F4007292B2A3F844209F
:10301400786807F064FE7B681B68184603F0EFFDD0
:10302400034603F48073B3F5807F0BD17B681B6880
:103034007A681268B2F8442092B222F4807292B292
:10304400A3F8442000BF1037BD4680BD80B582B0D0
:1030540000AF78600B46FB707B6893F8E833012B74
:1030640001D1022313E07B68012283F8E8237B6803
:10307400FA7883F824207B681B68FA78114618468E
:1030840003F096FD7B68002283F8E82300231846AA
:103094000837BD4680BD80B584B000AF786008466F
:1030A40011461A460346FB700B463B801346BB7021
:1030B4000023FB720023FB6097F90330002B08DA2E
:1030C400FB7803F07F035B0128337A681344FB60C9
:1030D40008E0FB7803F07F035B0103F502737A6871
:1030E4001344FB60FB7803F07F03DAB2FB681A70C9
:1030F40097F90330DBB2DB09DBB21A46FB685A707E
:103104003A88FB681A61FB68BA78DA707B6893F8CE
:10311400E833012B01D102230EE07B68012283F8FE
:10312400E8237B681B68F968184602F079FD7B6820
:10313400002283F8E823FB7A18461037BD4680BD89
:1031440080B584B000AF78600B46FB700023FB6051
:1031540097F90330002B08DAFB7803F07F035B0157
:1031640028337A681344FB6008E0FB7803F07F039C
:103174005B0103F502737A681344FB60FB7803F088
:103184007F03DAB2FB681A7097F90330DBB2DB090C
:10319400DBB21A46FB685A707B6893F8E833012B5C
:1031A40001D102230EE07B68012283F8E8237B68C7
:1031B4001B68F968184602F0FBFF7B68002283F85D
:1031C400E823002318461037BD4680BD80B586B07D
:1031D40000AFF8607A603B600B46FB7200237B61B2
:1031E400FB7A03F07F035B0103F50273FA6813446F
:1031F4007B617B697A685A617B693A689A617B6909
:103204000022DA617B6900225A70FB7A03F07F03A3
:10321400DAB27B691A70FB6893F8E833012B01D1A9
:1032240002231AE0FB68012283F8E823FB7A03F007
:103234007F03002B06D1FB681B687969184603F0ED
:103244003FF905E0FB681B687969184603F038F913
:10325400FB68002283F8E823002318461837BD468C
:1032640080BD80B483B000AF78600B46FB70FB7800
:1032740003F07F037A6811335B01134404331B6842
:103284009BB218460C37BD4680BC704780B586B0EB
:1032940000AFF8607A603B600B46FB7200237B61F1
:1032A400FB7A03F07F035B012833FA6813447B61E4
:1032B4007B697A685A617B693A689A617B69002202
:1032C400DA617B6901225A70FB7A03F07F03DAB278
:1032D4007B691A70FB6893F8E833012B01D1022350
:1032E4001AE0FB68012283F8E823FB7A03F07F03EA
:1032F400002B06D1FB681B687969184603F0E0F8D7
:1033040005E0FB681B687969184603F0D9F8FB6887
:10331400002283F8E823002318461837BD4680BDF1
:1033240080B584B000AF78600B46FB700023FB606F
:1033340097F90330002B08DAFB7803F07F035B0175
:1033440028337A681344FB6006E0FB785B0103F5DD
:1033540002737A681344FB60FB6801229A70FB785D
:1033640003F07F03DAB2FB681A7097F90330DBB21B
:10337400DB09DBB21A46FB685A707B6893F8E833C2
:10338400012B01D102231CE07B68012283F8E8238E
:103394007B681B68F968184603F020FBFB7803F090
:1033A4007F03002B08D17B681A687B6803F57B7365
:1033B4001946104603F034FC7B68002283F8E823A6
:1033C400002318461037BD4680BD80B584B000AFD9
:1033D40078600B46FB700023FB6097F90330002BE9
:1033E40008DAFB7803F07F035B0128337A6813441F
:1033F400FB6006E0FB785B0103F502737A68134413
:10340400FB60FB6800229A70FB7803F07F03DAB25A
:10341400FB681A7097F90330DBB2DB09DBB21A469A
:10342400FB685A707B6893F8E833012B01D10223BF
:103434000EE07B68012283F8E8237B681B68F96847
:10344400184603F02BFB7B68002283F8E823002353
:1034540018461037BD4680BD90B589B000AF78607E
:103464000023BB610023FB830023FB750023FB8146
:103474000023BB8113E3FB899BB2DBB203F00F0390
:10348400FB75FB7D002B40F02E81FB899BB203F082
:103494001003002B4ED17B681A687B681B681B885D
:1034A4009BB223F4E14323F070039BB213807B6847
:1034B4002833BB617B681B68B3F850309BB21A4653
:1034C400BB691B78DB00134402335B001A467B683C
:1034D4001B68134403F580631B689BB2C3F30902A2
:1034E400BB69DA61BB695A69BB69DB691A44BB69A8
:1034F4005A610021786807F0DBFB7B6893F824307D
:10350400DBB2002B00F0CB82BB699B69002B40F03F
:10351400C6827B681B687A6892F82420D2B262F073
:103524007F02D2B292B2A3F84C207B68002283F8C7
:103534002420B4E27B6803F50273BB617B681B68DB
:103544001B889BB2BB81BB899BB203F40063002B35
:1035540032D07B681B68B3F850309BB21A46BB6903
:103564001B78DB00134406335B001A467B681B6838
:10357400134403F580631B689BB2C3F30902BB6960
:10358400DA617B6818687B6803F57B71BB699A888C
:10359400BB69DB699BB203F094FB7B681A687B68A8
:1035A4001B681B8899B240F68F730B409BB2138043
:1035B400786807F053FB72E2BB899BB21BB2002B05
:1035C40080F26D827B681A687B681B681B8899B2DD
:1035D40040F68F730B409BB213807B681B68B3F873
:1035E40050309BB21A46BB691B78DB001344063388
:1035F4005B001A467B681B68134403F580631B68F1
:103604009BB2C3F30902BB69DA61BB69DB69002BB6
:1036140011D07B681868BB695969BB699A88BB6912
:10362400DB699BB203F04DFBBB695A69BB69DB697B
:103634001A44BB695A610021786807F021FB7B6852
:103644001B68B3F850309BB206335B001A467B68A4
:103654001B68134403F580633B61BB691B693E2B04
:1036640018D9BB691B695B09BB83BB691B6903F080
:103674001F03002B02D1BB8B013BBB83BB8B9B0283
:103684009BB26FEA43436FEA53439BB21A463B69CA
:103694001A6012E0BB691B695B08BB83BB691B69C9
:1036A40003F00103002B02D0BB8B0133BB83BB8B24
:1036B4009B029BB21A463B691A607B681B681B8895
:1036C4009BB223F4804323F070039CB284F48053B0
:1036D4009CB284F400539CB27B681A689A4B2343CF
:1036E4009BB21380DBE17B681B681A46FB7D9B0061
:1036F40013441B889BB2BB81BB899BB21BB2002BBA
:1037040080F2D3807B681B681A46FB7D9B001A44B9
:103714007B681B681946FB7D9B000B441B8899B290
:1037240040F68F730B409BB21380FB7D5B0103F566
:1037340002737A681344BB61BB699B7A002B23D163
:103744007B681B68B3F850309BB21A46BB691B7880
:10375400DB00134406335B001A467B681B68134482
:1037640003F580631B689BB2C3F30903FB83FB8BE4
:10377400002B75D07B681868BB695969BB699A8846
:10378400FB8B03F09EFA6BE07B681B681A46BB69EF
:103794001B789B0013441B889BB203F48043002BCB
:1037A40023D07B681B68B3F850309BB21A46BB69C0
:1037B4001B78DB00134402335B001A467B681B68EA
:1037C400134403F580631B689BB2C3F30903FB83B3
:1037D400FB8B002B2CD07B681868BB695969BB69CB
:1037E400DA88FB8B03F06DFA22E07B681B68B3F880
:1037F40050309BB21A46BB691B78DB001344063376
:103804005B001A467B681B68134403F580631B68DE
:103814009BB2C3F30903FB83FB8B002B08D07B68AB
:103824001868BB695969BB691A89FB8B03F049FAAB
:103834007B681B681A46BB691B789B001A447B682B
:103844001B681946BB691B789B000B441B8899B203
:1038540040F60F730B4099B23C4B0B439BB2138061
:10386400BB69DA69FB8B1A44BB69DA61BB695A69C3
:10387400FB8B1A44BB695A61BB699B69002B04D05A
:10388400FA8BBB691B699A4206D2BB691B7819463D
:10389400786807F0F5F908E0BB691978BB695A69DB
:1038A400BB699B697868FFF791FCBB899BB203F005
:1038B4008003002B00F0F380FB7D5B0128337A68E2
:1038C4001344BB617B681B681A46FB7D9B001A444A
:1038D4007B681B681946FB7D9B000B441B889BB2CD
:1038E40023F4E14323F070039BB21380BB699B7AFA
:1038F400002B2DD17B681B68B3F850309BB21A465D
:10390400BB691B78DB00134402335B001A467B68F7
:103914001B68134403F580631B689BB2C3F309025D
:10392400BB69DA61BB69DB69002B00F085807B68C9
:103934001868BB695969BB699A88BB69DB699BB222
:1039440003F079F978E000BF8080FFFFC080FFFFBB
:103954007B681B681A46BB691B789B0013441B8851
:103964009BB203F04003002B27D07B681B68B3F89D
:1039740050309BB21A46BB691B78DB0013440233F8
:103984005B001A467B681B68134403F580631B685D
:103994009BB2C3F30902BB69DA61BB69DB69002B23
:1039A40032D07B681868BB695969BB69DA88BB691E
:1039B400DB699BB203F03FF926E07B681B68B3F830
:1039C40050309BB21A46BB691B78DB0013440633A4
:1039D4005B001A467B681B68134403F580631B680D
:1039E4009BB2C3F30902BB69DA61BB69DB69002BD3
:1039F4000AD07B681868BB695969BB691A89BB69B5
:103A0400DB699BB203F017F97B681B681A46BB6934
:103A14001B789B001A447B681B681946BB691B789A
:103A24009B000B441B8899B240F60F730B4099B26C
:103A3400234B0B439BB213807B681B68B3F8503055
:103A44009BB21A46BB691B78DB00134402335B004C
:103A54001A467B681B68134403F580631B689BB29A
:103A6400C3F30902BB69DA61BB695A69BB69DB69E3
:103A74001A44BB695A61BB699B69002B06D1BB69B7
:103A84001B781946786807F013F908E0BB691978C0
:103A9400BB695A69BB699B697868FFF7F7FB7B6868
:103AA4001B68B3F844309BB21A46FA811BB2002B50
:103AB400FFF6E1AC002318462437BD4690BD00BF95
:103AC40080C0FFFF80B487B000AFF8607B600B4616
:103AD4007B8113463B8100237B617B8903F0800358
:103AE4009BB2002B08D07B8903F07F035B01283352
:103AF400FA6813447B6106E07B895B0103F502737A
:103B0400FA6813447B613B89002B07D17B6900224F
:103B14009A727B689AB27B699A800BE07B69012276
:103B24009A727B689AB27B69DA807B681B0C9AB2C2
:103B34007B691A81002318461C37BD4680BC704738
:103B440080B5E4B000AF3B1D18600023C7F88C318A
:103B54003B1D1B681B6803F00103002B00F0408130
:103B6400B84B5B6803F00C03042B0CD0B54B5B68BB
:103B740003F00C03082B4FD1B24B5B6803F4803382
:103B8400B3F5803F48D14FF40033C7F88831D7F8F4
:103B9400883193FAA3F3C7F88431D7F88431B3FAA0
:103BA40083F3DBB25B09DBB243F00103DBB2012B2D
:103BB40002D1A44B1B680BE04FF40033C7F88031EB
:103BC400D7F8803193FAA3F3C7F87C319D4B5B6A35
:103BD4004FF40032C7F87821D7F8782192FAA2F28C
:103BE400C7F87421D7F87421B2FA82F252B242F0C3
:103BF400200252B2D2B202F01F02D34003F00103FA
:103C0400002B00F0EC803B1D1B685B68002B40F030
:103C1400E680012300F0ABBD3B1D1B685B68B3F578
:103C2400803F06D1874A874B1B6843F48033136077
:103C340030E03B1D1B685B68002B0CD1814A814B33
:103C44001B6823F4803313607E4A7E4B1B6823F485
:103C5400802313601EE03B1D1B685B68B3F5A02F37
:103C64000CD1784A774B1B6843F480231360754A60
:103C7400744B1B6843F4803313600BE0714A714B3F
:103C84001B6823F4803313606E4A6E4B1B6823F465
:103C9400802313603B1D1B685B68002B4FD0FCF72F
:103CA40025FBC7F88C010AE0FCF720FB0246D7F895
:103CB4008C31D31A642B02D9032300F058BD4FF47E
:103CC4000033C7F87031D7F8703193FAA3F3C7F80B
:103CD4006C31D7F86C31B3FA83F3DBB25B09DBB236
:103CE40043F00103DBB2012B02D1564B1B680BE0FE
:103CF4004FF40033C7F86831D7F8683193FAA3F367
:103D0400C7F864314F4B5B6A4FF40032C7F8602147
:103D1400D7F8602192FAA2F2C7F85C21D7F85C21A7
:103D2400B2FA82F252B242F0200252B2D2B202F09D
:103D34001F02D34003F00103002BB5D050E0FCF781
:103D4400D5FAC7F88C010AE0FCF7D0FA0246D7F896
:103D54008C31D31A642B02D9032300F008BD4FF42D
:103D64000033C7F85831D7F8583193FAA3F3C7F89A
:103D74005431D7F85431B3FA83F3DBB25B09DBB2C5
:103D840043F00103DBB2012B02D12E4B1B680BE085
:103D94004FF40033C7F85031D7F8503193FAA3F3F6
:103DA400C7F84C31274B5B6A4FF40032C7F84821FF
:103DB400D7F8482192FAA2F2C7F84421D7F844214F
:103DC400B2FA82F252B242F0200252B2D2B202F0FD
:103DD4001F02D34003F00103002BB5D100E000BF64
:103DE4003B1D1B681B6803F00203002B00F052818B
:103DF400144B5B6803F00C03002B0BD0114B5B6876
:103E040003F00C03082B65D10E4B5B6803F480337D
:103E1400002B5FD10223C7F84031D7F8403193FA21
:103E2400A3F3C7F83C31D7F83C31B3FA83F3DBB2E0
:103E34005B09DBB243F00103DBB2012B04D1014B7C
:103E44001B680CE0001002400223C7F83831D7F891
:103E5400383193FAA3F3C7F83431D14B5B6A0222A9
:103E6400C7F83021D7F8302192FAA2F2C7F82C21F2
:103E7400D7F82C21B2FA82F252B242F0200252B2A6
:103E8400D2B202F01F02D34003F00103002B07D08B
:103E94003B1D1B681B69012B02D0012300F067BC8A
:103EA400BF48BF4B1B6823F0F8023B1D1B685969D0
:103EB400F823C7F82831D7F8283193FAA3F3C7F8C1
:103EC4002431D7F82431B3FA83F301FA03F313430B
:103ED4000360DFE03B1D1B681B69002B7AD00123C4
:103EE400C7F82031D7F8203193FAA3F3C7F81C316F
:103EF400D7F81C31B3FA83F39B0003F1844303F531
:103F040084031A4601231360FCF7F0F9C7F88C0107
:103F14000AE0FCF7EBF90246D7F88C31D31A022BEE
:103F240002D9032300F023BC0223C7F81831D7F8C1
:103F3400183193FAA3F3C7F81431D7F81431B3FA4C
:103F440083F3DBB25B09DBB243F00103DBB2012B89
:103F540002D1934B1B680AE00223C7F81031D7F84B
:103F6400103193FAA3F3C7F80C318D4B5B6A02222C
:103F7400C7F80821D7F8082192FAA2F2C7F8042159
:103F8400D7F80421B2FA82F252B242F0200252B2BD
:103F9400D2B202F01F02D34003F00103002BB8D0C9
:103FA4007F487F4B1B6823F0F8023B1D1B6859694F
:103FB400F823C7F80031D7F8003193FAA3F3C7F810
:103FC400FC30D7F8FC30B3FA83F301FA03F313435C
:103FD40003605FE00123C7F8F830D7F8F83093FAAC
:103FE400A3F3C7F8F430D7F8F430B3FA83F39B00A3
:103FF40003F1844303F584031A4600231360FCF79A
:1040040075F9C7F88C0109E0FCF770F90246D7F896
:104014008C31D31A022B01D90323A8E30223C7F856
:10402400F030D7F8F03093FAA3F3C7F8EC30D7F8B0
:10403400EC30B3FA83F3DBB25B09DBB243F0010388
:10404400DBB2012B02D1564B1B680AE00223C7F8EE
:10405400E830D7F8E83093FAA3F3C7F8E430504BCC
:104064005B6A0222C7F8E020D7F8E02092FAA2F2B5
:10407400C7F8DC20D7F8DC20B2FA82F252B242F060
:10408400200252B2D2B202F01F02D34003F0010365
:10409400002BB9D13B1D1B681B6803F00803002BE0
:1040A40000F0B0803B1D1B689B69002B54D001239A
:1040B400C7F8D830D7F8D83093FAA3F3C7F8D43078
:1040C400D7F8D430B3FA83F39B001A46354B134424
:1040D4001A4601231360FCF709F9C7F88C0109E0BB
:1040E400FCF704F90246D7F88C31D31A022B01D914
:1040F40003233CE30223C7F8D030D7F8D03093FA37
:10410400A3F3C7F8CC300223C7F8C830D7F8C830B7
:1041140093FAA3F3C7F8C430214B5A6A0223C7F8B1
:10412400C030D7F8C03093FAA3F3C7F8BC30D7F83F
:10413400BC30B3FA83F35BB243F060035BB2DBB22F
:1041440003F01F0322FA03F303F00103002BC7D08B
:104154000120FCF7D5F855E00123C7F8B830D7F8AB
:10416400B83093FAA3F3C7F8B430D7F8B430B3FA3D
:1041740083F39B001A460B4B13441A460023136027
:10418400FCF7B4F8C7F88C010EE0FCF7AFF8024670
:10419400D7F88C31D31A022B06D90323E7E200BFE8
:1041A40000100240800442420223C7F8B030D7F81E
:1041B400B03093FAA3F3C7F8AC300223C7F8A830A1
:1041C400D7F8A83093FAA3F3C7F8A430B74B5A6AC8
:1041D4000223C7F8A030D7F8A03093FAA3F3C7F8A6
:1041E4009C30D7F89C30B3FA83F35BB243F060039E
:1041F4005BB2DBB203F01F0322FA03F303F0010303
:10420400002BC2D13B1D1B681B6803F00403002B69
:1042140000F01A81A54AA54BDB6943F08053D361B2
:10422400A24BDB6903F0805207F108031A6007F11F
:1042340008031B689E4A9E4B1B6843F480731360FB
:10424400FCF754F8C7F88C0109E0FCF74FF8024674
:10425400D7F88C31D31A642B01D9032387E2944B0A
:104264001B6803F48073002BEFD03B1D1B68DB68D5
:10427400012B06D18D4A8D4B1B6A43F00103136257
:104284002FE03B1D1B68DB68002B0CD1874A874B52
:104294001B6A23F001031362844A844B1B6A23F0D4
:1042A400040313621DE03B1D1B68DB68052B0CD166
:1042B4007E4A7E4B1B6A43F0040313627B4A7B4BAA
:1042C4001B6A43F0010313620BE0784A774B1B6AC5
:1042D40023F001031362754A744B1B6A23F0040331
:1042E40013623B1D1B68DB68002B55D0FBF7FEFFF8
:1042F400C7F88C010BE0FBF7F9FF0246D7F88C31C5
:10430400D31A41F28832934201D903232FE20223C4
:10431400C7F89830D7F8983093FAA3F3C7F89430D5
:1043240007F1900302221A6007F190031B6893FAC5
:10433400A3F207F18C031A6007F18C031B68B3FA2C
:1043440083F3DBB25B09DBB243F00203DBB2022B83
:1043540002D1564B1B6A01E0544B5B6A07F1880299
:104364000221116007F18802126892FAA2F107F1A2
:104374008402116007F184021268B2FA82F252B226
:1043840042F0400252B2D2B202F01F02D34003F014
:104394000103002BAFD057E0FBF7A8FFC7F88C014F
:1043A4000BE0FBF7A3FF0246D7F88C31D31A41F296
:1043B4008832934201D90323D9E107F18003022211
:1043C4001A6007F180031B6893FAA3F207F17C03D8
:1043D4001A6007F1780302221A6007F178031B6858
:1043E40093FAA3F207F174031A6007F174031B68CC
:1043F400B3FA83F3DBB25B09DBB243F00203DBB253
:10440400022B02D1294B1B6A01E0284B5B6A07F19E
:1044140070020221116007F17002126892FAA2F18F
:1044240007F16C02116007F16C021268B2FA82F2B1
:1044340052B242F0400252B2D2B202F01F02D34052
:1044440003F00103002BACD13B1D1B68DB69002B7F
:1044540000F08C81154B5B6803F00C03082B00F013
:1044640083813B1D1B68DB69022B40F0098107F146
:1044740068034FF080721A6007F168031B6893FAAF
:10448400A3F207F164031A6007F164031B68B3FA2B
:1044940083F39B0003F1844303F584031A4600234A
:1044A4001360FBF723FFC7F88C010DE000100240F6
:1044B40000700040FBF71AFF0246D7F88C31D31A7C
:1044C400022B01D9032352E107F160034FF000727C
:1044D4001A6007F160031B6893FAA3F207F15C0307
:1044E4001A6007F15C031B68B3FA83F3DBB25B0960
:1044F400DBB243F00103DBB2012B02D19E4B1B68FC
:104504000EE007F158034FF000721A6007F15803E8
:104514001B6893FAA3F207F154031A60964B5B6A83
:1045240007F150024FF00071116007F15002126858
:1045340092FAA2F107F14C02116007F14C021268E1
:10454400B2FA82F252B242F0200252B2D2B202F075
:104554001F02D34003F00103002BABD13B1D1B68AA
:104564001B6AB3F5803F09D18349834B5B6823F40D
:1045740000323B1D1B689B6813434B607E487E4B97
:104584005B6823F474123B1D1B68196A3B1D1B688E
:104594005B6A0B431343436007F148034FF0807297
:1045A4001A6007F148031B6893FAA3F207F1440366
:1045B4001A6007F144031B68B3FA83F39B0003F109
:1045C400844303F584031A4601231360FBF78EFE2C
:1045D400C7F88C0109E0FBF789FE0246D7F88C3155
:1045E400D31A022B01D90323C1E007F140034FF092
:1045F40000721A6007F140031B6893FAA3F207F1F3
:104604003C031A6007F13C031B68B3FA83F3DBB283
:104614005B09DBB243F00103DBB2012B02D1564B41
:104624001B680EE007F138034FF000721A6007F1BF
:1046340038031B6893FAA3F207F134031A604E4B54
:104644005B6A07F130024FF00071116007F130022C
:10465400126892FAA2F107F12C02116007F12C0200
:104664001268B2FA82F252B242F0200252B2D2B2CC
:1046740002F01F02D34003F00103002BABD075E01E
:1046840007F128034FF080721A6007F128031B68B2
:1046940093FAA3F207F124031A6007F124031B68B9
:1046A400B3FA83F39B0003F1844303F584031A46AE
:1046B40000231360FBF71AFEC7F88C0109E0FBF72F
:1046C40015FE0246D7F88C31D31A022B01D90323E5
:1046D4004DE007F120034FF000721A6007F1200348
:1046E4001B6893FAA3F207F11C031A6007F11C0379
:1046F4001B68B3FA83F3DBB25B09DBB243F001035B
:10470400DBB2012B02D11C4B1B680EE007F118032E
:104714004FF000721A6007F118031B6893FAA3F2B2
:1047240007F114031A60144B5B6A07F110024FF08F
:104734000071116007F11002126892FAA2F107F1F8
:104744000C02116007F10C021268B2FA82F252B242
:1047540042F0200252B2D2B202F01F02D34003F060
:104764000103002BABD101E0012300E00023184634
:1047740007F5C877BD4680BD0010024080B598B0EB
:1047840000AF786039600023FB659C4B1B6803F025
:1047940007023B689A4210D29849984B1B6823F051
:1047A40007023B6813430B60944B1B6803F007023A
:1047B4003B689A4201D001235FE17B681B6803F0E8
:1047C4000203002B08D08E498D4B5B6823F0F00266
:1047D4007B689B6813434B607B681B6803F0010391
:1047E400002B00F0F2807B685B68012B35D14FF41D
:1047F4000033BB65BB6D93FAA3F37B657B6DB3FAA2
:1048040083F3DBB25B09DBB243F00103DBB2012BC0
:1048140002D17B4B1B6808E04FF400333B653B6DD2
:1048240093FAA3F3FB64764B5B6A4FF40032BA64E9
:10483400BA6C92FAA2F27A647A6CB2FA82F252B246
:1048440042F0200252B2D2B202F01F02D34003F06F
:104854000103002B6ED101230FE17B685B68022BFF
:1048640035D14FF000733B643B6C93FAA3F3FB63C5
:10487400FB6BB3FA83F3DBB25B09DBB243F00103F6
:10488400DBB2012B02D15E4B1B6808E04FF00073D2
:10489400BB63BB6B93FAA3F37B63594B5B6A4FF027
:1048A40000723A633A6B92FAA2F2FA62FA6AB2FAC4
:1048B40082F252B242F0200252B2D2B202F01F028D
:1048C400D34003F00103002B34D10123D5E00223AC
:1048D400BB62BB6A93FAA3F37B627B6AB3FA83F38A
:1048E400DBB25B09DBB243F00103DBB2012B02D183
:1048F400434B1B6807E002233B623B6A93FAA3F332
:10490400FB613F4B5B6A0222BA61BA6992FAA2F276
:104914007A617A69B2FA82F252B242F0200252B259
:10492400D2B202F01F02D34003F00103002B01D1E5
:104934000123A2E03249324B5B6823F003027B6817
:104944005B6813434B60FBF7D1FCF8657B685B68DD
:10495400012B12D10AE0FBF7C9FC0246FB6DD31A06
:1049640041F28832934201D9032386E0244B5B68E9
:1049740003F00C03042BEED127E07B685B68022B69
:104984001DD10AE0FBF7B2FC0246FB6DD31A41F2DB
:104994008832934201D903236FE0194B5B6803F01B
:1049A4000C03082BEED110E0FBF7A0FC0246FB6DD4
:1049B400D31A41F28832934201D903235DE0104BAC
:1049C4005B6803F00C03002BEED10C4B1B6803F067
:1049D40007023B689A4215D90849084B1B6823F023
:1049E40007023B6813430B60044B1B6803F0070288
:1049F4003B689A4206D001233FE000BF00200240FA
:104A0400001002407B681B6803F00403002B08D0ED
:104A14001C491C4B5B6823F4E0627B68DB6813432E
:104A24004B607B681B6803F00803002B09D0154911
:104A3400144B5B6823F460527B681B69DB001343EF
:104A44004B6000F025F801460E4B5B6803F0F00262
:104A5400F0233B613B6993FAA3F3FB60FB68B3FA71
:104A640083F322FA03F3084AD35C21FA03F3074AD7
:104A740013600F20FBF710FC002318466037BD4677
:104A840080BD00BF00100240FCB4000814010020E7
:104A940090B48EB000AF354B3C1D0FCB84E80F00B3
:104AA400334B1B883B800023FB620023BB62002343
:104AB4007B6300237B6200233B632E4B5B68FB62BA
:104AC400FB6A03F00C03042B02D0082B03D043E051
:104AD400294B3B6343E0FB6A03F470124FF47013F9
:104AE4003B623B6A93FAA3F3FB61FB69B3FA83F37A
:104AF40022FA03F307F13802134413F8343C7B62BF
:104B0400FB6A03F48033002B1ED01A4B5B6803F45A
:104B140000324FF40033BB61BB6993FAA3F37B61AA
:104B24007B69B3FA83F322FA03F307F138021344DF
:104B340013F8383CBB62104ABB6AB2FBF3F37A6ADF
:104B440002FB03F37B6304E07B6A0C4A02FB03F37E
:104B54007B637B6B3B6302E0074B3B6300BF3B6BB8
:104B640018463837BD4690BC704700BF60B4000893
:104B740070B400080010024000127A0000093D00E1
:104B840080B400AF024B1B681846BD4680BC70471A
:104B94001401002080B582B000AFFFF7F1FF014699
:104BA4000B4B5B6803F4E0624FF4E0637B607B686B
:104BB40093FAA3F33B603B68B3FA83F322FA03F35B
:104BC400044AD35C21FA03F318460837BD4680BD76
:104BD400001002400CB5000880B582B000AFFFF7AA
:104BE400CFFF01460B4B5B6803F460524FF46053F4
:104BF4007B607B6893FAA3F33B603B68B3FA83F36F
:104C040022FA03F3044AD35C21FA03F31846083763
:104C1400BD4680BD001002400CB5000880B590B0C0
:104C240000AF78600023FB630023BB637B681B68D1
:104C340003F00103002B00F0AC80674A664BDB698C
:104C440043F08053D361644BDB6903F08053FB6012
:104C5400FB68624A614B1B6843F480731360FBF783
:104C640045FBF86308E0FBF741FB0246FB6BD31AF4
:104C7400642B01D90323ABE0584B1B6803F4807306
:104C8400002BF0D0544B1B6A03F44073BB63BB6B23
:104C9400002B75D07B685B6803F44072BB6B9A424F
:104CA4006ED04D4B1B6A23F44073BB634FF48033C7
:104CB400FB62FB6A93FAA3F3BB62BB6AB3FA83F3A6
:104CC4009B001A46464B13441A46012313604FF4C3
:104CD40080337B637B6B93FAA3F33B633B6BB3FA45
:104CE40083F39B001A463E4B13441A460023136079
:104CF400394ABB6B1362BB6B03F00103002B3FD03B
:104D0400FBF7F4FAF8630AE0FBF7F0FA0246FB6BF0
:104D1400D31A41F28832934201D9032358E0022383
:104D24007B627B6A93FAA3F33B620223FB61FB6918
:104D340093FAA3F3BB61BB69B3FA83F3DBB25B09F8
:104D4400DBB243F00203DBB2022B02D1224B1B6A1B
:104D540001E0214B5B6A02227A617A6992FAA2F23B
:104D64003A613A69B2FA82F252B242F0400252B265
:104D7400D2B202F01F02D34003F00103002BC3D0D0
:104D84001549154B1B6A23F440727B685B68134317
:104D94000B627B681B6803F00203002B08D00E49EA
:104DA4000D4B5B6823F440427B689B6813434B6064
:104DB4007B681B6803F01003002B08D00649064BE0
:104DC4005B6823F480027B685B6913434B600023B8
:104DD40018464037BD4680BD0010024000700040B8
:104DE4000004424290B593B000AF78607C4B07F169
:104DF4000C040FCB84E80F007A4B1B883B81002303
:104E0400FB6300237B640023BB6300233B64002318
:104E14007B637B68013B0F2B00F2DA8001A252F81E
:104E240023F000BF374F0008A34F0008D54F0008F8
:104E3400274F0008D54F0008D54F0008D54F00086C
:104E44002F4F0008D54F0008D54F0008D54F000854
:104E5400D54F0008D54F0008D54F0008D54F00089E
:104E6400694E0008604B5B68FB635F4B1B6803F093
:104E74008073002B00F0AE80FB6B03F470124FF4D0
:104E840070133B633B6B93FAA3F3FB62FB6AB3FAC5
:104E940083F322FA03F307F14802134413F83C3C6A
:104EA4007B63FB6B03F48033002B23D04E4B5B6896
:104EB40003F400324FF40033BB62BB6A93FAA3F3EA
:104EC4007B627B6AB3FA83F322FA03F307F14802A5
:104ED400134413F8403CBB63FB6B03F48033002B97
:104EE4000DD0424ABB6BB2FBF3F37A6B02FB03F3C4
:104EF4003B6404E07B6B3E4A02FB03F33B643A4BA6
:104F04005B6803F48003B3F5800F02D13B6C7B64D0
:104F140060E03B6C5B00374AA2FB03235B087B64C5
:104F240058E0FFF7B5FD786455E0FFF7B1FD78640C
:104F340051E02D4B1B6AFB63FB6B03F44073B3F529
:104F4400807F08D1FB6B03F00203002B03D04FF4E6
:104F540000437B6422E0FB6B03F44073B3F5007FF2
:104F640009D1214B5B6A03F00203002B03D049F6FD
:104F740040437B6412E0FB6B03F44073B3F5407F62
:104F840009D1194B1B6803F40033002B03D04FF2F3
:104F940024437B6402E000237B641CE01BE0FFF7F6
:104FA4001BFE0146104B5B6803F440424FF4804300
:104FB4003B623B6A93FAA3F3FB61FB69B3FA83F3A5
:104FC40022FA03F301335B00B1FBF3F37B6402E0E9
:104FD40000BF00E000BF7B6C18464C37BD4690BD57
:104FE40074B4000884B400080010024000127A006F
:104FF40000093D00ABAAAAAA80B582B000AF7860D0
:105004007B68002B01D101231DE07B6893F83930C4
:10501400DBB2002B06D17B68002283F83820786845
:1050240005F08AFC7B68022283F839207B681A68C1
:105034007B6804331946104600F0E0F97B680122CE
:1050440083F83920002318460837BD4680BD80B553
:1050540082B000AF78607B68002B01D101231DE092
:105064007B6893F83930DBB2002B06D17B680022D1
:1050740083F83820786800F015F87B68022283F8FA
:1050840039207B681A687B6804331946104600F09F
:10509400B5F97B68012283F83920002318460837C4
:1050A400BD4680BD80B483B000AF786000BF0C37CC
:1050B400BD4680BC7047000080B584B000AFF86086
:1050C400B9607A60FB6893F83830012B01D1022370
:1050D400B4E0FB68012283F83820FB68022283F8DD
:1050E40039207B680C2B00F29F8001A252F823F038
:1050F400295100082D5200082D5200082D52000895
:10510400695100082D5200082D5200082D52000844
:10511400AB5100082D5200082D5200082D520008F2
:10512400EB510008FB681B68B968184600F0DCF90D
:10513400FB681B68FA681268926942F008029A6177
:10514400FB681B68FA681268926922F004029A618B
:10515400FB681B68FA6812689169BA6812690A43A5
:105164009A6162E0FB681B68B968184600F032FA7D
:10517400FB681B68FA681268926942F400629A61DB
:10518400FB681B68FA681268926922F480629A616B
:10519400FB681B68FA6812689169BA68126912029E
:1051A4000A439A6141E0FB681B68B968184600F03D
:1051B4008BFAFB681B68FA681268D26942F008022D
:1051C400DA61FB681B68FA681268D26922F004028B
:1051D400DA61FB681B68FA681268D169BA681269F7
:1051E4000A43DA6121E0FB681B68B968184600F0DD
:1051F400E5FAFB681B68FA681268D26942F4006237
:10520400DA61FB681B68FA681268D26922F480626A
:10521400DA61FB681B68FA681268D169BA681269B6
:1052240012020A43DA6100E000BFFB68012283F83E
:105234003920FB68002283F83820002318461037F1
:10524400BD4680BD80B584B000AF7860396000236E
:10525400FB607B6893F83830012B01D10223C8E04E
:105264007B68012283F838207B68022283F8392086
:105274007B681B689B68FB60FB6823F07703FB601B
:10528400FB6823F47F43FB607B681B68FA689A60C1
:105294003B681B68402B77D0402B0ED8102B00F0B6
:1052A4008A80102B02D8002B7ED099E0202B00F0AE
:1052B4008980302B00F08D8092E0702B16D0702BFB
:1052C40004D8502B40D0602B4ED089E0B3F5805FDA
:1052D40003D0B3F5005F24D082E07B681B687A6852
:1052E4001268926822F007029A6079E07B68186875
:1052F4003B6899683B685A683B68DB6800F03CFB94
:105304007B681B689B68FB60FB6823F07703FB608A
:10531400FB6843F07703FB607B681B68FA689A605C
:105324005EE07B6818683B6899683B685A683B682C
:10533400DB6800F021FB7B681B687A68126892685E
:1053440042F480429A604BE07B6818683B68596875
:105354003B68DB681A4600F08BFA7B681B685021B7
:10536400184600F0EAFA3BE07B6818683B68596825
:105374003B68DB681A4600F0ADFA7B681B68602165
:10538400184600F0DAFA2BE07B6818683B68596825
:105394003B68DB681A4600F06BFA7B681B684021A7
:1053A400184600F0CAFA1BE07B681B680021184607
:1053B40000F0C3FA14E07B681B681021184600F063
:1053C400BCFA0DE07B681B682021184600F0B5FA92
:1053D40006E07B681B683021184600F0AEFA00BF77
:1053E4007B68012283F839207B68002283F8382007
:1053F400002318461037BD4680BD000080B485B038
:1054040000AF786039600023FB607B681B68FB6039
:105414007B68304A934213D07B682F4A93420FD063
:105424007B68B3F1804F0BD07B682C4A934207D042
:105434007B682B4A934203D07B682A4A934208D163
:10544400FB6823F07003FB603B685B68FA681343F6
:10545400FB607B681F4A934213D07B681E4A9342C9
:105464000FD07B68B3F1804F0BD07B681B4A93420B
:1054740007D07B681A4A934203D07B68194A934247
:1054840008D1FB6823F44073FB603B68DB68FA686F
:105494001343FB607B68FA681A603B689A687B6810
:1054A400DA623B681A687B689A627B68094A9342AD
:1054B40003D07B68084A934203D13B681A697B682E
:1054C4001A637B6801225A6100BF1437BD4680BC51
:1054D400704700BF002C014000340140000400402C
:1054E40000080040000C004080B487B000AF786032
:1054F40039600023FB6000237B6100233B617B68F0
:105504001B6A23F001027B681A627B681B6A7B6159
:105514007B685B683B617B689B69FB60FB6823F08D
:105524007003FB60FB6823F00303FB603B681B68AC
:10553400FA681343FB607B6923F002037B613B68D9
:105544009B687A6913437B617B68204A934203D04A
:105554007B681F4A93420CD17B6923F008037B616B
:105564003B68DB687A6913437B617B6923F004033E
:105574007B617B68154A934203D07B68144A93424B
:1055840011D13B6923F480733B613B6923F40073BD
:105594003B613B685B693A6913433B613B689B69C8
:1055A4003A6913433B617B683A695A607B68FA68DD
:1055B4009A613B685A687B685A637B687A691A62A5
:1055C40000BF1C37BD4680BC704700BF002C0140A3
:1055D4000034014080B487B000AF786039600023A4
:1055E400FB6000237B6100233B617B681B6A23F023
:1055F40010027B681A627B681B6A7B617B685B684C
:105604003B617B689B69FB60FB6823F4E043FB60C0
:10561400FB6823F44073FB603B681B681B02FA6859
:105624001343FB607B6923F020037B613B689B6829
:105634001B017A6913437B617B68214A934203D03F
:105644007B68204A93420DD17B6923F080037B6100
:105654003B68DB681B017A6913437B617B6923F038
:1056640040037B617B68164A934203D07B68154AEA
:10567400934213D13B6923F480633B613B6923F478
:1056840000633B613B685B699B003A6913433B6180
:105694003B689B699B003A6913433B617B683A69A9
:1056A4005A607B68FA689A613B685A687B689A63B7
:1056B4007B687A691A6200BF1C37BD4680BC70479C
:1056C400002C01400034014080B487B000AF786002
:1056D40039600023FB6000237B6100233B617B680E
:1056E4001B6A23F480727B681A627B681B6A7B6185
:1056F4007B685B683B617B68DB69FB60FB6823F06C
:105704007003FB60FB6823F00303FB603B681B68CA
:10571400FA681343FB607B6923F400737B613B6885
:105724009B681B027A6913437B617B68214A93421D
:1057340003D07B68204A93420DD17B6923F4006334
:105744007B613B68DB681B027A6913437B617B697D
:1057540023F480637B617B68164A934203D07B68A1
:10576400154A934213D13B6923F480533B613B694F
:1057740023F400533B613B685B691B013A691343A3
:105784003B613B689B691B013A6913433B617B683E
:105794003A695A607B68FA68DA613B685A687B68E0
:1057A400DA637B687A691A6200BF1C37BD4680BC25
:1057B400704700BF002C01400034014080B487B022
:1057C40000AF7860396000233B610023FB60002355
:1057D4007B617B681B6A23F480527B681A627B6856
:1057E4001B6AFB607B685B687B617B68DB693B6190
:1057F4003B6923F4E0433B613B6923F440733B6121
:105804003B681B681B023A6913433B61FB6823F442
:105814000053FB603B689B681B03FA681343FB60FF
:105824007B68114A934203D07B68104A934209D1A2
:105834007B6923F480437B613B685B699B017A69E4
:1058440013437B617B687A695A607B683A69DA61E1
:105854003B685A687B681A647B68FA681A6200BFFE
:105864001C37BD4680BC7047002C01400034014009
:1058740080B487B000AFF860B9607A6000237B61C0
:1058840000233B61FB681B6A3B61FB681B6A23F0D6
:105894000102FB681A62FB689B697B617B6923F0E8
:1058A400F0037B617B681B017A6913437B613B696D
:1058B40023F00A033B613A69BB6813433B61FB680D
:1058C4007A699A61FB683A691A6200BF1C37BD465F
:1058D40080BC704780B487B000AFF860B9607A606C
:1058E40000237B6100233B61FB681B6A23F01002E9
:1058F400FB681A62FB689B697B61FB681B6A3B61FE
:105904007B6923F470437B617B681B037A691343CF
:105914007B613B6923F0A0033B61BB681B013A69CF
:1059240013433B61FB687A699A61FB683A691A62BE
:1059340000BF1C37BD4680BC704780B485B000AF43
:1059440078600B467B800023FB607B689B68FB6070
:10595400FB6823F07003FB607B8843F007039BB272
:105964001A46FB681343FB607B68FA689A6000BFC1
:105974001437BD4680BC704780B487B000AFF86070
:10598400B9607A603B6000237B61FB689B687B6144
:105994007B6923F47F437B613B681A027B681A436B
:1059A400BB6813437A6913437B61FB687A699A6025
:1059B40000BF1C37BD4680BC704780B582B000AFC5
:1059C400786039607B681B6804223968184600F0E7
:1059D40092F87B681B687A681268526C42F4004241
:1059E4005A647B681B687A681268126842F0010284
:1059F4001A60002318460837BD4680BD80B483B0C2
:105A040000AF786039607B6893F83830012B01D19E
:105A1400022327E07B68012283F838207B68022276
:105A240083F839207B681B683A6811683A685268C1
:105A340011433A68926811433A68D26811433A684C
:105A4400126911433A68526911433A6892690A43E8
:105A54005A647B68012283F839207B68002283F82A
:105A64003820002318460C37BD4680BC704780B4EC
:105A740083B000AF786039607B6893F83830012BCD
:105A840001D1022332E07B68012283F838207B684D
:105A9400022283F839207B681B687A68126852688E
:105AA40022F070025A607B681B687A681268516839
:105AB4003A6812680A435A607B681B687A681268FD
:105AC400926822F080029A607B681B687A68126888
